S01300006E6F6465746573742D7573622E73333704
S3150800400008EF0020592A01088D2401088F24010889
S31508004010A70A080100410008040803AC00537A0106
S315080040200000000000000000000000000000000082
S315080040300000000000000000000000000000000072
S315080040400000000000000000FFFFFFFFFFFFFFFF6A
S31508004050FFFFFFFF00E00708000000000000000067
S31508004060FFFFFFFFFFFFFFFFFFFFFFFFFFFFFFFF52
S31508004070FFFFFFFFFFFFFFFFFFFFFFFFFFFFFFFF42
S31508004080F0FF002000000000EEFF0020EEFF0020F9
S3150800409008EF00207C510108862D0108A8E50020BC
S311080040A08006002000000808000001202F
S3150800410008EF0020592A01088D2401088F24010888
S315080041109324010891240108952401080C25010817
S315080041200C2501080C2501080C2501080C25010899
S31508004130972401080C250108C92C010881AC000840
S31508004140410E01080C250108C9BD00080C25010807
S315080041501BBB000831A700080C2501080C2501081F
S31508004160D5F1000835C1000837B80008B9B000080D
S315080041700C250108DFB300083DB40008315D0008CE
S31508004180496100080C2501080C2501080D250108C0
S3150800419070472DE9F84F04460026DFF858580FF205
S315080041A0840100F0D1F80FF2AC2A0FF2585B0FF237
S315080041B04458DFF8449804E0514600F0DBFE701CD2
S315080041C086B237012268B9184B6828789BB1BA5865
S315080041D04B4503D1414600F0CDFEF0E78B685946C2
S315080041E000F0C8FE20683818C2682878002AE3D08C
S315080041F00FF21851EFE70FF2A00100F0BBFE0FF225
S31508004200C00100F0A1F80FF2E80100F09DF80FF2E6
S315080042100C1100F099F851462878BDE8F44F00F0E3
S31508004220A9BE0000434F4D4D414E44205B504152BC
S31508004230414D45544552535D205B2D20444553431B
S3150800424052495054494F4E5D0D0A202077686572D1
S31508004250653A20623D6275666665722C2073313D4B
S31508004260696E7438732C2073323D696E74313673F7
S315080042702C2075313D696E7438752C2075323D6970
S315080042806E743136752C2075343D696E743332750B
S315080042900D0A0D0A0000000020202120202D2052A2
S315080042A06563616C6C7320746865207072657669E5
S315080042B06F757320636F6D6D616E640D0A00000083
S315080042C020205B7461625D202D20417474656D70D9
S315080042D0747320746F2074616220636F6D706C65EF
S315080042E0746520636F6D6D616E640D0A00000000D1
S315080042F0202020202A2A204E4F54453A20616C6CF3
S3150800430020696E7075742076616C756573206172AC
S315080043106520696E20686578210D0A002020202016
S315080043202A2A20436F6D6D616E6473206172652061
S315080043304E4F5420636173652073656E73697469A3
S3150800434076650D0A00000000287800F013BEA0F17B
S315080043504101C9B21A293CBF2030C0B270472DE9C5
S31508004360F84F05460024A8680068C0B2DFF88C1626
S31508004370096810F80180A346DFF87866B8F1210FBE
S3150800438009DB20220FF2D0013078BDE8F84F00F0A3
S31508004390F1BDBDE8F18F00F0A5FE8246A14607E013
S315080043A019F80A00FFF7D3FF09F80A0009F101090D
S315080043B0C145F5DB42460FF2E401504601F034F9F7
S315080043C040B94FF0010B05E03A460FF2D8013078B4
S315080043D000F0D0FD20012968421852681300D8D091
S315080043E0641CA4B2DFF810964A45F3D14758BBF1CE
S315080043F0000FE9D1384601F029F94045EAD142468D
S315080044005146384601F002F90028E3D10FF2D828C0
S315080044100FF2F82B0FF2940A04E0414600F0AAFDC9
S31508004420641CA4B22701286839184A68130018BF03
S315080044304A45AED08B683A585146307800F09AFD16
S3150800444028683818C2683078002AE6D0594600F03D
S3150800445091FDE5E70D0A00004572726F723A206C0D
S3150800446069737420617267756D656E7420746F6FF9
S31508004470206C6F6E672C207765206F6E6C792073C1
S315080044807570706F727420757020746F2025752092
S3150800449062797465732E0D0A000000006D6F6475ED
S315080044A06C65730025700D0A000000002570202534
S315080044B07000000070B588B00446DFF84455A0685F
S315080044C000682870DFF83C65A068406830700FF215
S315080044D0580001F09DFADFF83005A168C968017037
S315080044E0DFF82815A26812690A70097807910FF291
S315080044F060010691007805900FF25C000490012097
S3150800450003907AA00290307801900FF25400009040
S315080045102B780FF2540204F111010FF2540001F046
S3150800452077FA08B070BD00005475726E696E672020
S315080045306F66662074616773206E6F742079657480
S3150800454020737570706F727465640D0A0000000040
S31508004550746578740000000064656C696D0000007D
S31508004560636F6D6D616E64006865616465720000F5
S315080045707B264E20566572626F73697479206F7058
S3150800458074696F6E732073657420746F3A0D0A260A
S3150800459074750D0A2674750D0A2674750D0A267427
S315080045A0750D0A2674757D0D0A000000007CDFF87B
S315080045B0601451F820200FF20C01DFF83804007857
S315080045C000F0D8BC4349204572726F723A202570B4
S315080045D00D0A000038B5DFF81C4443A500F052FA6E
S315080045E00FF22C0100F04FFA00F04CFA0FF24401DA
S315080045F000F049FA3EA100F046FA0FF2440100F035
S3150800460042FA0FF248012078BDE8344000F0B2BC07
S31508004610456D626572204E6F64652054657374201B
S315080046204170706C69636174696F6E2076312E30E3
S31508004630000000004A756E202034203230313400E4
S3150800464031393A34383A3436000000000D0A0D0A7A
S31508004650000000002DE9F74F0446276B0026DFF817
S31508004660948305E020A100F085FC761CB6B21037CD
S315080046707868B8B33D68DDF804904FF0000A0CE09E
S3150800468019F8010BFFF763FE834615F8010BFFF7D0
S315080046905EFE8345E9D10AF1010A9DF808001FFA72
S315080046A08AFA8245ECD3350120682A58291898F8E1
S315080046B000004B68DFF840C3634504D10FF23401AC
S315080046C000F058FCD1E78B680FF2380100F052FC75
S315080046D020682818C26898F80000002AC2D00FF28D
S315080046E02C01EDE7BDE8F78F0D0A0000746167003D
S315080046F02C2000002D2D2D2D202570202D2D2D2D23
S315080047000D0A00002020257020257000202D202568
S31508004710700D0A009CB00EA80FF2F821342201F0A1
S31508004720A7F94FF000098DF8019001F0CDF9A52001
S3150800473001F0ECFB01F034FC012300220F211046A6
S3150800474000F0AAFA050006D0012300220A21104625
S3150800475000F0A2FA0546012300220F21184600F0B0
S315080047609BFA060006D0012300220A21184600F00B
S3150800477093FA0646012300220F21022000F08CFA44
S31508004780070006D0012300220A21022000F084FA3D
S31508004790074601F069FD00231A461146032000F07A
S315080047A07BFA944C7DB1002E00F08480002F00F037
S315080047B08580002800F0858040F2B9110FF2882024
S315080047C001F058FD04E0002E1CBF002F00287BD006
S315080047D000202070201D02F027FB201DFFF7FAFE9F
S315080047E00FF2742500F04EF90FF2A42100F04BF9F0
S315080047F07DA6314600F047F9201D02F0FDFD00F0C8
S3150800480041F90FF2982100F03EF9314600F03BF9E4
S31508004810201D02F0C9FE00F035F90FF28C2100F0D8
S3150800482032F9314600F02FF9201D03F0B4F800F0F4
S3150800483029F90FF2802100F026F9314600F023F914
S31508004840201D03F0F6FA00F01DF90FF2742100F0AE
S315080048501AF9314600F017F9201D04F000FE00F0A1
S3150800486011F90FF2682100F00EF9314600F00BF944
S31508004870201D04F017FE00F005F90FF25C2100F088
S3150800488002F9314600F0FFF8201D04F028FE00F07A
S31508004890F9F80FF2502100F0F6F8314600F0F3F877
S315080048A0201D05F0BCF951A551A60FF2B4170DF15C
S315080048B0040842E047B138B101208AE720B1022056
S315080048C087E7032085E725702078FF2882D1002511
S315080048D000A9284600F01EFA38B99DF800000D28F0
S315080048E018BF0A2818BF2A28EDD06D1CEDB2042D72
S315080048F0EED3E9E78DF800009DF8001011F80820BE
S31508004900481C0A2A18BF0D2A18BF002AF2D10D2200
S3150800491001F808208DF800009DF8002001A9201D47
S3150800492002F08EFA9DF8002001A90EA800F024FED8
S315080049309DF8009000208DF80100394600F0A3F894
S315080049400DF10103322201A9207800F02AFA002885
S31508004950D0D001F0D7FA05F072FC9DF8010028B313
S3150800496001A9401810F8010C09281FD1314600F09A
S315080049708AF89DF80100401E8DF801009DF8012077
S3150800498001A9201DFFF766FE9DF80100002100F829
S315080049900810394600F077F8002004E000F06CF8BB
S315080049A09DF80000401C00F05FF8F7D39DF804005E
S315080049B02128C5D1314600F066F84A460EA901A855
S315080049C000F0DAFDA9F101008DF80100394600F082
S315080049D05AF8002000F048F8B2D200F04DF89DF8D9
S315080049E00000401CF6E700005D0D0A002563000084
S315080049F00D0A000008EF002091410008A0EF0020F2
S31508004A0040EF002041EF002042EF002043EF002056
S31508004A1010F100200D00000000000000000000005A
S31508004A200000000000000000000000000000000078
S31508004A300000000000000000000000000000000068
S31508004A400000000000000000706C6174666F726DF3
S31508004A50746573742E6300005B494E495420000048
S31508004A600D0A3E20000000008DF800009DF80000A9
S31508004A709DF801108842704710F8082029462078CA
S31508004A8000F078BA2946207800F074BA00207047FA
S31508004A9064735553425761726E0000006372617306
S31508004AA068696E666F000000656655534257617205
S31508004AB06E000000696E6974546F6B656E73000052
S31508004AC07265736574737472696E6700696E69746A
S31508004AD0526164696F00000073656564506E7267A1
S31508004AE000000000736574506572546573745478D9
S31508004AF00000000070B51346101802E0A4192C70C7
S31508004B005B1EDBB24BB101F00F060909451E2846AC
S31508004B100A2E34BF30243724F0E7101870BD2DE96B
S31508004B20F04F87B08046894614469B4601AD00275C
S31508004B3001A88DF800001BE05BF804AB04224FEADD
S31508004B401A412846FFF7D6FF04221FFA8AF1FFF713
S31508004B50D1FF054605A8854209D39DF800002E1AFF
S31508004B6000F096F8002831D1F719FFB201AD641CA0
S31508004B709DF800002E1A2078002807D0252802D094
S31508004B8005F8010BE6E714F8010F002876D025286A
S31508004B90F6D0322818BF34285FD0582857D0632853
S31508004BA00CD0642818BF6C2825D0702818BF732825
S31508004BB007D075281FD0782849D0CBE75BF8040BB7
S31508004BC0DEE75BF804AB00F063F800285CD1F71960
S31508004BD0FFB201AD002600E0761CF6B216F80A0010
S31508004BE00028F9D1324651464846C04700284BD1DD
S31508004BF0F719FFB2AEE75BF8040B0021002803D5CE
S31508004C002D21297001214042002300224FF0000C7B
S31508004C1002E0801B0CF1010C0FF2A44656F8226044
S31508004C20B042F6D243EA0C06F6B2002E05D0C9B257
S31508004C300CF130034B55491C0123521C092AE5DBAC
S31508004C40C9B230304855481CC0B2451982E75BF8EE
S31508004C50041B0222C9B2284679E714F8010F7828FE
S31508004C601CBF5828641EF1D114F8010C32287FF4B1
S31508004C7063AF5BF8041B042289B2ECE700F008F87E
S31508004C8010B9F019C0B200E0002007B0BDE8F08FF7
S31508004C90F2B201A9484640472DE9FC4E044689462A
S31508004CA092469B46042C27D026D20FF2FC30205C75
S31508004CB0012821D1DFF8E05305EB8406F76805F0F3
S31508004CC063FB0021B9803980798005F063FBF669BA
S31508004CD005F05AFB0021B18031807180615505F0DD
S31508004CE059FB05F024FD5B4652464946204602B06C
S31508004CF0BDE8F04E05F096BB2120BDE8F68E10B54E
S31508004D00044605F0D2FCDFF8900300EB8400C06986
S31508004D10808810BD2DE9F04188460446DFF87853AF
S31508004D2005EB8401CE690FF28031615C09B9012077
S31508004D3035E005EB4407615D61B1B9887288914237
S31508004D4008D105F021FB665D0021615505F022FBBF
S31508004D50304624E005F0A9FCB088F8B105F014FB4C
S31508004D6071888919897988F800107188491C0FF2A9
S31508004D70443232F8142000F0E4F87180B188491EF4
S31508004D80B18005F007FB605D30B1B8884FF6FF715A
S31508004D90884204BF3088B880002000E02620BDE89D
S31508004DA0F081F8B504460F4616461D46287808B120
S31508004DB0B04208D30020387005E02878411C2970D5
S31508004DC09DF80010C15500A92046FFF7A3FF00284B
S31508004DD055D19DF800008028F5D2287828B99DF885
S31508004DE000100A2918BF0029EDD0B04207D30020C9
S31508004DF028709DF800000D2818BF0028E3D09DF8FC
S31508004E000000082818BF7F280CD128780028DAD097
S31508004E10401E2870C0B20021C1558EA1204600F060
S31508004E204AF8D0E72878801C8642BCBF0D208DF84A
S31508004E3000009DF8000000F023F89DF80000613896
S31508004E40C0B21A2804D29DF8000020388DF8000058
S31508004E509DF800000D2818BF0A28AED12878002131
S31508004E60C1559DF800000D2804D10A2000F008F865
S31508004E70002602E00D2000F003F82E700020F2BD97
S31508004E808DF8010001220DF10101204686E070B57A
S31508004E9082B004460D46164600208DF8000001E053
S31508004EA001F030F800AB324629462046FFF779FF75
S31508004EB00028F5D176BD2DE9F84F83460D465E46A6
S31508004EC00FF2E410305C012838D1734800EB8600F5
S31508004ED0C76800240FF2E4180FF2D0190FF2C01AAF
S31508004EE015E005F051FAB98801B901243988C919BC
S31508004EF015F8012B8A713988491C39F8162000F0F3
S31508004F0020F83980B988491CB98005F043FA287811
S31508004F1078B1B8883AF816108842E2D31CB15846D8
S31508004F2005F0D3FA002416F808000028F1D122204B
S31508004F3005E0584605F0C9FA002000E00120BDE862
S31508004F40F28F91FBF2F302FB1311704751A111E0A6
S31508004F5010B500240FF25013C35C012B08D1134679
S31508004F600A4601460FF23500FFF7D9FD00B90124BC
S31508004F70204610BD0CB480B502AAFFF7E9FF02BCB3
S31508004F805DF80CFB0CB438B5044604AAFFF7E0FF3D
S31508004F9005462046FFF7DAFF284678E02DE9F84F60
S31508004FA080468B46164647460FF2FC00385C0128B9
S31508004FB03AD1394800EB8700C46800250FF2FC098E
S31508004FC00FF2DC0A17E005F0DFF9A18801B901251F
S31508004FD0218809191BF8012B8A712188491C0FF2AF
S31508004FE0CC0232F81720FFF7ACFF2180A188491CB4
S31508004FF0A18005F0CFF93046461EC0B278B1A08828
S315080050003AF817108842DED31DB1404605F05DFA1E
S31508005010002517F809000028F1D1222005E04046AE
S3150800502005F053FA002000E00120BDE8F28F80B5B4
S315080050300FF27402825C012A06D1174A02EB80013C
S31508005040C9688A88002AFCD105F0A0FA002002BDAA
S3150800505000000000082008000CB438B504460D46C8
S3150800506005F066FA04AB2A4621460C48FFF757FDB9
S315080050700FF23401615C012908D1074901EB84006C
S31508005080C068808810B1204605F01FFA002032BC9F
S315080050905DF80CFB0D0A0000E4F0002041A50008AD
S315080050A080008000800080000101010180008000EE
S315080050B080008000400040004000400001010101DE
S315080050C000CA9A3B00E1F5058096980040420F0019
S315080050D0A086010010270000E80300006400000015
S315080050E00A000000DFF86014096801EB40107047F9
S315080050F0DFF858241268815470472DE9F0410400FE
S3150800510032D005F041F9DFF84814DFF84854DFF8E3
S315080051104824FF231678FE2E1DD100261670DFF8C8
S315080051203C6437782F700027DFF834C409E007F1AC
S31508005130010E07F808E0DCF8008007F808305FFA87
S315080051408EF796F800E0D1F800807745EFDB0EEB96
S31508005150080606F8013C2E78A64207D205F01AF989
S3150800516000211B2005F0A8FBFF201FE0361B2E7030
S315080051701578DFF8F0731678D7F800C04FF0010EEF
S3150800518006F80CE0D1F800C016F80CE082F800E04A
S31508005190641EE4B2002CEED106F80C30DFF8AC132E
S315080051A0096800226A5405F0F5F82846BDE8F0813A
S315080051B010B5044605F0E8F8DFF8A8130968625C3C
S315080051C0521C6254BDE8104005F0E4B82DE9F041E0
S315080051D0044600F032F8054605F0D6F8DFF87823DD
S315080051E0DFF87033DFF86863DFF8788311E0316839
S315080051F0615C002704F80E701F787F1C1F70D6F8B4
S3150800520000E0177804F80E701470FF2904D12C46B4
S31508005210FF25FF2C01D10CE00C46D8F80010675C7E
S315080052207F1E6754D8F800E014F80E107F2739421D
S31508005230DDD0BDE8F04105F0ADB880B5DFF8241340
S315080052400968415C090603D5FFF74CFF007802BDE3
S31508005250FF2002BD70B582B004460D4605F11F0059
S3150800526000F013F90646FF2E0DD0DFF8E0020068BD
S3150800527035543CB1012000902B4600223146204689
S3150800528000F002F8304676BDF2B582B005461646FD
S315080052901F46089C0846DFF8B4120968405CB9192D
S315080052A0884203DA4FF4B07100F0D4F85FB13146A2
S315080052B002A800F0D3F800943B4602469DF8081071
S315080052C0284600F001F8F7BD2DE9F843054689465A
S315080052D016461F46DFF87882089C0BE04A5D0A549A
S315080052E0491CB142FADBBF1B7519D8F8000019F83A
S315080052F000900026FFB2BFB14846FFF7F3FE30180C
S31508005300F1192029B2BF3E46C6F12006F6B232464A
S3150800531024B90146284600F02FF9E4E7012C08BF16
S315080053202946F8D00021DCE7BDE8F1832DE9F041F4
S3150800533082B00446884616001F46DFF81002006849
S31508005340255C0ED07119C9B2204600F04FF808B195
S31508005350182007E0009733462A4621464046FFF7BD
S3150800536093FF0020BDE8F6810123DFE70A4600E047
S31508005370521C1378002BFBD10223521AD2B2D5E75E
S31508005380F8B5044601F11F00C5042D0E02F11F00F1
S31508005390C004000E05B9012500B90120854223D0B5
S315080053A0DFF8AC61854210DA401BC0B2FFF7A5FEF4
S315080053B00746FF2F01D10020F2BD691EC9B220465B
S315080053C000F026F8316847540EE08A420CD2411E96
S315080053D0C9B2204600F01CF804463068205CFFF786
S315080053E0F5FE3068FF2121540120F2BD70B5044650
S315080053F00D46DFF858612A463068215C2046FFF7DB
S31508005400BFFF18B130682554002070BD182070BD44
S3150800541004E0491EDFF838211268805CC9B2002909
S31508005420F7D1704711B581B00C46DFF8201109682D
S31508005430405C844203D34FF4F47100F00BF8214624
S3150800544001A800F00BF804469DF80400FFF74AFE91
S31508005450201816BD0FF2101000F00CBF38B5044620
S315080054600D46E904090E2078FFF7D2FF207005F0F3
S315080054701F0032BD80B5FFF7D5FF007802BD10B515
S315080054801446FFF7CFFF047010BD0004400DC0B2EC
S3150800549033E670B500F00BF800F005F8007800EB7D
S315080054A0062080B270BD067829462046BAE704462B
S315080054B00D46691CC9B2B5E72DE9F5411F46089C9A
S315080054C0A4B24CB3254689B200A8FFF7C7FF064623
S315080054D0B9B201A8FFF7C2FF07463046B84238BF3F
S315080054E03846C0F12000C0B2A842B8BF05469DF8AC
S315080054F00400FFF7F7FD80469DF80000FFF7F2FD70
S315080055002A4607EB0801301800F036F8641BA9197B
S31508005510EF19A4B2002CD5D1BDE8F38170B50446C5
S315080055200D4604F031FF0E4A12682378FF2B08BF98
S31508005530AD5403D09B181E78AE541D702570BDE877
S31508005540704004F027BF00009CEF0020A0EF002069
S31508005550A8EF002099EF0020E0F0002098EF002047
S31508005560ACEF0020A4EF00207061636B65742D62B8
S3150800557075666665722E6300814233D21018401E26
S315080055805118491E10E0121F11F8013900F80139A7
S3150800559011F8013900F8013911F8013900F8013913
S315080055A011F8013900F8013992B2042AEBD292B205
S315080055B0002A1EBF11F8013900F80139521EF6D12A
S315080055C07047121F11F8013B00F8013B11F8013B27
S315080055D000F8013B11F8013B00F8013B11F8013BCB
S315080055E000F8013B92B2042AEBD292B2002A1EBFFF
S315080055F011F8013B00F8013B521EF6D17047130023
S3150800560003D00A46194605F05BB9704710B500E0A5
S31508005610521E92B232B110F8013B11F8014BA34267
S31508005620F6D00FE0002010BD10B500E0521E92B271
S3150800563032B110F8013B11F8014BA342F6D001E054
S31508005640002010BD181B40B210BD000000F1010378
S31508005650810704D010F8011B89B18107FAD10268C5
S31508005660B2F10131914311F0803F04BF50F8042F85
S31508005670F6E710F8011B11B110F8011BFBE7C01A79
S315080056807047000038B50446206A611D451AEAB21B
S3150800569020792368984708B1002032BD94F829007C
S315080056A0281884F8290004F205002062012032BD7A
S315080056B038B50446002500E06D1CEDB2685C00288C
S315080056C0FAD12A4620792368984730B994F82900F0
S315080056D0281884F82900012032BD002032BD2DE9A2
S315080056E0FE4F04460D46924604F20500206204F178
S315080056F0200604F215007060002070724FF00A0B45
S31508005700DFF83C8315E018B104F2050020620D4667
S31508005710B9F1000F04D000F05BF97D2100F8011DF6
S31508005720206A7168884203D300F058F9002868D0C7
S315080057306D1C2878002800F0428198F80110252869
S3150800574018BF26280FD07B281CBF7D28232807D101
S315080057500029E5D03168491C316001F8010DDFE701
S3150800576098F80210F4E715F8012F252A18BF262AFB
S3150800577003D100F02DF92978D0E726280CD159B1A4
S315080057804FF001096E2A18BF4E2A12D000F020F9F0
S315080057907B2100F8011D01E04FF00009002029785F
S315080057A04E2906D0542929D06E2902D0742925D02D
S315080057B037E05AF8047B98F800000028B0D0B9F111
S315080057C0000F07D0206A7B2100F8011B411C2162CB
S315080057D02821017000F002F9002812D000F0F5F82F
S315080057E000280ED0B9F1000F9AD0206A292100F8B6
S315080057F0011B411C21627D21017091E700F0ECF844
S31508005800002873D000F0E1F800286FD000F0E6F821
S3150800581000286BD000F0DCF83A2100F8011D0120C1
S315080058206D1C29783039C9B295F801E08A1E052A17
S3150800583031D2BEF1640F18BFBEF1750F2BD100230C
S315080058405AF8042B97B2ADF800700122BEF1640F26
S3150800585008D15FEA074C05D501236FEA070C0CF15E
S315080058600107BFB237B15B1C97FBFBF7BFB2002F2E
S31508005870F9D109E05B1C07E0376807F1010CC6F8A7
S3150800588000C020270CF8017D1F467B1CFFB28F4203
S31508005890F2DB6D1C00E00022691E2B78002B00F05D
S315080058A08B80322B18BF342B64D0482B57D0582BFB
S315080058B057D0632B0CD0642B1BD0682B4FD0702B82
S315080058C018BF732B0BD0752B13D0782B49D01AE73A
S315080058D000F07EF85AF8041B00F8011D18E700F0DE
S315080058E07BF818B100F071F80028F7D10020BDE860
S315080058F0FE8F002A12BFBDF800105AF8041B89B2A1
S3150800590019B900F065F83021E6E70020642B0DD1BF
S315080059100A040BD53268521C32602D2302F8013D69
S31508005920B1F5004F02D0494289B249B191FBFBF269
S315080059300BFB1211C0B201ABC154401C91B2F4E783
S315080059400146481EC9B2002913D0C0B201A9415C5C
S3150800595030313268521C326002F8011DF0E700F05F
S315080059603FF85AF8041B0222C9B2206AFFF7C2F8A8
S315080059702062CDE615F8010F682818BF48280BD114
S3150800598000F02EF8206A15F8011C32290AD15AF8B7
S31508005990041B042289B2E9E7782818BF5828F1D0F1
S315080059A06D1EB5E65AF8047B0422390CFFF7A2F8F7
S315080059B020620422B9B2D9E7002888D1A7E600F008
S315080059C00DF8002892D0707A91E7394620466FE69E
S315080059D03068401C306070475AF8047B204651E610
S315080059E0206A302100F8011B411C216278210170D0
S315080059F070470EB410B58BB000241249097809B95E
S31508005A00002004E000F011F800B90124204608E05F
S31508005A100EB410B58BB0002400F007F800B90124C5
S31508005A2020460BB010BC5DF810FB074900910749EA
S31508005A3009788DF804100DAA014600A84FE6000063
S31508005A4041EF002040EF00209D4F000808EF00209E
S31508005A5062B38B0708D0521E11F8013B00F8013BD0
S31508005A6000F024808B07F6D1830740F0208000BF22
S31508005A70103A07D330B4B1E83810103AA0E8381015
S31508005A80F9D230BC530724BFB1E80810A0E80810C3
S31508005A9044BF51F8043B40F8043BD20724BF31F811
S31508005AA0022B20F8022B44BF0B7803707047083A84
S31508005AB007D3B1E80810083A40F8043B40F804CB8D
S31508005AC0F7D25307E4E7000038B5012005F043F89C
S31508005AD0002005F0FFF9DFF83C43206840F0080095
S31508005AE0206000F008FA05F0E5F900F05DF88D7819
S31508005AF0DD608D890560CD89456000F04CF8206829
S31508005B0020F01000206005F031FB05F023FC05F0BD
S31508005B10B5F800F0EEF9BDE8314000F007BA10B567
S31508005B2004F0E1FDDFF8F002DFF8F0120A79C2604E
S31508005B30DFF8EC224B79D360DFF8E8328C79DC6049
S31508005B400C8B04604C8B4460888B1060C88B50604B
S31508005B50088C1860488C586010BD10B500E010B568
S31508005B6004F0D0FF05F0A6F900F01EF88C78DC608A
S31508005B708C890460CC89446000F00DF8A54801685A
S31508005B8021F01001016005F0F1FA05F0B1F8BDE861
S31508005B90104004F0B1BD088A1060488A5060888AAF
S31508005BA01860C88A586042E09B489C490A78C260D7
S31508005BB09B4A4B78D3609B4B7047F0B50B68974C64
S31508005BC0646A0F25960005FA06F6344212D00026B6
S31508005BD006EB820724FA07F7FF0708D5B70005FA88
S31508005BE007F7BB4330F812C007EA0C073B43761C9D
S31508005BF0042EEDDB0B60F0BDF0B50B68874C646ACC
S31508005C00FF25D600B5402C420FD0002505EBC2066D
S31508005C1024FA06F6F60705D50126AE40B343175C07
S31508005C203E4033436D1C082DF0DB0B60F0BD10B50C
S31508005C307A4C606A002827D000227C49201DFFF78D
S31508005C40DBFF01227A49201DFFF7D6FF0222794998
S31508005C50201DFFF7D1FF00226F4900F016F8012238
S31508005C60714900F012F802226D4900F00EF803227D
S31508005C70714900F00AF804226A4900F006F805227C
S31508005C806E4904F1180034E010BD04F1180094E7D9
S31508005C9010B5624C606A002827D000226349204666
S31508005CA0FFF7AAFF012262492046FFF7A5FF022255
S31508005CB060492046FFF7A0FF0022574900F016F872
S31508005CC00122594900F012F80222554900F00EF84F
S31508005CD00322594900F00AF80422524900F006F84E
S31508005CE00522564904F10C0003E010BD04F10C002E
S31508005CF063E7BDE8104060E780B505F0FCFB0FF2EE
S31508005D006C1101EB800002BD80B505F0F8FBC1B24D
S31508005D100004000E0FF2801252F8200000EB8100FA
S31508005D2002BD00003D48007A70473C48807A7047BB
S31508005D3044484FF40041C160082101603749887A18
S31508005D4050B13F480068800900F001000B7A834291
S31508005D501CBF087205F07FBE70472DE9F041044666
S31508005D602E4DAC72374F0020B8654FF400483648C0
S31508005D70C0F8008008203860C7F80C8004F004FBDF
S31508005D80294E002C316821F4706114D041F4006169
S31508005D903160B16821F04001B160082100F060F877
S31508005DA001F0BF012970082100F054F801F0BF0185
S31508005DB02971012113E041F480713160B16841F025
S31508005DC04001B160012100F04BF841F04001297013
S31508005DD0012100F03FF841F0400129710021697264
S31508005DE004F0D8FA4CB11948062101606020B8655C
S31508005DF07068800900F0010001E00020B86528728B
S31508005E00287A05F028FE14B11148C0F80080BDE8CC
S31508005E10F081000000BC004000B000401CF00020EB
S31508005E2000B2004000B4004004B000400CB000408E
S31508005E300CB200400CB4004004B2004004B4004068
S31508005E4008B0004014A8004080E100E024BC0040EF
S31508005E5000E100E06A8B61F30B226A8329797047B7
S31508005E60EA8961F30B22EA8129787047554E4B007F
S31508005E704649420042544C00455854005057520077
S31508005E80574447002053570043525300465348008F
S31508005E9042414400464C5400C44B0108C84B010813
S31508005EA0204C0108404C0108484C0108544C010894
S31508005EB0604C01086C4C0108744C0108804C0108C0
S31508005EC0904C01082C480068C00702D442F6E060EE
S31508005ED0704745F6C050704780B5FFF7F3FF27496E
S31508005EE0096801B9400802BD80B5FFF7EBFF400815
S31508005EF002BD04F0CABD2248012181604EF6BE21CA
S31508005F00416000E01F48012101607047A52805D1BE
S31508005F101B484DF6AD614160022101607047184883
S31508005F20006810F0010018BF0120704780B51648B8
S31508005F3010210160154800781549164A58B10328FA
S31508005F400CBF00200120106040F6510008600020B8
S31508005F5005F044F806E0022010604FF4006008607F
S31508005F6004F052FD0C4807210160002101640B482A
S31508005F7010210160002002BD1C4000402040004066
S31508005F80006000400860004080E100E0E0FF00207B
S31508005F900C6000400800004014A0004000E100E04A
S31508005FA080B59E480021416041708170A52101702D
S31508005FB000F01EF8002002BD99480168C90700D400
S31508005FC0704780B597490A6822F440620A600168FA
S31508005FD049084900016001680902FCD49248006832
S31508005FE010B1642004F0DFFF90480021016001BD74
S31508005FF080B58F48016841F0807101608D480121A4
S3150800600001608D49002004F0F7FF8C4802210160E9
S315080060108B48002101608B488B4901608B4901221E
S315080060200A607F498A4A0A6040F201410165894847
S315080060304FF48031016001BD7C48006800B1012041
S31508006040C0B27047D12202704170090A8170824934
S315080060500A78C270501C0870042070472DE9F14F69
S3150800606082B000907D490968405C441DE4B2002571
S3150800607005F036FD01904FF6FF79FFF7DDFFB8B959
S3150800608056E0A91EC9B29DF80800FFF7F3F90746BE
S31508006090494605F053FD81465546F9B2F00001FA26
S315080060A000F040EA0808761C042E16D3CBF80080C8
S315080060B0EDB2A54234DA05F013FD0199401A40F213
S315080060C0F51180B288422BD24FF0604BDBF8000006
S315080060D00128EDD14FF000080026EDB215B95B276F
S315080060E00125DAE7012D05D100985C490968475C66
S315080060F00225D2E705F1010AE11E8D4208BF4F4687
S31508006100CAD0A11E8D4208BF4FEA1927C4D0611E06
S315080061108D4208BF5D27BFD0A542B2D10027BCE794
S315080061204FF4C87004F03FFFA54208BF002000D016
S315080061300120BDE8FE8F49490968415C042928BF4A
S31508006140FFF78CBF012070472DE9F047334D6E7875
S31508006150002E60D005F0C4FC804631460020FFF7CB
S3150800616079F80446A146FF2C02D10020687052E057
S315080061702027202E98BF3746FEF7B4FF6860AF7019
S31508006180DFF8DCA012E0A87880B9F01B6870C6B208
S3150800619066B1DAF8000019F800902027202E98BF7B
S315080061A037464846FEF79EFF6860AF70687840B18C
S315080061B005F096FCA0EB080040F2F51180B2884283
S315080061C0E1D3002E04BF687800281CD1A878D0B97E
S315080061D022480068205C851EE9B22046FFF759F977
S315080061E0122808D1E9B22046FFF700F92146122005
S315080061F005F06FFD0AE021461A48FFF78FF9204699
S31508006200FEF7D6FF02E000206870A8702046BDE8B9
S31508006210F047FEF7DBBFBDE8F0870000F0FF00207F
S31508006220800E00E0001000E034000040100004E09A
S31508006230FCED00E0040004E020A10700F00004E003
S31508006240040304E0B00F00E055CEACC5000E00E034
S315080062500D00010000E100E0E3FF0020A0EF0020B0
S31508006260A8EF0020DCF00020002181F31188704798
S3150800627042DE704738B504460D46FFF743FE04F084
S3150800628083F82946204605F06BFC2B4622460FF27A
S3150800629094510120FEF7E0FE29462046BDE8344029
S315080062A0E6E72DE9F8434FF42065DFF85465371D16
S315080062B0DFF8500501687965016AB965DFF84815A0
S315080062C00968F965416A3966816A7966C16AB96693
S315080062D0016BF966806B386797F8340040074CBF46
S315080062E0FC6BBC6BA04605F0E1FD3865DFF81C15B4
S315080062F0DFF81C25DFF81C35A646864524BFA3F122
S315080063002009F14520D354F818EFC7F840E054F8AF
S3150800631004EFC7F844E07C6DE405E40D062C17D1BC
S315080063203C6CA646964513D38E4511D224884DF665
S31508006330426E74450CD106F18C04756865607D68FB
S31508006340A56040F2017503E000243C647C64804645
S31508006350DFF8C444A04202D2204600E0001D98425D
S3150800636004D2D0F800E0BEF1CD3FF7D0181AB864D1
S315080063700020F864844606EB8004C4F878C0401C04
S315080063800628F8D3002004E0C0B206EB800CCCF84F
S31508006390784098452BD253F8044D9442F9D38C4251
S315080063A0F7D25FEAC47CF4D54FF0000C06EB8C0EEE
S315080063B0DEF878E0A64504D00CF1010CBCF1060F16
S315080063C0F4DBBCF1060FE4D1002814BF401E0520FB
S315080063D0DAE77C6F4FF0000C06EB8C01CA6F8A6710
S315080063E00CF1010CBCF1050FF6DBC6F88C40014632
S315080063F0481EC9B20029ECD1786DC005C00D022827
S315080064000AD0032816D0042817D0052818D006283D
S3150800641019D00C281DD01FE0DFF800040168890791
S3150800642048BF40F602151CD40068C00719D540F2CB
S31508006430025516E040F6012513E040F6022510E065
S3150800644040F603250DE0B5F5206F0AD140F6042580
S3150800645007E040F6052504E018B1242838BF40F6C1
S3150800646007252846BDE8F2832DE9F04F85B080461A
S31508006470DFF88C53A86B410707D50FF2BC3103919F
S315080064802E6C2F6D0024A14607E00FF2B43103915C
S31508006490EE6BEF6C6C6DDFF87C9300074CBF0FF268
S315080064A0A8320FF2AC32B9EB040A07D064204FEADF
S315080064B05A0100FB0710B0FBFAFB01E04FF0000B96
S315080064C00296CDF804900094039B0FF28C31404657
S315080064D0FEF758FD1FFA8AF00190039800901FFAFC
S315080064E08BF3BAB20FF2A0314046FEF74BFD95F892
S315080064F0380040070CD4AAF19800874208D1686D85
S31508006500C549884204D20FF2BC314046FEF73AFD2F
S31508006510B14528BFA64205D2039A0FF2D4314046A8
S31508006520FEF730FD4046FEF782FD286EF8B10FF201
S31508006530E0314046FEF71EFD0026ACA70FF2847434
S31508006540286E0121B14008421EBF54F82620107853
S31508006550002803D039464046FEF70CFD761C112E5E
S31508006560EEDB404605B0BDE8F04FFEF7EFBC0FF294
S31508006570D031404605B0BDE8F04FFEF703BD2DE922
S31508006580F84F04469E4F07F144050FF2B85A0FF22A
S31508006590D0590FF2B86801260FF22C4B04F0AFFF62
S315080065A040F20151401A16D0401E17D040F2FF1192
S315080065B0401A35D04FF44071401A39D0401E52D097
S315080065C0401E73D0401E00F0B280401E00F0CB8003
S315080065D0401E06D0C5E00FF2803141E00FF2B83117
S315080065E0C3E0E86C012806D0032807D0042807D0A2
S315080065F0052808D00AE00FF2EC3608E07CA606E08B
S315080066000FF2E83603E00FF2EC3600E079A60FF257
S31508006610EC3100F0B9F82B6D32460FF2084103E071
S315080066202B6DEA6C0FF214412046FEF7ABFC93E0A3
S315080066300FF2244100F0A8F895F82400800703D546
S315080066400FF22C4100F0A0F8686A400003D50FF25B
S315080066505C4100F099F8686A00287DD50FF2804100
S3150800666000F092F878E00FF2B44100F08DF895F852
S31508006670200010F0030F01D000F081F895F82000F3
S31508006680000603D5EA6A514600F07BF8002700F0B9
S3150800669071F81EBF58F827201078002802D04946FE
S315080066A000F06FF87F1C082FF1DB55E00FF2B841B8
S315080066B000F06AF800F063F8286A400503D50FF27F
S315080066C0C04100F061F8286A000403D5EA6A514619
S315080066D000F057F8082700F04DF81EBF58F8272095
S315080066E01078002802D0494600F04BF87F1C102F7E
S315080066F0F1DB95F82000000603D10FF2CC4100F03B
S3150800670043F801270FF2F0490FF2A858286B06FA4A
S3150800671007F108421EBF58F827201078002802D033
S31508006720494600F02EF87F1C042FEFDB14E00FF229
S31508006730D04100F029F800F022F8102700F01AF8E6
S315080067401EBF58F827201078002802D0494600F0C6
S3150800675018F87F1C1A2FF1DB2046BDE8F24FFEF72A
S3150800676066BCBDE8F18F0FF2B44100F00DF800F0F9
S3150800677006F8F1E7286A06FA07F1084270477A6CC4
S3150800678059462046FEF7FEBB2046FEF7FBBB2DE921
S31508006790F0478046DFF888A00FF26C56002516A74A
S315080067A016A40FF29C4906E04046FEF7E3FB404676
S315080067B0FEF73DFC6D1C3078A8B15AF8043B32460A
S315080067C049464046FEF7D6FB16F8010B0028FBD1D2
S315080067D0307800281EBFEDB205F00300032814BF69
S315080067E021463946E0E7BDE8F0870000202570001D
S315080067F0414443003F3F00000D0A00002C200000E2
S315080068000000002004ED00E000E300E0862D01080A
S315080068109041000808EF0020980000201CA00040C6
S31508006820040000200D0A5B4153534552543A257023
S315080068303A25645D0D0A000070726F636573730014
S315080068406D61696E0000000054687265616400003D
S3150800685048616E646C6572002570206D6F646520F2
S315080068607573696E6720257020737461636B2028C1
S3150800687025347820746F20253478292C205350200D
S315080068803D202534780000002575206279746573EB
S3150800689020757365642028257525252920696E20AD
S315080068A0257020737461636B20286F7574206F667A
S315080068B020257520627974657320746F74616C295C
S315080068C000000000537461636B205F6D61795F207F
S315080068D068617665207573656420757020746F200D
S315080068E03130302525206F6620746F74616C2E0058
S315080068F05350206973206F75747369646520257019
S3150800690020737461636B2072616E676521000000F5
S31508006910496E7465727275707473206163746976F2
S315080069206520286F72207072652D656D70746564B8
S3150800693020616E6420737461636B6564293A000094
S315080069404E6F20696E746572727570747320616318
S31508006950746976650000000052657365742063618A
S315080069607573653A205761746368646F6720657844
S3150800697070697265642C206E6F2072656C6961623D
S315080069806C6520657874726120696E666F726D61D8
S3150800699074696F6E00000000526573657420636148
S315080069A07573653A205761746368646F672063611D
S315080069B075676874207769746820656E68616E63A8
S315080069C0656420696E666F00496E737472756374C8
S315080069D0696F6E20616464726573733A2025347832
S315080069E00000000053433120527800004D414320F7
S315080069F0527800005343322052780000526573657E
S31508006A00742063617573653A20444D412070726F36
S31508006A1074656374696F6E2076696F6C6174696FEB
S31508006A206E000000444D413A2025702C20616464B4
S31508006A30726573733A2025347800000052657365D1
S31508006A40742063617573653A2041737365727420A7
S31508006A5025703A25640000005265736574206361E9
S31508006A607573653A2048617264204661756C7400D6
S31508006A70484653522E5645435454424C3A20657262
S31508006A80726F722072656164696E672076656374D9
S31508006A906F72207461626C6520666F7220616E2069
S31508006AA0657863657074696F6E00000048465352D6
S31508006AB02E464F524345443A20636F6E66696775A2
S31508006AC07261626C65206661756C7420636F756CA3
S31508006AD064206E6F74206163746976617465000062
S31508006AE0484653522E44454255474556543A206621
S31508006AF061756C742072656C6174656420746F20AE
S31508006B006465627567202D20652E672E2C206578B2
S31508006B1065637574656420424B505400526573650D
S31508006B20742063617573653A204D656D6F727920BF
S31508006B304D616E6167656D656E74204661756C742E
S31508006B4000000000496C6C6567616C2061636365D1
S31508006B50737320616464726573733A202534780010
S31508006B60434653522E25700052657365742063613F
S31508006B707573653A20427573204661756C7400001A
S31508006B8041646472657373206973206F6620616E51
S31508006B9020696E737472756374696F6E20616674AA
S31508006BA0657220627573206661756C74206F636305
S31508006BB075727265642C206E6F7420746865206324
S31508006BC0617573652E000000434653522E286E6F7A
S31508006BD06E6529206C6F6164206F722073746F7202
S31508006BE06520617420616E20696C6C6567616C2034
S31508006BF06164647265737300414653522E257000B2
S31508006C0052657365742063617573653A20557361BF
S31508006C106765204661756C740000000052657365EF
S31508006C20742063617573653A204465627567204D03
S31508006C306F6E69746F72204661756C74000000008F
S31508006C402570203D2025347800000000A443010863
S31508006C50E44301081C44010820440108644401086F
S31508006C601C4401081C440108A0440108D04401083A
S31508006C7000450108244501084C4501088C450108D2
S31508006C801C4401081C440108C8450108F8450108C8
S31508006C90304601086C4601089C4601081C44010858
S31508006CA01C4401081C4401081C440108D446010878
S31508006CB0044701081C44010844470108884701089D
S31508006CC0C8470108044801080C4801081448010887
S31508006CD0204801082C480108384801083C480108A2
S31508006CE0404801084C48010858480108604801080E
S31508006CF0684801086C480108744801087C4801087E
S31508006D00844801088C48010852300052310052323A
S31508006D1000523300523400523500523600523700C2
S31508006D205238005239005231300052313100523156
S31508006D303200523133284C5229004D5350005053DB
S31508006D40500050430078505352004D5350207573ED
S31508006D50656400505350207573656400435354416D
S31508006D60434B20626F74746F6D004943535200534E
S31508006D704843535200494E545F41435449564500CF
S31508006D804346535200484653520044465352004D18
S31508006D904D41522F424641520041465352005265D8
S31508006DA0743000526574310052657432005265744D
S31508006DB0330052657434005265743500446174308A
S31508006DC000446174310000002DE9F8430446DFF8F9
S31508006DD048040068255C0026B146E80748BF00203D
S31508006DE020D400270FF2B84802E04FEA00197F1CAA
S31508006DF0FFB2AF4211DA39462046FEF73BFB10F8E0
S31508006E00080000F00F00F907EFD549EA0002F1B2D1
S31508006E102046FEF734FB761CE9E7F1B22046FEF77A
S31508006E2067F90120BDE8F283FF2180F826100021CA
S31508006E30C173C18380F824108173016801637047A8
S31508006E402DE9F24F82B080469346002708F10404E4
S31508006E500CE0012200A9FEF787FA38B102208DF866
S31508006E6000009DF80010404600F032F90025A946BA
S31508006E7008F12406029848BB00A95FFA8BF0FDF7D3
S31508006E8049FF002831D0262824D00121404600F0A9
S31508006E901FF978208DF80000CA4610250027E07AE9
S31508006EA00828E3D8DFE800F0064A6AC4C4E6F2898F
S31508006EB07B00DBE7102D36D1607A70720120E07214
S31508006EC041469DF8000000F00AF9CFE75FFA8BF11A
S31508006ED0002902D13846BDE8FE8F401C0290401EAC
S31508006EE000788DF80000A1F1010BCA469DF8000054
S31508006EF0672815D20FF2A831405C00F0300500F083
S31508006F000F0A400604D5717A8A4538BF4FF0010941
S31508006F109DF800000A2818BF0D28BFD10127BEE733
S31508006F207B28BBD2B9E79DF80000232802D10820A8
S31508006F30E0729BE7202D99D0032090E7102D1CBF07
S31508006F409DF800005F2802D0B9F1000F04D098F828
S31508006F5024000C28F0D2B3E7202D18BF302D1AD103
S31508006F6098F82400404400214174404600F0C5F8D2
S31508006F7088B1002088F824000220E072607A7072D6
S31508006F80B9F1000F2AD02B203072C6F804A0607A17
S31508006F9070720420CCE70321404600F099F8002FD0
S31508006FA00AD0207B28B14046D8F80410884700202C
S31508006FB020734046FFF738FF58E71FB1404600F0F8
S31508006FC0CBF8F6E79DF80000232803D1404600F0E9
S31508006FD0C3F8ACE7202DEFD0042040E79DF8000069
S31508006FE02D2818BF2B2806D1307200207060607AD1
S31508006FF0707203209CE722280AD10120FEF77DF84B
S31508007000B070FF280BD00021FEF772F805208FE735
S315080070107B28D2D10120FEF770F8B070FF283FF424
S315080070201DAF0021FEF764F81020707206207FE776
S31508007030B9F1000F07D07068717A01FB00A004212E
S31508007040E172706012E79DF80010782918BF582978
S3150800705004D1716811B91020707207E703282CD083
S31508007060202D18BF302D28D1404600F0A9F8002859
S3150800707095D081E79DF80000222820D100214046BE
S3150800708000F0D2F80028E8D0022051E79DF8000069
S315080070907D280DD1B078FFF797FE064601214046B8
S315080070A000F0C2F808B10220E072002ED5D104E043
S315080070B0202DD2D0B9F1000F01D10720CFE6B07844
S315080070C055490968415CFF297FF4C3AE0820C6E626
S315080070D0027C1AB90822C2730174B7E0704791F8A6
S315080070E02420A0F14103DBB21A2B38BF20305318F5
S315080070F05874501C81F824007047F0B500F211014D
S31508007100026B1346002406E016F801CBEDB2AC4537
S3150800711006D0641C10335D68E5B11F680E4600E0B2
S315080071207F1C3578002D3D780BD1002DF1D1C48315
S31508007130C18B02EB0111896801620021817301206C
S31508007140F0BDA5F1410C5FFA8CFCBCF11A0FDBD23D
S315080071502035D9E70020F0BD10B50446206A01782D
S3150800716031B162290CBF01210221085C2A2807D106
S315080071702046E18B226B02EB01114968884706E03D
S315080071800420207420466168884700202074204621
S31508007190BDE810405AE010B5837B047BA34201D1B9
S315080071A005213DE0846844F82310817B491C8173DE
S315080071B0016A535C2A2B1CBF51180162012010BDBD
S315080071C010B5016A0A784B7800F12004A168247B7F
S315080071D02D2C08BF4942752A03D1342B0CD1022223
S315080071E031E0732A0FD1312B07BF6FF07F027F235F
S315080071F00A4A47F6FF7308E00022312B14BF4FF600
S31508007200FF73FF2301E004210AE09142A8BF8B42E5
S31508007210E5DA0621F8E70000A0EF00200080FFFF6E
S31508007220FFF756FF002010BD10B5026A1278622AD1
S3150800723001D00421F4E700F120029379FF24947128
S31508007240012213EB0121BDE81040A4E7F8B5044676
S3150800725004F10805E88AA96A01EB00108668002788
S3150800726005E00220815D2A2918BF86197F1CA879A6
S31508007270FFB287420AD230786228F2D1A06850F865
S315080072802700C0B2FDF7A2FF0120EBE70020A87196
S31508007290A87FFF2803D0FDF799FFFF20A877F1BD47
S315080072A00000000000000000002020202020000030
S315080072B000000000000000000000000000000000C0
S315080072C020003030000000000000003000300000D0
S315080072D040414243444546474849000000000000F3
S315080072E0005A5B5C5D5E5F101010101010101010D5
S315080072F010101010101010101010103000000000A0
S31508007300005A5B5C5D5E5F00F0B583B000A80FF2C3
S3150800731014110CC90CC0DFF80801007880018DF83B
S315080073200000DFF8F8400FF2041100F036F80025E7
S315080073300FF23416002700A8285C0121B94008423C
S3150800734006D03B4605F1410231462078FDF712FE8C
S315080073507F1C082FEFDB6D1C062DEBDB0FF21C11D3
S3150800736000F01BF800F022F805F06DF8FEF724FE91
S3150800737003F00AF800F017F8032005F0FEFCFEF704
S31508007380ECFB00F00DF8FEF733FE012004F0C9FF10
S3150800739000F001F8F7BD0FF218112078FDF7EABDE5
S315080073A0284602F0F7BF0546FEF7B9BB2078FDF779
S315080073B03EBE2078BDE81040FDF7DCBD30BF704703
S315080073C07047000030BF70477047000030BF7047F5
S315080073D07047000030BF70477047000030BF7047E5
S315080073E07047000030BF70477047000030BF7047D5
S315080073F07047000030BF704710B5084C2078032846
S315080074000AD10FF2B401FDF7B5FD0FF2FC01FFF743
S31508007410C4FF0FF24411CCE710BD000008EF0020AE
S3150800742025F00020004040000000000057696C6C01
S315080074302077616B652066726F6D204750494F2033
S315080074406163746976697479206F6E207468652043
S31508007450666F6C6C6F77696E6720706F72742070D8
S31508007460696E733A0D0A0000506F72742025632CFA
S315080074702070696E2025642E0D0A0000456E74651D
S3150800748072696E6720534C4545504D4F44455F4DD4
S3150800749041494E5441494E54494D455220766961F9
S315080074A02068616C536C6565702E2E2E0D0A0000DF
S315080074B04177616B650D0A005761726E696E673AAE
S315080074C020546865202273687574646F776E22206D
S315080074D0636F6D6D616E642077696C6C206361758E
S315080074E073652055534220746F20646973636F6E09
S315080074F06E65637420616E642074686520636F6DC1
S315080075006D616E640D0A00006C696E6520696E74A3
S315080075106572666163652077696C6C2073746F7039
S31508007520206F7065726174696E672E204F6E636591
S3150800753020746865206465766963652068617320D0
S3150800754072657475726E65642066726F6D20646507
S3150800755065700D0A00000000736C6565702C205577
S3150800756053422077696C6C20656E756D657261741F
S315080075706520616E642074686520636F6D6D616E49
S3150800758064206C696E6520696E74657266616365F0
S315080075902063616E2062652072657374617274651A
S315080075A0642E0D0A0000000010B5012403F0A3FFA5
S315080075B004FA00F040F2A17108420BD0064C20787C
S315080075C0FEF752FF2078FEF7DAFF2078BDE8104074
S315080075D0FFF7DDB810BD00BF08EF00201CB5044654
S315080075E005F091FCDFF8E413498A01910FF2044192
S315080075F0009103460FF2F43204F111010FF2D8306C
S31508007600FEF706FA13BD3EB5044605F0FFFB054630
S315080076102B46B3A204F111010FF2E430FEF7F8F994
S315080076205DBB05F004FC040024D0608802900FF2CC
S3150800763004400190206900900FF2EC3322880FF283
S31508007640E0310FF2C830FEF7E3F9A368E2680FF2FB
S31508007650F431DFF87C030078FDF78CFCA0880090F5
S315080076600FF21843E2880FF208410FF2F830FEF7DE
S31508007670CFF937BD0FF210405FE037BD10B50446AD
S3150800768005F0FCFB04F111010FF21840BDE81040AB
S31508007690FEF7BEB910B5044605F0C9FB20B904F1DA
S315080076A011010FF20840F1E7C168002005F005FC5A
S315080076B003468BA204F111010FF22440FEF7A8F944
S315080076C0BEA406E02046FEF7A3F946F2A81003F08A
S315080076D06AFC05F004FC0028F4D10FF22440BDE84A
S315080076E01040FEF795B930B583B081680C684D68CF
S315080076F001940FF2484100912B46B1A200F1110105
S315080077000FF20C40FEF784F92946204605F0D5FB12
S31508007710024673A10FF22C40FEF77AF9A7A406E0F9
S315080077202046FEF775F946F2A81003F03CFC05F072
S31508007730D6FB0028F4D10FF2C830BDE83E40FEF76C
S3150800774067B92DE9F04786B081680C6800F06AF8D9
S315080077500FF2F830FEF74DF90FF218490FF2642AC6
S315080077600FF204480EE001A9715C5046FEF750F985
S31508007770761CF6B2BE42F6DB4846FEF749F9ED1B23
S31508007780ADB23C197DB1112DACBF10272F463A4634
S3150800779001A9204605F083FB024621464046FEF72E
S315080077A037F90026E5E73AE02DE9F04786B0816823
S315080077B0D1F8008000F036F80FF2C030FEF719F95C
S315080077C00FF200290FF2A03A01AC0EE0395D4846E7
S315080077D0FEF71EF97F1CFFB2B742F7DB0FF29430B3
S315080077E0FEF716F9AD1BADB2B044C5B1112DACBF4D
S315080077F010262E46002703E005F0BAFB38557F1CF5
S31508007800FFB2B742F8DB324601A9404605F03EFB17
S31508007810024641465046FEF7FBF80027DBE706B06E
S31508007820BDE8F0878D880FF23831009166A30FF214
S315080078300C3200F1110170470288130448BF4A4010
S31508007840510001801046704738B5624C62212046C7
S31508007850FFF7F2FF054641F20B01A01CFFF7ECFF0C
S31508007860684032BD2DE9F041C4B081680D684C68A6
S3150800787000F087F80FF22C30FEF7CAF80FF23C1822
S3150800788004E04046FEF7C4F8E41B7D191CB305F076
S315080078906FFBC7B2A74228BFA7B2002604E0FFF7CE
S315080078A0D3FF03A97054761CF6B2BE42F7DB3A46FC
S315080078B003A9284605F0EAFA0028E2D0029740A173
S315080078C0019100950FF2742302463FA10FF2003092
S315080078D0FEF79EF803E00FF21C30FEF799F84DE02C
S315080078E0657272002DE9F041C4B081680C684D6874
S315080078F000F047F80FF21830FEF78AF80FF2BC08C6
S3150800790004E04046FEF784F8ED1B3C1995B305F0F4
S315080079102FFBC7B2AF4228BFAFB23A4603A92046EB
S3150800792005F0BDFA020009D0029725A0019000943F
S315080079300FF2082324A10FF2003018E0002600E019
S31508007940761CF6B2BE42DCDAFFF77EFFC0B203A9A8
S31508007950715C8142F4D002910FF2383101910090A6
S315080079600FF2243332190FF2D4110FF2EC20FEF77E
S315080079704FF803E00FF27C20FEF74AF844B0BDE862
S31508007980F0818B6813490B801A0C4A800FF2382253
S3150800799000F11101704710B50D4C0FF20431207833
S315080079A0FDF7E8FA0FF248312078FDF7E3FA0FF20F
S315080079B094312078BDE81040FDF7DCBA2E000000AF
S315080079C06C656E002025780065727200000000085C
S315080079D008EF0020C8FF00207B264E202674326858
S315080079E020267432687D0D0A0000000076657273E1
S315080079F0696F6E0042415476657273696F6E000056
S31508007A007B264E202674680D0A000000267432680C
S31508007A100D0A2674700D0A267432680D0A000000D5
S31508007A20696E666F56657200706172744465736339
S31508007A30000000006361706162696C69746965734E
S31508007A40000000007B7061727453697A653A256C90
S31508007A507D207B7061676553697A653A256C7D0D73
S31508007A600A000000267475202674757D0D0A00002C
S31508007A707061727445726173654D730070616765F4
S31508007A8045726173654D73004E6F20706172742084
S31508007A90696E666F20617661696C61626C657D0DE1
S31508007AA00A0000007B264E7D0D0A00007B264E202C
S31508007AB04E6F207061727420696E666F2C20636148
S31508007AC06E2774206572617365206368697021206A
S31508007AD07B6572723A307830317D7D0D0A00000080
S31508007AE07B264E2043686970204572617365205372
S31508007AF074617274696E672026746820000000003D
S31508007B0020436F6D706C657465217D0D0A00000059
S31508007B107B264E2045726173696E67202674346829
S31508007B20206279746573207374617274696E672054
S31508007B3066726F6D20267434682000006164647272
S31508007B40000000002674682000000000237B264EF3
S31508007B502026742026742026747D0D0A0000000055
S31508007B6064617461000000007B5B2634685D202632
S31508007B7068207B00207D0D0A00000000237B264E2E
S31508007B802026742026742026747D0D0A577269747F
S31508007B90696E672072616E646F6D20646174610D31
S31508007BA00A0000007B264E2057726974696E6720AA
S31508007BB072616E646F6D20646174612066726F6DA8
S31508007BC02026743478200000736565640000000080
S31508007BD00D0A5772697465204572726F72212026E4
S31508007BE0746820267434682026743268207D0D0A4D
S31508007BF00000000020436F6D706C65746521207B62
S31508007C006572723A307830307D7D0D0A00000000CA
S31508007C107B264E20566572696679696E67207261A1
S31508007C206E646F6D20646174612066726F6D2026C4
S31508007C3074347820000000000D0A526561642045FE
S31508007C4072726F7221202674682026743468202682
S31508007C50743268207D0D0A000D0A4D69736D6174D2
S31508007C606368204572726F7221207B6572723A30A2
S31508007C707830317D2026743468202674682026746E
S31508007C8068207D0D0A000000657870656374656478
S31508007C9000000000656E636F756E7465726564003A
S31508007CA05761726E696E673A2053696E636520552F
S31508007CB053422069732070617274206F662074685D
S31508007CC0697320636F646520696D6167652C20613F
S31508007CD06E792066756E6374696F6E616C69747906
S31508007CE0207468617420757365730D0A00000000BE
S31508007CF053657269616C20436F6E74726F6C6C6544
S31508007D007220322077696C6C206E6F742062652051
S31508007D106F7065726174696F6E616C206475652039
S31508007D20746F2055534220636F6E73756D696E6765
S31508007D30204750494F732050415B333A305D2E0D32
S31508007D400A0000004974656D7320737563682061C5
S31508007D50732065787465726E616C20666C617368F1
S31508007D6020636F756C6420626520696D7061637449
S31508007D7065642E0D0A00000010B5DFF844440FF2C2
S31508007D80140101F09AF80FF21C012078BDE81040A2
S31508007D90FDF7F0B8286C6974746C6520656E6469C3
S31508007DA0616E00002C20616C6C2064617461207225
S31508007DB06570726573656E74656420617320627997
S31508007DC07465206172726179290D0A000178A1F142
S31508007DD03002D2B20A2A0CD3A1F14102D2B2062A43
S31508007DE038BF373905D3A1F16102D2B2062A03D2C8
S31508007DF057390907090E00E000214078A0F1300242
S31508007E00D2B20A2A02D2401830380EE0A0F1410256
S31508007E10D2B2062A02D24018373806E0A0F161022B
S31508007E20D2B2062A03D240185738C0B2704708099A
S31508007E30704710B505F0ACF8020019D0E04C207870
S31508007E40042A08BF0FF22C0108D0062A08BF0FF231
S31508007E50700103D0072A04D10FF2A801FDF78AF8AA
S31508007E6003E00FF2E801FDF785F80FF214118CE72D
S31508007E7010BD000068616C537461636B496E697468
S31508007E80546F6B656E73204641494C4544207769AB
S31508007E90746820454D4245525F454550524F4D5FE7
S31508007EA04D46475F535441434B5F56455253494FDE
S31508007EB04E5F4D49534D415443480D0A000000009A
S31508007EC068616C537461636B496E6974546F6B6552
S31508007ED06E73204641494C454420776974682045AD
S31508007EE04D4245525F454550524F4D5F4D46475F9F
S31508007EF056455253494F4E5F4D49534D4154434899
S31508007F000D0A000068616C537461636B496E69748D
S31508007F10546F6B656E73204641494C45442077691A
S31508007F20746820454D4245525F454550524F4D5F56
S31508007F30535441434B5F56455253494F4E5F4D4943
S31508007F40534D415443480D0A0000000068616C53C4
S31508007F507461636B496E6974546F6B656E73204602
S31508007F6041494C4544207769746820456D626572BD
S31508007F705374617475733A2025580D0A0000000081
S31508007F80546F6B656E7320617265207374696C6CCF
S31508007F9020616374697665207768656E20757369F4
S31508007FA06E672074686973206170706C69636174A8
S31508007FB0696F6E2E0D0A00002DE9F04F89B08068B2
S31508007FC00568FFF7D9FEA8B205F0ECF90446A8B291
S31508007FD005F05AF88046A8B205F0ABFA8346784F02
S31508007FE03878002C1ABF4FF6FF7188450FF27C21AE
S31508007FF02ED02346AAB20FF21411FCF7BBFF0025B8
S315080080000FF2B4190FF2B41A0AE000A9725C4946D5
S315080080103878FCF7AFFF761CF6B2A642F5DB6D1C86
S31508008020EDB25D4512DABBF1010F234604D17F227A
S31508008030414600F072F807E02A46414600F06DF81E
S3150800804051463878FCF796FF0026E5E7514638781A
S31508008050FCF790FF09B0BDE8F08F2DE9F04788B02E
S31508008060806804684768FFF787FEA0B205F09AF9AA
S315080080708146A0B205F008F88046A0B205F059FA84
S3150800808005464F4E3078B9F1000F1ABF4FF6FF710B
S3150800809088450FF2D81133D0A5F1010A15B1FFB200
S315080080A0BA450BDA0FF2D011FCF764FF53460022EB
S315080080B00FF2FC113078FCF75DFF23E04B46A2B2C5
S315080080C00FF24801FCF756FF012D08BF7F274B46E4
S315080080D03A46414600F021F838A421463078FCF7A4
S315080080E049FF00270FF2D00805E000AABA5C41460E
S315080080F0FCF740FF7F1C3078FFB24F45F5DB214681
S31508008100FCF738FF08B0BDE8F08700005B25327839
S315080081105D28256429203D00018800A804F07DBF5C
S315080081202DE9F047C2B080680668FFF725FEB0B2B1
S3150800813005F038F98146B0B204F0A6FF8246B0B21F
S3150800814005F0F7F90646DFF80C7DB9F1000F1CBFFC
S315080081504FF6FF70824505D10FF210113878FCF7FB
S3150800816009FF80E000240FF26C1803E0504604F083
S3150800817066FF641CB442F4DA002513E006FB09F036
S31508008180431E09FB045241463878FCF7F3FE0322E6
S3150800819000A93878FCF77BFE00A8FFF717FE01A9AF
S315080081A068546D1C4D45E9DB012E4B4601AA0CBFF0
S315080081B07F21E1B2DAE70000202558000D0A000009
S315080081C008EF00202DE9F047C2B0806807684468C8
S315080081D0FFF7D2FDB8B205F0E5F88046B8B204F06C
S315080081E053FF8146B8B205F0A4F90746DFF8645C88
S315080081F02878B8F1000F1CBF4FF6FF71894504D1E6
S315080082000FF26801FCF7B6FE2DE07E1E17B1E4B248
S31508008210A6420ADA0FF26001FCF7ACFE33460022EA
S315080082200FF28C0100F09DFE1DE000260FF2A40A55
S315080082300EE0A8F1010300F092FE032200A92878B7
S31508008240FCF725FE00A8FFF7C1FD01A97054761CAE
S315080082504645EEDB012F08BF7F24434601AA214687
S31508008260484604F0ECFE42B0BDE8F0876E6F742015
S31508008270666F756E640D0A004552524F523A204495
S3150800828065736972656420696E6465782069732010
S315080082906F7574206F662072616E676520666F72EF
S315080082A0207468697320746F6B656E0D0A00000090
S315080082B02020202020202056616C69642072616E7F
S315080082C067652069732025582074687275202558BB
S315080082D00D0A00006461746120627974655B256427
S315080082E0206F662025645D3A000000002DE9F04302
S315080082F0FBB0FFF741FDDFF85C4B0FF65C384CF23C
S315080083004432414600F0DFFD0FF6543100F0D1FD4E
S315080083100FF2883918237F22DFF8B00B01881CA8D2
S3150800832004F07BFE00271CA83A5C00F0CBFD7F1CFE
S31508008330182FF8D3DAA700F0BFFD4FF264024146C2
S3150800834000F0C1FD0FF6283100F0B3FD06237F22A9
S31508008350DFF87C0B00F0A4FD002500F0B1FD6D1CD4
S31508008360062DFAD300F0A8FD4FF26442414600F00C
S31508008370AAFD0FF60C3100F09CFD06237F22DFF8DC
S31508008380540B018811A804F048FE002511A800F036
S3150800839098FD6D1C062DF9D300F08EFD4EF2455260
S315080083A0414600F090FD0FF6C03100F082FD08232B
S315080083B07F22DFF8240B00F073FD002500F080FD16
S315080083C06D1C082DFAD300F077FD4FF26E42414638
S315080083D000F079FD0FF6A43100F06BFD14237F221F
S315080083E0DFF8F80A018817A804F017FE002517A871
S315080083F000F067FD6D1C142DF9D300F05DFD4FF2FA
S315080084004242414600F05FFD0FF6883100F051FD0B
S3150800841014237F22DFF8C80A00F03AFD00250CA8CD
S3150800842000F04FFD6D1C142DF9D300F045FD4FF2F9
S315080084306242414600F047FD0FF6703100F039FD03
S315080084400A237F22DFF89C0A018808A804F0E5FDC4
S31508008450002508A800F035FD6D1C0A2DF9D300F09B
S315080084602BFD4FF27422414600F02DFD0FF65431D4
S3150800847000F01FFD012502237F22DFF86C0AFFF7B3
S315080084804BFE9DF8002000F01DFD9DF8012000F030
S3150800849019FD6D1EEFD100F00FFD4FF27622414611
S315080084A000F011FD0FF62C3100F003FD0125022323
S315080084B07F22DFF8380A00F0F7FC9DF8022000F06A
S315080084C001FD9DF8032000F0FDFC6D1EEFD100F0C4
S315080084D0F3FC4FF27662414600F0F5FC0FF60831E0
S315080084E000F0E7FC012502237F22DFF8040AFFF7E4
S315080084F013FE9DF8002000F0E5FC9DF8012000F031
S31508008500E1FC6D1EEFD100F0D7FC4FF26342414605
S3150800851000F0D9FC0FF6E42100F0CBFC012502237C
S315080085207F22DFF8D00900F0BFFC9DF8022000F09A
S31508008530C9FC9DF8032000F0C5FC6D1EEFD100F0C4
S31508008540BBFC4FF27442414600F0BDFC0FF6BC215D
S3150800855000F0AFFC012502237F22DFF89C09FFF714
S31508008560DBFD9DF8002000F0ADFC9DF8012000F031
S31508008570A9FC6D1EEFD100F09FFC4FF6097241462B
S3150800858000F0A1FC0FF6942100F093FC01250223CC
S315080085907F22DFF8680900F087FC9DF8022000F0CA
S315080085A091FC9DF8032000F08DFC6D1EEFD100F0C4
S315080085B083FC4EF26362414600F085FC0FF66C219F
S315080085C000F077FC012502237F22DFF83409FFF744
S315080085D0A3FD9DF8002000F075FC9DF8012000F031
S315080085E071FC6D1EEFD100F067FC4EF26F624146DA
S315080085F000F069FC0FF6482100F05BFC08237F2297
S31508008600DFF8000900F04CFC00F05AFC6D1C082D40
S31508008610FAD300F051FC4EF26F32414600F053FC9B
S315080086200FF6282100F045FC10237F22DFF8D80832
S3150800863000F032FC002504A800F043FC6D1C102D48
S31508008640F9D300F039FC4CF25632414600F03BFCB7
S315080086500FF6042100F02DFC012502237F22DFF806
S31508008660AC08FFF759FD9DF8002000F02BFC9DF89B
S31508008670012000F027FC6D1EEFD100F01DFC4EF224
S315080086804532414600F01FFC0FF6E01100F011FCE0
S3150800869008237F22DFF8780804E000BF2025580069
S315080086A00D0A000000F0FCFB00F00AFC6D1C082D0A
S315080086B0FAD300F001FC4EF67352414600F003FC73
S315080086C00FF6BC1100F0F5FB10237F22DFF84408F3
S315080086D000F0E2FB002504A800F0F3FB6D1C102D4A
S315080086E0F9D300F0E9FB4CF24E22414600F0EBFBD1
S315080086F00FF6981100F0DDFB10237F22DFF818082B
S31508008700018813A804F089FC002513A800F0D9FBFA
S315080087106D1C102DF9D300F0CFFB4CF644124146E0
S3150800872000F0D1FB0FF6741100F0C3FB01250223FC
S315080087307F22DFF8E807FFF7EFFC9DF8002000F03E
S31508008740C1FB9DF8012000F0BDFB6D1EEFD100F0C6
S31508008750B3FB4DF24302414600F0B5FB0FF64C1150
S3150800876000F0A7FB012502237F22DFF8B40700F0FB
S315080087709BFB9DF8022000F0A5FB9DF8032000F066
S31508008780A1FB6D1EEFD100F097FB4CF24B22414640
S3150800879000F099FB0FF6241100F08BFB10237F22C3
S315080087A0DFF8800700F078FB04A800F08AFB6D1C50
S315080087B0102DF9D300F080FB4CF65352414600F0D9
S315080087C082FB0FF6101100F074FB08237F22DFF8F6
S315080087D0580700F065FB002500F072FB6D1C082D9C
S315080087E0FAD300F069FB4CF24312414600F06BFBEA
S315080087F00FF6F40100F05DFB00250223EAB2DFF86C
S315080088002C07FFF789FC9DF8002000F05BFB9DF81C
S31508008810012000F057FB6D1C142DEEDB00F04CFB1D
S315080088204CF24232414600F04EFB0FF6CC0100F006
S3150800883040FB5C237F22DFF8F806018863A804F072
S31508008840ECFB002563A800F03CFB6D1C5C2DF9D3FE
S3150800885000F032FB4CF64312414600F034FB0FF6AB
S31508008860A80100F026FB14237F22DFF8C80600F0D3
S315080088700FFB00250CA800F024FB6D1C142DF9D362
S3150800888000F01AFB4BF25422414600F01CFB0FF68F
S31508008890900100F00EFB012502237F22DFF89806DF
S315080088A0FFF73AFC9DF8002000F00CFB9DF801202C
S315080088B000F008FB6D1EEFD100F0FEFA4DF24632CD
S315080088C0414600F000FB0FF6700100F0F2FA0125B0
S315080088D002237F22DFF8640600F0E6FA9DF80220FC
S315080088E000F0F0FA9DF8032000F0ECFA6D1EEFD1C7
S315080088F000F0E2FA4BF25322414600F0E4FA0FF692
S31508008900500100F0D6FA012502237F22DFF830064F
S31508008910FFF702FC9DF8002000F0D4FA9DF801202C
S3150800892000F0D0FA6D1EEFD100F0C6FA4DF24332D0
S31508008930414600F0C8FA0FF6300100F0BAFA0125F0
S3150800894002237F22DFF8FC0500F0AEFA9DF802202C
S3150800895000F0B8FA9DF8032000F0B4FA6D1EEFD1C6
S3150800896000F0AAFA4CF24332414600F0ACFA0FF690
S315080089700C0100F09EFA012502237F22DFF8C805C4
S31508008980FFF7CAFB9DF8002000F09CFA9DF801202D
S3150800899000F098FA6D1EEFD100F08EFA4DF24232D1
S315080089A0414600F090FA0FF2E87100F082FA1023BF
S315080089B07F22DFF8980500F06FFA04A800F081FA24
S315080089C06D1C102DF9D300F077FA4CF2453241466A
S315080089D000F079FA0FF2D47100F06BFA94237F2233
S315080089E0DFF86C0501883EA804F017FB00253EA8B1
S315080089F000F067FA6D1C942DF9D300F05DFA4BF27E
S31508008A003462414600F05FFA0FF2B47100F051FA91
S31508008A1008237F22DFF83C0500F042FA002500F023
S31508008A204FFA6D1C082DFAD300F046FA4FF601727C
S31508008A30414600F048FA0FF2947100F03AFA01251F
S31508008A4002237F220021FFF768FB9DF8002000F033
S31508008A5039FA9DF8012000F035FA6D1EF0D100F0C4
S31508008A602BFA4EF22312414600F02DFA0FF27471DA
S31508008A7000F01FFA04237F22012103A804F0CDFA8F
S31508008A8003A800F01EFA6D1C042DF9D300F014FAA1
S31508008A904EF27542414600F016FA0FF2607100F088
S31508008AA008FA11237F22022100F0F3F900250CA809
S31508008AB000F007FA6D1C112DF9D300F0FDF94EF2FE
S31508008AC06322414600F0FFF90FF2447100F0F1F914
S31508008AD0012502237F220321FFF71FFB9DF80020B3
S31508008AE000F0F0F99DF8012000F0ECF96D1EF0D1C8
S31508008AF000F0E2F94EF26352414600F0E4F90FF253
S31508008B00247100F0D6F904237F22042103A804F077
S31508008B1084FA03A800F0D5F96D1C042DF9D300F0EA
S31508008B20CBF94EF26212414600F0CDF90FF2087108
S31508008B3000F0BFF9012502237F220521FFF7EDFA90
S31508008B409DF8002000F0BEF99DF8012000F0BAF962
S31508008B506D1EF0D100F0B0F94EF67932414600F0BC
S31508008B60B2F90FF2EC6100F0A4F911237F22062175
S31508008B7000F08FF90CA800F0A4F96D1C112DF9D39B
S31508008B8000F09AF94EF66462414600F09CF90FF23D
S31508008B90CC6100F08EF910237F22072100F07DF9C1
S31508008BA0002504A800F08DF96D1C102DF9D300F0EE
S31508008BB083F94EF22412414600F085F90FF2AC61B2
S31508008BC000F077F91A237F22082137A804F025FA3E
S31508008BD0002537A800F075F96D1C1A2DF9D300F099
S31508008BE06BF94EF22512414600F06DF90FF29061CD
S31508008BF000F05FF908237F22092100F052F90025C9
S31508008C0000F05EF96D1C082DFAD300F055F94EF206
S31508008C102612414600F057F90FF2806100F049F933
S31508008C200A237F220A2108A804F0F7F9002508A8D4
S31508008C3000F047F96D1C0A2DF9D300F03DF94DF205
S31508008C404522414600F03FF90FF2646100F031F920
S31508008C5000250423EAB20B2103A804F0DEF9002656
S31508008C6003A8325C00F02EF9761C042EF8D36D1C8E
S31508008C70102DEEDB00F020F94EF21022414600F0EE
S31508008C8022F90FF23C6100F014F900F015F94EF2E2
S31508008C901122414600F017F90FF2406100F009F978
S31508008CA000F00AF94EF21222414600F00CF90FF2D2
S31508008CB04C6100F0FEF800F0FFF84EF21322414630
S31508008CC000F001F90FF2586100F0F3F800F0F4F83B
S31508008CD04EF21422414600F0F6F80FF2686100F0F1
S31508008CE0E8F800F0E9F84EF21522414600F0EBF8F4
S31508008CF00FF2786100F0DDF800F0DEF84EF220227F
S31508008D00414600F0E0F80FF2846100F0D2F804233F
S31508008D107F2212210BA804F080F900250BA800F089
S31508008D20D0F86D1C042DF9D300F0C6F84EF2742263
S31508008D30414600F0C8F80FF2786100F0BAF800F082
S31508008D40BBF84FF60D72414600F0BDF80FF274619C
S31508008D5000F0AFF800250B23EAB2142108A804F0A6
S31508008D605CF9002608A8325C00F0ACF8761C0B2EDD
S31508008D70F8D36D1C062DEEDB00F09EF84EF2564237
S31508008D80414600F0A0F80FF2506100F092F800F0AA
S31508008D9093F84FF46542414600F095F80FF24861A2
S31508008DA000F087F800F088F84EF20152414600F0CC
S31508008DB08AF80FF24C6100F07CF810237F22172105
S31508008DC000F06BF8002504A800F07BF86D1C102D48
S31508008DD0F9D300F071F84EF20252414600F073F8EA
S31508008DE00FF22C6100F065F828237F2218212DA8A0
S31508008DF004F013F900252DA800F063F86D1C282D42
S31508008E00F9D300F059F84EF25022414600F05BF8CB
S31508008E100FF2106100F04DF82C237F22192122A8A9
S31508008E2004F0FBF8002522A800F04BF86D1C2C2D49
S31508008E30F9D300F041F84EF25122414600F043F8CA
S31508008E400FF2F45100F035F800F036F87BB0BDE8C3
S31508008E50F083000008EF00205B2532585D200000F3
S31508008E604D46475F434849505F444154410000001E
S31508008E704D46475F504152545F44415441000000FB
S31508008E804D46475F5445535445525F44415441004B
S31508008E9001880CA804F0C1B8018804A804F0BDB87C
S31508008EA0018801A804F0B9B801880DF1020004F0A0
S31508008EB0B4B82078FBF7FFBF39462078FCF75AB8D4
S31508008EC001A82A5C49462078FCF754B8AE4E01083A
S31508008ED0B04E0108B24E0108B44E0108B64E01085C
S31508008EE0B84E0108BA4E0108BC4E0108BE4E01082C
S31508008EF0C04E0108C24E0108C44E0108C64E0108FC
S31508008F00C84E0108CA4E0108CC4E0108CE4E0108CB
S31508008F10D04E0108D24E0108D44E0108D64E01089B
S31508008F20D84E0108DA4E0108DC4E0108DE4E01086B
S31508008F30E04E0108E24E0108E44E0108E64E01083B
S31508008F40E84E0108EA4E0108EC4E0108EE4E01080B
S31508008F50F04E0108F24E0108009890F900303246AA
S31508008F6051462878FCF706B84D46475F454D4245B9
S31508008F70525F4555495F3634000000004D46475F4D
S31508008F80414E414C4F475F5452494D5F4E4F524DEB
S31508008F90414C00004D46475F414E414C4F475F5498
S31508008FA052494D5F424F4F53540000004D46475FAC
S31508008FB0414E414C4F475F5452494D5F424F5448CA
S31508008FC0000000004D46475F5245475F5452494DE1
S31508008FD0000000004D46475F3156385F5245475FEF
S31508008FE0564F4C54414745004D46475F56524546F5
S31508008FF05F564F4C54414745000000004D46475FB9
S3150800900054454D505F43414C000000004D46475FB4
S31508009010544553545F54454D500000004D46475F34
S315080090204649425F56455253494F4E004D46475FA3
S315080090304649425F434845434B53554D000000009F
S315080090404D46475F4649425F4F4253004D46475F8C
S315080090504349425F4F4253004D46475F4355535479
S315080090604F4D5F56455253494F4E00004D46475F98
S31508009070435553544F4D5F4555495F3634000000FC
S315080090804D46475F535452494E4700004D46475F89
S31508009090424F4152445F4E414D4500004D46475FA1
S315080090A04D414E55465F4944000000004D46475F16
S315080090B05048595F434F4E46494700004D46475F63
S315080090C0424F4F544C4F41445F4145535F4B4559BE
S315080090D0000000004D46475F455A53505F53544FB2
S315080090E052414745000000004D46475F4153485FDF
S315080090F0434F4E46494700004D46475F43424B455E
S315080091005F444154410000004D46475F494E535461
S31508009110414C4C4154494F4E5F434F444500000073
S315080091204D46475F4F534332344D5F424941535F83
S315080091305452494D000000004D46475F53594E545E
S31508009140485F465245515F4F464653455400000016
S315080091504D46475F4F534332344D5F534554544C45
S31508009160455F44454C4159004D46475F5345435575
S31508009170524954595F434F4E464947004D46475F4B
S315080091804343415F5448524553484F4C44000000FE
S315080091904D46475F5345435552455F424F4F544CE2
S315080091A04F414445525F4B45590000004D46475FC5
S315080091B043424B455F3238334B315F44415441009B
S315080091C04D46475F4555495F363400005354414381
S315080091D04B5F4E56444154415F56455253494F4E94
S315080091E000000000535441434B5F4150535F4652C1
S315080091F0414D455F434F554E5445520053544143E4
S315080092004B5F414C5445524E4154455F4B455900BE
S31508009210535441434B5F424F4F545F434F554E544F
S3150800922045520000535441434B5F4E4F4E43455FF2
S31508009230434F554E54455200535441434B5F414E9C
S31508009240414C595349535F5245424F4F5400000011
S31508009250535441434B5F4B455953000053544143C4
S315080092604B5F4E4F44455F4441544100535441437C
S315080092704B5F54525553545F43454E544552000074
S31508009280535441434B5F4E4554574F524B5F4D41E4
S315080092904E4147454D454E54000000005354414346
S315080092A04B5F504152454E545F494E464F000000B1
S315080092B0535441434B5F43414C5F44415441000082
S315080092C04D554C54495F4E4554574F524B5F535476
S315080092D041434B5F4B455953000000004D554C54D4
S315080092E0495F4E4554574F524B5F535441434B5F6A
S315080092F04E4F44455F444154410000004D554C547F
S31508009300495F4E4554574F524B5F535441434B5F49
S31508009310414C5445524E4154455F4B455900000057
S315080093204D554C54495F4E4554574F524B5F535415
S3150800933041434B5F54525553545F43454E5445522F
S31508009340000000004D554C54495F4E4554574F5246
S315080093504B5F535441434B5F4E4554574F524B5FF7
S315080093604D414E4147454D454E5400004D554C54D0
S31508009370495F4E4554574F524B5F535441434B5FD9
S31508009380504152454E545F494E464F004D554C5438
S31508009390495F4E4554574F524B5F535441434B5FB9
S315080093A04E4F4E43455F434F554E544552000000BD
S315080093B0535441434B5F42494E44494E475F5441DB
S315080093C0424C4500535441434B5F4348494C445F24
S315080093D05441424C45000000535441434B5F4B45B2
S315080093E0595F5441424C4500535441434B5F4345F2
S315080093F05254494649434154455F5441424C4500FD
S31508009400535441434B5F5A4C4C5F4441544100000E
S31508009410535441434B5F5A4C4C5F5345435552494D
S3150800942054590000535441434B5F52463443455FF9
S315080094304441544100000000535441434B5F524697
S315080094403443455F50414952494E475F5441424C67
S315080094504500000021210FF22C00FCF70BBF10B5C8
S31508009460FCF752FC0446FCF747FC234602460FF27B
S31508009470240103480078BDE81040FBF77BBD0000D7
S3150800948008EF002072657365742D746573742E6316
S315080094900000000052455345543A25702D25700D9D
S315080094A00A00000010B50446002003F03BF800202F
S315080094B003F048F801F0B2F9012002F032FF02F099
S315080094C02CFF10F0060018BF012004F0D8F820463B
S315080094D004F09AFC2046BDE8104000F0ABBB80B50E
S315080094E0022100A802F037FA009803F02DFD01BD0D
S315080094F08068006800B10120DFF8A01108700878BC
S31508009500C0074CBF0FF2B8130FF2BC130FF2A0122C
S315080095106348D0F86013FFE70FF28810FCF778BAB3
S3150800952080B502F0ECFF002814BF0FF2A8130FF263
S31508009530AC130FF2D8125A48D0F890130FF2AC10A9
S315080095402FE038B50446A06805685548D0F8A0133A
