S01500006D66672D73616D706C652D6170702E73333788
S3150800400038760020F98E0108758E0108778E01082A
S31508004010A70A080100410008040A03AC00537A0104
S315080040200000000000000000000000000000000082
S315080040300000000000000000000000000000000072
S315080040400000000000000000FFFFFFFFFFFFFFFF6A
S31508004050FFFFFFFF00E0030800000000000000006B
S31508004060FFFFFFFFFFFFFFFFFFFFFFFFFFFFFFFF52
S31508004070FFFFFFFFFFFFFFFFFFFFFFFFFFFFFFFF42
S31508004080F07F002000000000F07F0020F07F002075
S3150800409038760020E898010828920108D86C002094
S311080040A0800600200000040800800020B4
S3150800410038760020F98E0108758E0108778E010829
S315080041107B8E0108798E01087D8E0108F48E0108D0
S31508004120F48E0108F48E0108F48E0108F48E010855
S315080041307F8E0108F48E0108D99101083F8C00088A
S31508004140DD8D0108F48E0108A9940008F48E010893
S3150800415093670008B3920008F48E0108F48E0108EC
S315080041603D7C0108A5C00008691B0108C98F000825
S31508004170F48E0108B793000815940008F48E010818
S31508004180D1990008F48E0108F48E0108F58E01080D
S3150800419010B5DFF8243A5C89641C5C819C89641C30
S315080041A09C81DC796CB90124DC719C815A71997106
S315080041B002781A71411CDFF8040ABDE8104001F0C4
S315080041C0B1BA10BD2DE9F04782B0DFF8EC49A289F3
S315080041D00FF6082100F022FA2079009094F90530AC
S315080041E0A2790FF60C2100F0BAF800F014FA0025AF
S315080041F0B4A6B5A7DFF8C4890FF61C2917E0E8109E
S3150800420005EB10700011B5EB001A04D1494600F011
S315080042105EF900F000FA15F80820394600F0FEF9B4
S31508004220BAF10F0F01D100F051F96D1CEDB22079EA
S315080042308542E4DB00F04AF900F0EDF90020E07170
S31508004240A081E081BDE8F38701F009FB044601F08F
S315080042501BFB01F057FC012300220F21012001F06E
S3150800426027FD01F00CFC034622460FF6B811012083
S3150800427001F01DFE01F060FE020006D00FF6B8112F
S31508004280012001F014FE8FA101E00FF6C4110120F0
S3150800429001F00DFE012002F07BF8DFF81C4905E06D
S315080042A000202072A089E08102F075F802F000FA79
S315080042B001F0C2FE02F04AFA0546208A281A80B2A0
S315080042C0C928F1D3072002F0DBFA2582E079002815
S315080042D0EAD0E089A1898842E2D1207A401C20727E
S315080042E0C0B20228DED1FFF76DFFDBE710B5DFF8B5
S315080042F0C848902804D0912808D0942809D00FE0FF
S315080043000FF6601100F0E3F8012007E00FF68011C0
S3150800431001E00FF6A81100F0DAF80020E07010BDF1
S3150800432002460FF6C4110120BDE8104001F058BD41
S315080043307047704770477CB504460D46164602F02E
S3150800434007FBDFF87C180968715C019169880091A0
S31508004350034622460FF6B01100F001F873BD01209E
S3150800436001F03EBD0FF6CC11012001F039BDF8B5BC
S3150800437004460D460FF6F81101F032FD0826B6A7D9
S31508004380701910F8012C3946204601F029FD761ED1
S31508004390F6D110E0F8B504460D460FF6DC1101F02B
S315080043A01FFD0026ACA7725D3946204601F018FDB0
S315080043B0761C082EF7D343A1204601F011FD0120F3
S315080043C0BDE8F24001F062BDF0B587B001A802F081
S315080043D01BFB20B102460FF6B41100F01FF90FF6C9
S315080043E0541100F074F8DFF8DC170120FFF7BFFF5F
S315080043F04FF4A6420FF6C81100F010F997A498A535
S31508004400DFF8B4673078002814BF2A4622460FF62C
S31508004410C01100F003F900F0FEF83078012823D126
S3150800442002F077FC074602F051FC3B4602460FF6BF
S31508004430B411012001F0D4FC02F04AFB02460FF643
S31508004440CC1100F0EBF872890FF6DC1100F0E6F8F3
S31508004450707818B10FF6F01100F039F8B07818B185
S315080044600FF6002100F033F8F07800B12C4622460A
S315080044700FF6102100F0D2F800F0CDF8F0780128F8
S3150800448019D101F0E0FE02460FF60C2100F0C6F83D
S3150800449000F0C1F8BDF80C0000909DF90E309DF8AB
S315080044A00F200FF60821FFF75AFF01A90120FFF791
S315080044B071FF00F0B0F803A100F009F800F0ABF8BE
S315080044C007B0F0BD0D0A000025782000314601200E
S315080044D001F086BC10B586B001210FF6002001F068
S315080044E0F7FF012812D100F044FB00F084F800F031
S315080044F087F800F08BF800EB0420ADF8080000A858
S3150800450002F0C1FD02460FF6DC1156E001210FF656
S31508004510E41001F0DDFF012820D11822002100A8AF
S3150800452001F043F90822002100A801F03EF900F045
S3150800453020FB00F060F800F063F800F067F800EB85
S315080045400420ADF8080000208DF80C0000A9022010
S3150800455002F0FFFD02460FF6A4112EE001210FF628
S31508004560AC1001F0B5FF012805D102F0C5FE0246E0
S315080045700FF6A01121E001210FF6A81001F0A8FFFF
S31508004580012805D103F051FF02460FF6A01114E0E9
S3150800459001210FF6A81001F09BFF012810D100F0A9
S315080045A0E8FAC4B222460FF69C1100F037F8204606
S315080045B002F0B2FD02460FF6981100F02FF818E047
S315080045C00FF69C11FFF783FF0FF6C411FFF77FFF65
S315080045D00FF6EC11FFF77BFF00F01DF80FF6F01150
S315080045E0FFF775FF0FF6F811FFF771FF1DA1FFF72B
S315080045F06EFF06B010BD8DF80B00032001F0D9BF81
S315080046008DF80A000421002001F08EBF044604211B
S31508004610012001F089BF012001F038BC012001F01A
S31508004620DFBB70B504460D46681E20703AB10126F8
S31508004630AE420FDA04F0C2F83055761CF8E70126C8
S31508004640DFF8840504E0311811F8011C3155761C91
S31508004650AE42F8DB70BD0000257800004E4F000022
S31508004660594553000D0A00002DE9F04782B0DFF8DE
S3150800467048550FF68414012100F070FA012818D164
S3150800468000F077FAC4B2012C0CBFDFF84005002011
S3150800469002F042FA0646334622460FF66411012016
S315080046A001F09EFB002E03D10120287000206881AE
S315080046B048E2012188A001F00BFF012811D16A897F
S315080046C00FF6601101F08CFB02F05FFA06463246DF
S315080046D00FF67811FFF7A2FF002E01D100202870EF
S315080046E030E201210FF6801001F0F2FE01281CD1FC
S315080046F000F033FA01280BD102F083FA0646324657
S315080047000FF66C11FFF78AFF002E0DD101200AE083
S3150800471002F082FA064632460FF66811FFF77EFF68
S31508004720002E01D1002068700CE201210FF66810F6
S3150800473001F0CEFE01281CD100F00FFA01280BD19A
S3150800474002F074FA064632460FF65411FFF766FF72
S31508004750002E0DD101200AE002F073FA0646324611
S315080047600FF65411FFF75AFF002E01D10020A8704A
S31508004770E8E15AA401210FF6581001F0A9FE012814
S3150800478040F0978000F0F5F90546042001F011FF86
S315080047900746DFF83C6403210FF63C1001F098FE4B
S315080047A001280DD10122F9B23046FFF73AFF812FD1
S315080047B03DDB0FF69C11FFF78AFE80277F203EE03F
S315080047C003210FF61C1001F083FE012808D1412FA2
S315080047D004DB40233A460FF61011A6E00022E2E772
S315080047E003210FF63C1001F073FE01281CD10027A7
S315080047F0042100F0ABF9B85507EB0608052100F0CF
S31508004800A5F988F80800062100F0A0F988F8100034
S31508004810072100F09BF988F818007F1C082FE7DBB2
S315080048203078471CBFB2C2E70FF6FC0188E1062FB5
S3150800483006DA0FF64C11FFF74AFE062705203070F8
S315080048403B462A460FF66811012001F0C9FA4FF0D7
S3150800485000080FF2F4290FF6841A13E04FEAE8006D
S3150800486008EB10700011B8EB001002D15146FFF7A3
S315080048702EFE18F806204946FFF7D0FEFFF7CBFEB6
S3150800488008F10108B845E9DB2146FFF720FE2DB9F6
S315080048900FF65011012001F0ABFA53E1691E89B2F7
S315080048A0304602F0DBF90600F7D002460FF65C1137
S315080048B0E2E0BEA6BEA701210FF6681001F008FEC9
S315080048C001281DD100F051F9012809D102F0FEF99D
S315080048D002460FF65811CFE0656E64000D0A000017
S315080048E000F03FF9012822D1032001F062FE0446B8
S315080048F0C0B202F0E0F90346E2B20FF64C1113E03B
S3150800490001210FF6701001F0E3FD012830D100F007
S315080049102CF901280CD102F0DBF8044602F0F9F96B
S31508004920024623460FF65411012001F059FA09E10F
S3150800493000F017F90128FAD104210FF6641001F0E6
S31508004940C7FD0128F3D1032001F033FE04460520F4
S3150800495001F02FFE0546032D09D261B202F0B8F91F
S3150800496000902B46E2B20FF64011FFF7F8FCE9E09B
S3150800497001210FF6681001F0ABFD01281CD100F0EB
S31508004980F8F80446032001F026FE0546E4B222465E
S315080049900FF65411FFF742FE25B90FF68C11FFF7F3
S315080049A096FD04E02A460FF6C411FFF737FE29469E
S315080049B0204602F0B0F9C5E00FF6DC18012100F038
S315080049C0C9F808B300F0D1F828B102F09EF90246FA
S315080049D00FF6D01150E000F0C4F80028EBD0032001
S315080049E001F0D5FD6D7844B222460FF6DC11FFF7CB
S315080049F015FE0DB102F010F9204602F07DF9002DE2
S31508004A0001D002F0FEF89DE001210FF6E01001F05A
S31508004A105FFD002833D06F48048802210FF6D410B2
S31508004A2001F056FD68B100F094F850B102237F22D8
S31508004A30214600A803F0D2FEBDF800200FF6BC11EF
S31508004A401AE002210FF6EC1001F042FD002879D099
S31508004A5000F07FF8002875D002F057F9C0B240F48C
S31508004A607E40ADF80000022200A9204603F0E4FECD
S31508004A70BDF800200FF6C411FFF7D0FD62E00FF66F
S31508004A80F411FFF724FD0FF61C21FFF720FD0FF6A2
S31508004A902021FFF71CFDFFF7BEFD0FF62821FFF7C3
S31508004AA016FD0FF63021FFF712FD0FF63C21FFF732
S31508004AB00EFDFFF7B0FD0FF64421FFF708FD0FF6D0
S31508004AC06C21FFF704FD0FF68C21FFF700FDFFF7B9
S31508004AD0A2FD0FF6A021FFF7FAFCFFF79CFD0FF6E3
S31508004AE0B821FFF7F4FC0FF6DC21FFF7F0FCFFF71F
S31508004AF092FD0FF6E021FFF7EAFCFFF78CFD0FF6B3
S31508004B00F821FFF7E4FCFFF786FD0FF60031FFF703
S31508004B10DEFCFFF780FD0FF63C31FFF7D8FC0FF6F9
S31508004B208031FFF7D4FCFFF776FD0FF68831FFF7E3
S31508004B30CEFC0FF69C31FFF7CAFCFFF76CFD214649
S31508004B40FFF7C5FCBDE8F38720257800F8B201F029
S31508004B50EBBC0321404601F0BBBC0221204601F014
S31508004B60B7BC0221304601F0B3BC0221384601F039
S31508004B70AFBC022001F01DBD00F0B2BEF8B500249E
S31508004B800FF668350FF66C36134F05E056F83420E5
S31508004B902946FFF743FD641C3878E4B28442F5D30E
S31508004BA004A10120BDE8F44001F01AB97365740048
S31508004BB0676574000D0A00009E7A0020D0790020EF
S31508004BC09C760020787C00204C76002091410008D5
S31508004BD050790020C89501088C7600200D0A4D46AC
S31508004BE0472052582025327820706B74730D0A00BE
S31508004BF06669727374207061636B65743A206C71B0
S31508004C00692025752C20727373692025642C206C05
S31508004C10656E2025750D0A002020202020203A20C8
S31508004C200000000052657365742830782578293AA3
S31508004C3025700D0A000000004552524F523A206571
S31508004C406D626572496E697420307825783A00007D
S31508004C50656D626572496E69742070617373656407
S31508004C600D0A00004556454E543A20737461636B2D
S31508004C70537461747573206E6F7720454D424552A3
S31508004C805F4E4554574F524B5F55500D0A00000072
S31508004C904556454E543A20737461636B5374617478
S31508004CA07573206E6F7720454D4245525F4E4554C9
S31508004CB0574F524B5F444F574E0D0A004556454EC7
S31508004CC0543A20737461636B537461747573206E00
S31508004CD06F7720454D4245525F4A4F494E5F4641E0
S31508004CE0494C45440D0A00004556454E543A207332
S31508004CF07461636B537461747573206E6F772030BB
S31508004D007825780D0A0000005258207479706520BD
S31508004D1025782066726F6D202532782C20636C7595
S31508004D2073746572202532782C206C656E20257880
S31508004D30000000004D616E75666163747572696E78
S31508004D4067204C6962726172792053616D706C6577
S31508004D50204170706C69636174696F6E2C2076658A
S31508004D607273696F6E20312E300D0A0D0A0000002D
S31508004D704555493A20000000202020457874656E84
S31508004D8064656450616E49643A2000004572726F2A
S31508004D90723A20676574206E6574776F726B20703F
S31508004DA06172616D65746572206661696C65642CF3
S31508004DB02073746174757320307825780D0A0000A5
S31508004DC0737461636B205B2532785D0D0A00000001
S31508004DD0696E206D6667206D6F64653A2025700DD3
S31508004DE00A0000002020206D6667206368616E6EE9
S31508004DF0656C3A20307825782C206D666720706FB0
S31508004E007765723A203078257800000020202054F3
S31508004E105820706F776572206D6F64653A20307818
S31508004E202532780D0A0000002020206D6667207064
S31508004E306B74732072656365697665643A203078A9
S31508004E402532780D0A0000002020206D6667205460
S31508004E506F6E6520746573742072756E6E696E6701
S31508004E600D0A00002020206D666720537472656164
S31508004E706D20746573742072756E6E696E670D0A9F
S31508004E8000000000737461636B2069732075703AC3
S31508004E902025700D0A00000020202073686F7274A8
S31508004EA0204944205B2532785D0D0A0020202063C6
S31508004EB068616E205B307825785D2C20706F776589
S31508004EC072205B307825785D2C2070616E496420ED
S31508004ED05B30782532785D0D0A000000666F726DCA
S31508004EE000000000666F726D20307825780D0A0D77
S31508004EF00A0000006A6F696E000000006A6F696E3A
S31508004F0020307825780D0A0D0A000000696E69744C
S31508004F1000000000696E697420307825780D0A0D46
S31508004F200A0000006C656176650000006C656176B4
S31508004F306520307825780D0A0D0A0000706A6F69B9
S31508004F406E00000076616C20307825780D0A000026
S31508004F50704A6F696E20307825780D0A0D0A0000B0
S31508004F606E6574776F726B20666F726D203C63682E
S31508004F70616E6E656C3E203C706F7765723E203CB4
S31508004F8070616E696420696E206865783E0D0A0056
S31508004F906E6574776F726B206A6F696E203C636802
S31508004FA0616E6E656C3E203C706F7765723E203C84
S31508004FB070616E696420696E206865783E0D0A0026
S31508004FC06E6574776F726B20696E69740D0A0000DE
S31508004FD06E6574776F726B206C656176650D0A0075
S31508004FE06E6574776F726B20706A6F696E203C7499
S31508004FF0696D653E0D0A00007374617274000000E5
S315080050006D66676C696220737461727420282578EE
S31508005010292C2073746174757320307825780D0AED
S315080050200D0A000072782030782532782070616386
S315080050306B657473207768696C6520696E206D6688
S3150800504067206D6F64650D0A000000006D66676C69
S31508005050696220656E642073746174757320307894
S3150800506025780D0A0D0A0000746F6E6500000000B1
S31508005070737461727420746F6E6520307825780DAC
S315080050800A0D0A0073746F7020746F6E652030788D
S3150800509025780D0A0D0A000073747265616D0000AB
S315080050A073746172742073747265616D203078252B
S315080050B0780D0A0D0A00000073746F7020737472FD
S315080050C065616D20307825780D0A0D0A000000000C
S315080050D073656E640000000072616E646F6D000097
S315080050E074657374000000006C656E677468206FE1
S315080050F0662030782578206C61726765722074683E
S31508005100616E2063757272656E742074657374209F
S315080051107061636B6574202830782578290D0A003C
S315080051206D657373616765006E6F74207265636F72
S31508005130676E697A65642C2074727920226D6667B9
S315080051402220666F722068656C700D0A00000000E8
S3150800515061646A757374696E67206C656E677468D6
S315080051602066726F6D203078257820746F206D6107
S3150800517078696D756D206F66203132380D0A00002A
S3150800518061646A757374696E67206C656E677468A6
S315080051902066726F6D203078257820746F206D69CF
S315080051A06E696D756D206F6620360D0A0000000069
S315080051B073656E64696E67206D66676C6962203018
S315080051C078253278207061636B65742873292C20E2
S315080051D06C656E6774682030782578000D0A202083
S315080051E0203A20004572726F723A206E756D6265BC
S315080051F072206F66207061636B657473206D7573BA
S3150800520074206265203E2030000000006D6667202D
S3150800521073656E64206572722030782578200D0AD1
S315080052200D0A00006368616E000000006D66672065
S31508005230676574206368616E6E656C2030782578C2
S315080052400D0A0D0A000000006D666720736574205C
S315080052506368616E6E656C20746F20307825782CD3
S315080052602073746174757320307825780D0A0D0AD9
S3150800527000000000706F7765720000006D66672099
S3150800528067657420706F77657220307825782028D6
S315080052906D6F646520253278290D0A0D0A00000015
S315080052A06D6F6465000000006D6667207365742085
S315080052B0706F77657220746F20307825782C206D92
S315080052C06F64652030782532782C20737461747584
S315080052D07320307825780D0A0D0A000074657374FA
S315080052E06D6F6463616C000053657474696E672042
S315080052F06368616E6E656C20616E642070657266A7
S315080053006F726D696E672063616C69627261746938
S315080053106F6E20666F72206368616E6E656C2030F2
S315080053207825780D0A000000436F6E74696E756FF4
S315080053307573204D6F64204441432043616C2C20D3
S31508005340746869732077696C6C206E65766572205F
S31508005350656E642C207265736574207061727420A2
S31508005360746F2073746F702E0D0A00004D6F6420E1
S315080053704441432043616C2072756E6E696E6720E6
S31508005380666F72202575206D696C6C697365636F2D
S315080053906E64730D0A00000073796E6F6666736536
S315080053A0740000006D6667206765742073796E74F3
S315080053B068206F66667365743A2025642073746581
S315080053C070730D0A0D0A00006D66672073657420F8
S315080053D073796E7468206F66667365743A202564FF
S315080053E02073746570730D0A0D0A0000746F6B657F
S315080053F06E00000072656164000000006D6667203B
S315080054007265616420746F6B656E20544F4B454E10
S315080054105F4D46475F53594E54485F465245515F64
S315080054204F46465345543A2030782532780D0A0DB2
S315080054300A00000077726974650000006D666720CF
S31508005440777269746520746F6B656E20544F4B458F
S315080054504E5F4D46475F53594E54485F4652455135
S315080054605F4F46465345543A2030782532780D0A20
S315080054700D0A00006D6667207374617274203C77AC
S31508005480616E742063616C6C6261636B2C20303DC5
S3150800549046616C73652C20313D547275653E0D0A64
S315080054A0000000006D666720656E640D0A00000046
S315080054B06D666720746F6E652073746172740D0A69
S315080054C0000000006D666720746F6E652073746F48
S315080054D0700D0A006D66672073747265616D2073BE
S315080054E0746172740D0A00006D66672073747265C4
S315080054F0616D2073746F700D0A0000006D66672079
S3150800550073656E64203C6E756D5061636B6574736C
S315080055103E20746573742D7061636B6574203C6CF2
S31508005520656E6774683E0D0A000000006D666720A8
S3150800553073656E64203C6E756D5061636B6574733C
S315080055403E2072616E646F6D203C6C656E67746890
S315080055503E0D0A006D66672073656E64203C6E75A5
S315080055606D5061636B6574733E206D657373616717
S31508005570652000003C66697273742038206279746D
S3150800558065733E203C7365636F6E642038206279CC
S315080055907465733E0D0A00006D666720706F776547
S315080055A07220736574203C706F7765723E206D6F4C
S315080055B06465203C706F7765726D6F64653E0D0A91
S315080055C0000000006D666720706F7765722067655A
S315080055D0740D0A006D6667206368616E6E656C20DF
S315080055E0736574203C6368616E6E656C2031312D7D
S315080055F032363E0D0A0000006D6667206368616EEC
S315080056006E656C206765740D0A0000006D6667207C
S31508005610746573746D6F6463616C203C6368616E56
S315080056206E656C2031312D32363E203C23206D6963
S315080056306C6C697365636F6E647320746F20727522
S315080056406E2C2030203D3D20696E66696E69746552
S315080056503E0D0A006D66672073796E6F6666736520
S315080056607420736574203C232031312E376B487AB9
S315080056702073746570733E202D2076616C756520E5
S315080056806973206F6E6C792073657420756E746902
S315080056906C206E6578742072657365740D0A000057
S315080056A06D66672073796E6F6666736574206765C5
S315080056B0740D0A006D666720746F6B656E207265DF
S315080056C061642073796E6F66667365740D0A0000EF
S315080056D06D666720746F6B656E20777269746520D6
S315080056E073796E6F66667365740D0A0025700D0A08
S315080056F000000000289201087D4B0008309201083E
S315080057006543000838920108C94300084092010819
S315080057106946000844920108D54400084C920108DD
S31508005720794B0008814233D21018401E5118491E81
S3150800573010E0121F11F8013900F8013911F8013982
S3150800574000F8013911F8013900F8013911F8013961
S3150800575000F8013992B2042AEBD292B2002A1EBF8F
S3150800576011F8013900F80139521EF6D17047121F97
S3150800577011F8013B00F8013B11F8013B00F8013B29
S3150800578011F8013B00F8013B11F8013B00F8013B19
S3150800579092B2042AEBD292B2002A1EBF11F8013B3C
S315080057A000F8013B521EF6D17047130003D00A4693
S315080057B0194603F08DB8704710B500E0521E92B234
S315080057C032B110F8013B11F8014BA342F6D00FE0B5
S315080057D0002010BD10B500E0521E92B232B110F88A
S315080057E0013B11F8014BA342F6D001E0002010BDA1
S315080057F0181B40B210BD000030B51C4801680020D7
S31508005800002201249440CBB2234212D00FF2680042
S3150800581030F812004CF23C314FF20F02144B0628B6
S3150800582011D1588890420AD11888020A0B2A06D242
S3150800583007E0521C082AE4D30E49088030BD4FF40D
S31508005840C0605980F8E740F20724A04201BF5D888E
S3150800585095421A88A242EFD159802046ECE70548BE
S315080058600088000A70470348008870472C000040EB
S3150800587000000020AC7F002001040204010301059A
S31508005880060007020309010938B5012003F042F9A9
S31508005890002003F08BFA6A4C206840F0080020606C
S315080058A000F0FFFE03F072FA00F027F88D78DD604D
S315080058B00D8905604D89456000F016F8206820F0CE
S315080058C01000206003F0B1FB03F0F2FC03F02EFD9C
S315080058D003F0B3F900F0E3FEBDE8314000F0FCBE8A
S315080058E040F2016003F0C0BD88891060C889506025
S315080058F0088A1860488A586042E0524852490A782D
S31508005900C260524A4B78D360514B7047F0B50B686A
S315080059104D4C246A0F25960005FA06F6344212D035
S31508005920002606EB820724FA07F7FF0708D5B70013
S3150800593005FA07F7BB4330F812C007EA0C073B43E2
S31508005940761C042EEDDB0B60F0BDF0B50B683E4C03
S31508005950246AFF25D600B5402C420FD0002505EB5A
S31508005960C20624FA06F6F60705D50126AE40B34365
S31508005970175C3E4033436D1C082DF0DB0B60F0BD11
S3150800598010B5314C206A002827D000223249201D44
S31508005990FFF7DBFF01223149201DFFF7D6FF022260
S315080059A02F49201DFFF7D1FF0022264900F016F8DF
S315080059B00122284900F012F80222244900F00EF8C4
S315080059C00322284900F00AF80422214900F006F8C3
S315080059D00522254904F114004BE010BD04F114001A
S315080059E094E710B5184C206A002827D000221A49D7
S315080059F02046FFF7AAFF012218492046FFF7A5FF10
S31508005A00022217492046FFF7A0FF00220D4900F0A1
S31508005A102DF801220F4900F029F802220B4900F05F
S31508005A2025F803220F4900F021F80422084900F05E
S31508005A301DF805220C4904F108001AE010BD000003
S31508005A4000BC004000B000407077002000B2004063
S31508005A5000B4004004B000400CB000400CB2004056
S31508005A600CB4004004B2004004B4004004F108003D
S31508005A704CE7BDE8104049E7032003F02DBE80B58A
S31508005A80FFF7EDFE0FF2500101EB800002BD0000AA
S31508005A9010B5FFF7E4FE0446FFF7E5FEC0B208B905
S31508005AA0012C07D1072C11D8DFE804F004100608EA
S31508005AB0080A0C0E002010BD092010BD022010BDDA
S31508005AC0032010BD0B2010BD062010BD44F0800039
S31508005AD010BD002070470000554E4B004649420055
S31508005AE042544C00455854005057520057444700FA
S31508005AF0205357004352530046534800424144003E
S31508005B00464C5400002181F31188704770B513463E
S31508005B10101802E0A4192C705B1EDBB24BB101F021
S31508005B200F060909451E28460A2E34BF3024372495
S31508005B30F0E7101870BD2DE9F04F87B0804689460A
S31508005B4014469B4601AD002701A88DF800001BE00E
S31508005B505BF804AB04224FEA1A412846FFF7D6FF42
S31508005B6004221FFA8AF1FFF7D1FF054605A88542E8
S31508005B7009D39DF800002E1A00F096F8002831D1B6
S31508005B80F719FFB201AD641C9DF800002E1A2078A3
S31508005B90002807D0252802D005F8010BE6E714F8F7
S31508005BA0010F002876D02528F6D0322818BF3428C9
S31508005BB05FD0582857D063280CD0642818BF6C28A3
S31508005BC025D0702818BF732807D075281FD07828C5
S31508005BD049D0CBE75BF8040BDEE75BF804AB00F0D3
S31508005BE063F800285CD1F719FFB201AD002600E082
S31508005BF0761CF6B216F80A000028F9D13246514644
S31508005C004846C04700284BD1F719FFB2AEE75BF804
S31508005C10040B0021002803D52D21297001214042BB
S31508005C20002300224FF0000C02E0801B0CF1010C4F
S31508005C300FF2E02656F82260B042F6D243EA0C0686
S31508005C40F6B2002E05D0C9B20CF130034B55491CEB
S31508005C500123521C092AE5DBC9B230304855481CD5
S31508005C60C0B2451982E75BF8041B0222C9B228466E
S31508005C7079E714F8010F78281CBF5828641EF1D15B
S31508005C8014F8010C32287FF463AF5BF8041B042276
S31508005C9089B2ECE700F008F810B9F019C0B200E0D4
S31508005CA0002007B0BDE8F08FF2B201A94846404788
S31508005CB02DE9FC4E0400894692469B4618BF022CE5
S31508005CC02BD0032C18BF042C27D026D20FF2302055
S31508005CD0205C012821D1DFF8185205EB8406F76805
S31508005CE003F00CFD0021B9803980798003F00CFDA2
S31508005CF0F66903F003FD0021B1803180718061559A
S31508005D0003F002FD03F0D4FA5B46524649462046A4
S31508005D1002B0BDE8F04E03F0B7B92120BDE8F68E13
S31508005D202DE9F04188460446DFF8C45105EB8401A5
S31508005D30CE690FF2CC11615C09B9012035E005EB9B
S31508005D404407615D61B1B9887288914208D103F050
S31508005D50D5FC665D0021615503F0D6FC304624E08B
S31508005D6003F088FAB088F8B103F0C8FC718889197D
S31508005D70897988F800107188491C0FF2901232F858
S31508005D80142000F014F87180B188491EB18003F020
S31508005D90BBFC605D30B1B8884FF6FF71884204BF1E
S31508005DA03088B880002000E02620BDE8F08191FB0D
S31508005DB0F2F302FB131170474CA111E010B5002451
S31508005DC00FF23C13C35C012B08D113460A46014661
S31508005DD00FF23500FFF7AFFE00B90124204610BDCB
S31508005DE00CB480B502AAFFF7E9FF02BC5DF80CFB0C
S31508005DF00CB438B5044604AAFFF7E0FF054620466A
S31508005E00FFF7DAFF28466DE02DE9F84F80468B4606
S31508005E10164647460FF2E800385C012833D1344865
S31508005E2000EB8700C46800250FF2D8090FF2C80AEC
S31508005E3015E003F063FCA18801B901252188091939
S31508005E401BF8012B8A712188491C39F81720FFF79E
S31508005E50AEFF2180A188491CA18003F055FC30467D
S31508005E60461EC0B250B1A0883AF817108842E0D34F
S31508005E7015B1404603F050F9222005E0404603F0EC
S31508005E804BF9002000E00120BDE8F28F80B50FF243
S31508005E907002825C012A06D1154A02EB8001C968A4
S31508005EA08A88002AFCD103F070F9002002BD0CB4E0
S31508005EB038B504460D4603F048F904AB2A46214690
S31508005EC00C48FFF738FE0FF23801615C012908D14A
S31508005ED0074901EB8400C068808810B1204603F0AA
S31508005EE01BF9002032BC5DF80CFB00000D0A00000F
S31508005EF0947700205B9100080000800000000000F5
S31508005F0000010000000080000000000000004000C2
S31508005F100000000000CA9A3B00E1F505809698004B
S31508005F2040420F00A086010010270000E803000089
S31508005F30640000000A00000010B503F0E9FB03F056
S31508005F408FFCDFF82C432078002839D1102003F085
S31508005F50CBFD00060BD4002003F0C6FD000606D5CF
S31508005F60E078012812D103F03BFBA8B310BD10203E
S31508005F7003F0BAFD0006F6D5002003F0B5FD0006CD
S31508005F80F1D5E078012818BF0F28ECD0E078022870
S31508005F9018BF0628E7D0072818BF0828E3D009281D
S31508005FA018BF0A28DFD0032818BF1028DBD011280D
S31508005FB018BF1228D7D013281CBF14281528D2D0EA
S31508005FC00FF2E02421460020FFF771FF2146012049
S31508005FD0FFF76DFFB02010BDFFF74EFD03F0C4FDBF
S31508005FE0DFF89002007808B103F0D0FD03F0D6FD83
S31508005FF003F081FFDFF880420FF2D42004F065F940
S315080060002070DFF8780204F060F9607004F0CEF9C9
S3150800601004F097FB04F0D0FC05F01AFF05F01BFF0F
S3150800602005F02EFF012006F034F9F021DFF85002C2
S3150800603004F0B8F8002010BD2DE9F04706F0C6FBBD
S3150800604006F0CAFC06F0E2FF08B906F0B2FFDFF870
S315080060503482404607F052FB08B904F0A8FFDFF87F
S315080060602892484607F04AFB08B907F0AEFC07F045
S31508006070A3FF08F042F9DFF80052287804F011F976
S31508006080687804F00EF908F0A7FA00270024DFF86C
S31508006090FC61DFF8FCA10AE0204604F02BFA306820
S315080060A0007B042828BF012704F025FA641C9AF807
S315080060B00000E4B28442EFD3002F1EBF7548007873
S315080060C0002805D000F03EF8102808BF08F02CFD7F
S315080060D0714807F013FB08B903F0E2FE09F054F81B
S315080060E003F00CFB074606F091FF68B1404607F03F
S315080060F005FB48B1484607F001FB28B109F042F80C
S3150800610010B1287804F003F9384603F0FDFA03F0D5
S31508006110F5FA044606F07AFF30B1404607F0EEFA83
S3150800612010B1687804F0F3F8204603F0EDFA04F0AD
S31508006130DAF918B940F26B1100F035F802F0C8FE2A
S31508006140BDE8F08738B504F0E6FA28B109F0CFF8CB
S31508006150441EA441E40F00E0012406F088F9002853
S315080061600CBF0425002506F051FF48B1454807F045
S31508006170C5FA28B1444807F0C1FA08B1002000E082
S3150800618002204649097801B12021424A127802B113
S315080061901022434B1B7803B140232C43204308436A
S315080061A01043184332BD0FF2181009F03BB938B541
S315080061B0044636480068007B03280BD2204609F0BF
S315080061C0CDFB4FF6FF75A84204BF204609F014FE22
S315080061D0A84204D12046BDE8324003F054BD32BD82
S315080061E070B504460D464FF6F870844201D3012077
S315080061F070BD264E3CB93068007D800703D428461A
S315080062000AF03BF9A8B9306841888C4205D10822C2
S31508006210011D2846FFF786FA0BE0007B03280AD201
S3150800622020460AF0A9FAFF2805D029460AF0C7FA37
S3150800623008B1002070BD2946204603F065FD401EC2
S315080062408041C00F70BD11480068008A70470F4929
S315080062500968088270470D480068408A70470B49EC
S315080062600968488270470948006800787047000046
S3150800627096070808E9780020D77F0020A49501082A
S31508006280747F00208C7800205C780020DC7C00205D
S31508006290E87600205078002034780020E477002043
S315080062A0007F0020537461636B2F486172647761C5
S315080062B07265204D69736D617463680D0A0000008C
S315080062C07A69676265652D737461636B2E63000076
S315080062D0B4780020BDE20008507D00205948010826
S315080062E0987800206D3B0108F87C002019F4000816
S315080062F01C79002047600108E4770020C17A00086D
S31508006300F47700207D7B00085078002025EB0008F4
S31508006310847C0020477100080C780020FD83000863
S3150800632068780020F1160108847F00201D8C01087A
S31508006330E47C00207B020108087F0020A77A010878
S31508006340447D0020238C0108EC7C00203D260108B2
S31508006350D87D00204D070108F8780020DDE8000800
S31508006360007F002059BE0008CC7C00207BA40008D2
S315080063707C7F00201F7C0108747F00201192010891
S31508006380D47C00207FA50008000000000000000063
S315080063909C490870704710B582B09A4C00A92078BD
S315080063A0FFF7BEFC98BB207893A19DF800200A2A27
S315080063B018BF0D2A02D0202A03D010E000F028F8D2
S315080063C013BDFFF70DFD607801190979F9B1401C75
S315080063D06070C0B208281AD10FF23C2112E0FFF70C
S315080063E0FFFC607801190A79112A09DA00EB001016
S315080063F0854C00199DF800401454501C087113BDB3
S315080064000FF234212078FFF7EBFC00F047F813BDB4
S315080064102DE9F84301267B4C78A12078FFF7E0FCAC
S315080064202079002838D00025DFF8DC81DFF8DC91F8
S31508006430774F0DE056B100F03BF909EBC50040680F
S31508006440804700F035F93878401CC5B2681CC5B2DB
S31508006450387885421ADA59F8350001460022037859
S3150800646002E0521CD2B2135C002BFAD1012600209E
S3150800647006E0435C10F808C0634518BF0026401CB8
S315080064809042F6DB002AD5D10026DFE726B90FF2BF
S31508006490C4112078FFF7A4FCBDE8F14338B5002401
S315080064A0594D112104EB041040190AF05FFA641CD7
S315080064B0082CF6DB5348011D002200230CC142704C
S315080064C054490A684EA10078BDE83840FFF788BCF1
S315080064D070B500224C4E03780BB9012070BD1346E7
S315080064E05A1C10F8014BDBB201EB0115AD195B5DC7
S315080064F09C42F0D0002070BDA0F13001C9B20A2933
S3150800650001D208467047A0F16101C9B2062938BF11
S31508006510573805D3A0F14101C9B2062902D2373846
S31508006520C0B270470020704738B501EB0112364BF0
S31508006530D21802EB4004092901D3002032BD607845
S31508006540FFF7DAFF05462078FFF7D6FF05EB0010C0
S31508006550C0B232BD70B52B4941180A790021012312
S31508006560002400EB0010284D465D2D2E0BD101248A
S3150800657009E0521ED2B24619965D303EF6B206FBC7
S3150800658003110A2673439442F3D3084670BD10B527
S315080065900446092C01D3002010BDFFF7DBFF04EBEE
S315080065A00411194A895C2D2904BF00B2404200B281
S315080065B010BD10B50446092C01D3002010BDFFF705
S315080065C0C9FF04EB0411104A895C2D2904BF80B267
S315080065D0404280B210BD10B50446092C01D30020F4
S315080065E010BDFFF7B7FF04EB0411074A895C2D2994
S315080065F008BF404210BD0000256300000D0A0000D8
S3150800660025703E00C0770020F07B0020F456000875
S315080066108C760020907600200D0A4F5554204F4660
S315080066202053455249414C20434D44204255464645
S3150800663045520D0A000000000D0A4F5554204F46DA
S315080066402053455249414C20434D44205350414321
S31508006650450D0A00636F6D6D616E64206E6F742060
S315080066607265636F676E697A65640D0A00000000DB
S315080066702C480068C00702D442F6E060704745F629
S31508006680C050704780B5FFF7F3FF2749096801B97D
S31508006690400802BD80B5FFF7EBFF400802BD02F0D7
S315080066A0FCB92248012181604EF6BE21416000E016
S315080066B01F48012101607047A52805D11B484DF6E2
S315080066C0AD6141600221016070471848006810F00A
S315080066D0010018BF0120704780B5164810210160D7
S315080066E0154800781549164A58B103280CBF0020EA
S315080066F00120106040F651000860002002F0DAFB25
S3150800670006E0022010604FF40060086002F084F989
S315080067100C4807210160002101640B481021016023
S31508006720002002BD1C4000402040004000600040A0
S315080067300860004080E100E0D37F00200C60004044
S315080067400800004014A0004000E100E080B500F019
S3150800675008F880B202BD80B500F003F80002000C0C
S3150800676002BD10B502F0CAFF30490A68496841EA15
S31508006770024402F0C9FF2E48017831B12D49096853
S315080067808C4202D12C48406810BD00210170204679
S3150800679010BD2A480721016027480121017070476A
S315080067A02DE9F84304460025206810B9FFF7AAF931
S315080067B02CE002F0A3FF00F02CF8206810F1010F7E
S315080067C01CBF401C2060FFF7CCFF81461C4821688F
S315080067D0494489B2416021684944090C0160164E52
S315080067E03570164F02203860386400F017F801201B
S315080067F00AF093FB3D64307838B98525FFF7B1FF79
S315080068002168081A4844206000E025602846BDE84B
S31508006810F28380460B481021016070470A48102110
S315080068200160404602F070BF0000000010600040A2
S31508006830147B00201C7B0020987C002014A00040BC
S315080068401860004080E100E000E100E0C10803298B
S3150800685008D2C1104902154A012300F0070003FABD
S3150800686000F050507047C108032908D2C1104902E8
S315080068700F4A012300F0070003FA00F05050704752
S3150800688010B5044602F03AFFE10803290AD2E110DE
S31508006890084A02EB41210A68012304F00704A340D1
S315080068A05A400A60BDE8104002F02EBF14B00040FE
S315080068B010B000400CB0004000281CBF0620FFF7AF
S315080068C0C5BF0620CFE70000FEB506460D461746AB
S315080068D0234CA16829B1082201A8FEF723FF01A8C5
S315080068E0A06037B9FFF7AFFC6188814218BF01275E
S315080068F000D1002730460AF0F8FC00AB3A460146BC
S3150800690030460AF03FFB10BB0120207003F0EDFD76
S315080069109DF8002061682846FDF70DFD03F0EBFDA4
S315080069209DF80000FF2818BF06F0FEFB6DB96068E9
S31508006930C18848F240021140402906D1217849070A
S3150800694003D4FF21408807F0DCF900202070F7BD4A
S315080069500348017811B94FF6FF70704740887047B1
S315080069608C7C002057480068408870475548006866
S31508006970001D704753480068C07E704770B5514D7A
S3150800698029684873504C514E022817D100F0A2F8D6
S3150800699068B92868007B04283CBF304603F0F0FB42
S315080069A02868007B03283CBF204603F0E9FB2868DB
S315080069B04069C00054BF9024BC240AE000F08AF85D
S315080069C010B10AF0AFFD03E03070207003F033FE1B
S315080069D09124204605F04DFA20B92046BDE87040BE
S315080069E003F0D1BD70BD37480068407B00F00F004A
S315080069F0704734480068407B00F00F00022801D138
S31508006A00012070470020704738B5044600F062F848
S31508006A1020B12046BDE832400AF078BD294DFFF77F
S31508006A20E8FF28B92868407B032801D0932032BDA7
S31508006A30FFF711FC20812868C07BA0722868807B3C
S31508006A40E072204601F033FC0020207304F11401A3
S31508006A5004F110000AF085FDE081002032BD10B572
S31508006A60002300E05B1CDBB28B4205D210F8014B19
S31508006A709442F7D0002010BD012010BD80B5082132
S31508006A800BF002F908B1002002BDA52002BD0D4891
S31508006A900068407B01281CBF3128332801D101201A
S31508006AA070470020704710B504460BF0B0FB10B9CC
S31508006AB004490968CC7310BD02480068807B70479A
S31508006AC000000000DC7C0020087F0020E47C002019
S31508006AD005F0DBBB80B5FFF7C6FB032801D1012013
S31508006AE002BD002002BD80B5FFF7F4FF38B140F2C1
S31508006AF02B110FF20C00BDE8044008F093BC01BD51
S31508006B00656D6265722D737461636B2D636F6D6D50
S31508006B106F6E2E630000000070B50446CD4D2878D0
S31508006B2010B903F0F8FD08B9012070BDCA4E0BF084
S31508006B3067FB30710BF067FB7071C84800883081BD
S31508006B4005F095FC707005F0A4FC3070C448016827
S31508006B50090901F00101B1700068C00900F00100DF
S31508006B60F070C0484178B171002141700120287049
S31508006B70BD480460002005F0AFFC002005F0BCFC11
S31508006B800020BDE8704005F087BC70B50024B14D03
S31508006B902878012833D102F0B1FD06462C70B24898
S31508006BA00460AD4DA87805F097FCE87805F0A4FCDC
S31508006BB0304602F0A9FDAB48A9794170287805F05E
S31508006BC06BFC00B104466878012808BF05F0F3FBA2
S31508006BD028890BF051F900B1044695F90500A34E32
S31508006BE03168C8730BF013FB00B104462879316885
S31508006BF088730BF0FDFA00B10446204670BD0120EB
S31508006C0070BD10B5934C2078012801D0012010BD25
S31508006C1005F0DCFC02201EE010B58E4C2078022818
S31508006C2001D0012010BD05F0F2FC13E010B5894C27
S31508006C302078012801D0012010BD05F0B5FC0320FD
S31508006C4009E010B5834C2078032801D0012010BD37
S31508006C5005F0B2FC01202070002010BD2DE9F04798
S31508006C6080468A467B480078012818BF012020D133
S31508006C7000267F4F42F2107402F040FD8146002044
S31508006C803870404605F042F90546484602F03CFD94
S31508006C908C2D03D038780028FCD001E0641EEBD197
S31508006CA0FFF706FD761CB6B2B24501D3002DE1D03A
S31508006CB02846BDE8F08767490978012901D00120EF
S31508006CC070476A49096888730BF092BA0BF098BA4C
S31508006CD010B50C465F490978012901D0012010BD7D
S31508006CE00BF0CAF838B961480068C4732046BDE895
S31508006CF010400BF08CBA10BD80B55E4908700BF0D9
S31508006D007FFABDE802400BF073BA5A4890F90000C2
S31508006D1070470BF078BA2DE9F04F85B004468946DE
S31508006D2000254FF00A0A544F386880B20390A846E7
S31508006D300BF066FA8DF8100020460BF0FBF8B868E1
S31508006D4080B202904D4CA06AADF806002068ADF8F6
S31508006D5004004B4E3068ADF802004FF6FF72002172
S31508006D6008200BF03FF8ADF80000C02211460820B5
S31508006D700BF03FF84348007810B148F2607038616C
S31508006D804CF25C00F8640220A0620120206040F208
S31508006D904C4002F074F80120F06030607F200BF060
S31508006DA019FB039800F500403860FFF7DAFC8346C4
S31508006DB002E0B8F1000F04D10020706141F2111011
S31508006DC003E04FF0FF3070612F48306188F001080A
S31508006DD0012002F054F81A2DA8BF6FF0090A04DA48
S31508006DE015F1190FB8BF4FF00A0A55442DB202988B
S31508006DF02818B860FFF75CFCB9F1000FD9D0FFF787
S31508006E00B0FCA0EB0B008145D3D20298B86003987A
S31508006E103860BDF8020030600020F0600220206073
S31508006E20BDF804002060BDF80600A0620020F864E2
S31508006E304FF6FF72BDF8001008200AF0DAFF40F29C
S31508006E404C4002F01CF89DF8100005B0BDE8F04F64
S31508006E500BF070B8CD780020AE7F00202C7800208B
S31508006E6084200040FC7700200C790020DC7C002080
S31508006E70CE7800201E780020C01000406020004018
S31508006E802810004017780020EEEEFFFFDFF8D02C20
S31508006E901268127882420AD019B1012A03D102284F
S31508006EA005D000207047022A08BF0128F9D1012021
S31508006EB07047DFF8C41C0875704710B5DFF8A04C9A
S31508006EC02068407B112804D0B6210FF2100008F084
S31508006ED0A9FA20684121417310BD00006173736FE0
S31508006EE063696174696F6E2E6300000080B50220C5
S31508006EF003F0F7FA03F0FEFADFF87C0CDFF8601C03
S31508006F000968097B042903D3C17C491DC17404E0BF
S31508006F104FF47A71183003F03EF900F043BE10B50D
S31508006F20DFF8544C002060742078FF2803D006F060
S31508006F30FBF8FF20207010BD38B504460D4606F054
S31508006F407FF8007C00F00701400800F0380000EBED
S31508006F50410000F11102DFF8740C0068205CD2B21F
S31508006F6082420ADA831ADBB20F2B88BF0F2300206E
S31508006F7000902146284606F074F931BD1FB503F086
S31508006F8064FDF8B1DFF8F04B00A92078FFF7D4FFCD
S31508006F900020207661790DF1030001F0A7F8FFF7CC
S31508006FA0BEFF00F010F800F0C1FB007DC00702D557
S31508006FB00BF046FB08B90BF01DFD0BF040FB01205A
S31508006FC001F0BEF91FBD10B500F0B0FB017B032927
S31508006FD006D340884FF6FF71884208BF032008D0C1
S31508006FE0FFF7C0FC0446FFF7C1FC214602F0C6FDC8
S31508006FF00220FFF7C3FC0AF0ADFABDE8104000F026
S31508007000D5BD10B5DFF8704B2075FFF788FF002156
S315080070104FF6FF7001F061F9DFF8440B0068417B19
S31508007020032918BF002919D0332918BF43290FD1BE
S31508007030017B032906D303214173207DBDE8104057
S3150800704003F0A1BA207D03F09EFABDE81040BAE726
S3150800705021214173BDE8104001F038BA10BD80B552
S3150800706000F064FB002141734FF6FE70FFF7EFF85E
S315080070704FF6FF70FFF7F3F8DFF8FC0A007DBDE86E
S31508007080024003F080BA38B50446DFF8D40A00682F
S31508007090407B78B920894FF6FF7188420AD0DFF81D
S315080070A0300B00780A2805D103F026FA10B903F048
S315080070B025FA08B1702032BD214600F0D3FF05003D
S315080070C008D1012000F0B2FF002101200BF093FD4A
S315080070D0050001D0284632BDDFF8F80A007808B165
S315080070E008F027FD002208212046FFF7B8FC30B13A
S315080070F0042120460AF0C8FD08B9A52032BD0020A3
S315080071002074E081DFF8D00A6061204600F0CFF8ED
S31508007110054603F0B2F9DDE780B5DFF8C02A00219D
S31508007120117110B1FF2802D10120107007E001216A
S3150800713011708000411C89B2101D03F033F800F06D
S3150800714035FD002002BDDFF8940A002101710020F8
S31508007150E2E738B504460D46287B00280CBF4FF6F3
S31508007160FE70FFF770F82B4622460146012001B053
S31508007170BDE830402DE9F04180460F4616461C46CC
S31508007180DFF8DC592868407B00284BD1701EC0B256
S31508007190052847D2DFF8380A00780A2842D103F0D2
S315080071A0ABF900283ED103F0A9F908B1042E39D36A
S315080071B0207B032816D14FF6FE70874214D1012E84
S315080071C008BF002710D0022E2CD1FFF73CF84FF647
S315080071D0FC71884202D2FFF736F801E00CF0B4FAE7
S315080071E0074601E0012E1DD0B8F1000F0CD0207B18
S315080071F003280CBF01210021012E0CBF012000200D
S315080072000BF0F9FC002850D12146384600F02AFF39
S3150800721000284AD103F06AF903F05AF920B103F0BD
S315080072206DF908B1702040E02868407BDFF848799E
S3150800723033281EBF532800207875304600F0F6FE26
S31508007240DFF89069307820B103F058F908B908F0EA
S3150800725070FC207B032803D12046BDE8F04126E0D8
S315080072600822214607F10800FEF75CFA207B03286E
S3150800727028BF00203874FFF752FE94203875387CF2
S3150800728000280CBF01203120296848730020B874F3
S31508007290727801202968897B00FA01F103200CF035
S315080072A095FB10B1296800224A73BDE8F08110B534
S315080072B0044600220821FFF7D2FB08B1012010BDC1
S315080072C0FEF7C1FF00224FF6FF7100F0F4FE217CA5
S315080072D0204600F00BFF6269E189207C0AF06BF911
S315080072E0DFF87C080068007B012808BF0CF09EF9CF
S315080072F0FFF769FE002010BD002070B582B0054674
S31508007300DFF85C482068407B002802BFDFF8C00829
S3150800731000780A2801D0702076BD0AF00EF90028F8
S315080073203AD1DFF854682DB10222294606F1200029
S31508007330FEF7F8F900A800F09CFF08B1932076BD87
S3150800734000F01CFF48BB9DF8000000F06FFE2068A7
S31508007350007B012818BF022805D003280ED3002079
S3150800736000F0C7FF50B100F020FF2068007B03281B
S3150800737028BF06F032FEFFF726FE0DE0206813212F
S3150800738041730020B074052201202168897B00FA28
S3150800739001F105200CF01AFB002076BDFF22F8B596
S315080073A005460E461446DFF8B8070068017B012932
S315080073B026D0407B022818BF032821D1FFF793FB6C
S315080073C0DFF810084278314603200CF0FFFA060071
S315080073D017D13320FFF7D2FAFFF7A1FDDFF8987728
S315080073E0FEF739FFF880002D14BF022001203874FB
S315080073F007F1080000F05BFF0020B8747C7500E018
S3150800740070263046F2BD38B5044605F019FE054625
S3150800741020460CF0E6FC4419204606F0C0F84FF664
S31508007420FF5101402046BDE8344006F0BEB870B5AD
S3150800743084B0FEF708FF0646DFF83C470B212078A4
S315080074400CF0AEFC002100F048FFDFF81457FFF7F8
S315080074501EFB58B11EB14FF6F870864206D30CF0E3
S3150800746073F90646286840888642F8D03046FEF703
S31508007470EEFE092120780CF093FCFEF7F0FE2E684C
S31508007480307B052813D100F01DFF8DF80800207CFD
S3150800749000280CBF4FF4804244F2010201200090FC
S315080074A002AB4FF48061708806F05FFA0BE00620A5
S315080074B08DF8080000F006FF8DF8090000F0F9FACB
S315080074C0708809F070FE0646FF2E08BF002015D00A
S315080074D02868418830460CF0C2FC207C02281CBF74
S315080074E03046FFF790FF002300221146304607F08A
S315080074F0B5FE0446304605F017FE204604B070BDBA
S315080075002DE9F04186B0884616461F460C9C0D9D0F
S3150800751038B940460CF06AFD02AA03A908F03CFAFD
S3150800752003A807218DF808108DF80960310A8DF82F
S315080075300A108DF80B40019001200090042302AA3E
S315080075400121404609F02FFE0446FF2C1BD0414678
S315080075500CF085FC17B92046FFF755FF0DB92046F4
S3150800756011E0404608F044FA18B1204606F066FDD8
S3150800757005E0002300221146204607F06FFE20464C
S3150800758005F0D2FDFF2006B0BDE8F0812DE9F64FE3
S3150800759083B004461E460E9D00274FF6FF7856B167
S315080075A04FF0010B304609F03CFE814670784008E2
S315080075B000F0010A05E0BB4610460CF0B7FC814610
S315080075C0BA46DFF89C050068007B032880F0A58092
S315080075D0691CC9B29DF8100005F039FF054605F08B
S315080075E0020002909DF80C0018B9280658BF45F00D
S315080075F0800500F09BF8407B022804D1DFF8DC0503
S315080076000078204301D1022721E09DF80C0030B113
S31508007610B4F1010868EB08084FEAD87800E0B846E4
S31508007620BBF1000F03D0301D05F0B9FF01E04FF69E
S31508007630FF700121009143462A460146484608F054
S3150800764008F980464FF6FF70804508BF0127DEB16E
S315080076501CB94FF6FF70804504D1301D05F09FFF19
S31508007660014600E0414601200190009753464246F4
S315080076704846FFF745FF0298C0B250B94FF6FF716A
S31508007680484608F013FD04E03A46414648460CF0E1
S3150800769013FE002F41D10298C0B2F0B149464046C8
S315080076A008F025FD0E2101FB00F7DFF8B414096880
S315080076B0896A79184A7942F040024A7108F04AFD07
S315080076C0DFF89C040068806A381841796A064CBF5E
S315080076D041F0800101F07F014171F6B1DFF85C6C81
S315080076E09DF810003070FEF7AEFD0FF2380C6906F3
S315080076F048BF0CF1010CBAF1000F18BF0CF1020CCF
S3150800770002D10CB90CF1040C4B46424601469CF8D2
S3150800771000000CF043FEFF20307005B0BDE8F08F86
S31508007720000000000307000401050000DFF830042C
S31508007730006870472DE9FE4F0446884616464046BF
S315080077400CF05AFB8146DFF83054297C01B101213F
S315080077508DF80510DFF808743868007B05280CBF1B
S31508007760012000208DF8040044B1484609F059FD6F
S315080077708246484609F048FD834605E040460CF037
S31508007780D5FB8246DFF81CBC002000900423324655
S31508007790414602A805F065FD0DF1090005F0FFFE5A
S315080077A080469DF80B60B4B10822DFF8F81B5846EE
S315080077B0FEF702F800285FD13868407B022808BF28
S315080077C0002E08D14046FEF742FD0BF013F999202A
S315080077D002F0D9FE50E0FFF75AF900284CD09DF880
S315080077E005009DF80410084301D014B944E0002CA4
S315080077F042D11EB19420FFF704FC3DE0514638689B
S31508007800408808F074FC08F0A5FC524638684188A0
S31508007810404600F050FC3868417B012916BF3129E3
S31508007820112143214173022002F05AFE40F6B83175
S3150800783005F1180002F0AFFC06F0CFFB0020E87453
S315080078403868C17E21B905F1180002F099FC11E0EB
S3150800785034B199F80110890702D5FFF78FFB09E0C3
S31508007860007B042806D3052105F1180002F093FCD5
S315080078700620E874AD20287502F0FFFDBDE8F78FF5
S315080078802DE9FE4F04460CF0B7FA05460CF0FBFA54
S31508007890064606EB050920460CF0A3FA3518EDB2A4
S315080078A020460CF043FB804699F80070FFF712F962
S315080078B0002818BF072F14D105F1030A4FF6FF7BDE
S315080078C0A74E012F0ED0022F14D0042F00F0C1802E
S315080078D0062F15D0072F66D0082F22D07C2F00F050
S315080078E08180E0E000950023224600210846FFF744
S315080078F04DFED8E02A4621460020FFF71BFFD2E0BE
S31508007900404608F02BF8584503D0014640460CF08F
S3150800791084FC3068407B022802D1404601F04FFFC4
S31508007920C1E0691C00F0C1F807465FFA8AF100F069
S31508007930BDF88246A91D00F0B8F805465D45EFD0AA
S3150800794006F04BFB3068407B132808D100F02DFC6D
S3150800795020460CF0EBFA0146504608F0C8FB3068A2
S31508007960407B022818BF13281CD12846FEF76FFC57
S315080079703846FEF774FC0021002000F0B7FB4146AC
S31508007980504600F0AAFC7C48C078DFF81C1A08703C
S3150800799000F00CF93068417B132903D12321417388
S315080079A00CF08FF87FE03068407B022802BF894CD4
S315080079B02079002877D100F001FF054601202156DD
S315080079C08840C0EB00181FFA88F6002002F088FDF0
S315080079D095FBF6F006FB1050411C89B2201D02F0FB
S315080079E0DAFB60E099F80100652804BF99F80200FF
S315080079F06D2858D175480068205C5FFA8AF585427B
S31508007A0051D20822414601A8FDF78CFE00AB0022A0
S31508007A102946204609F0B6FA002844D19DF8000008
S31508007A20FF2840D0DFF8845901202870DFF80C6958
S31508007A30347002F05AFD9DF8001001A801F077FE97
S31508007A4002F059FDFF203070002028709DF80000D4
S31508007A5027E020460CF089FA0546DFF85409007835
S31508007A60FE2809D320460CF0D1F9000B00F00101DD
S31508007A70284601F062FE16E00FF67C100088ADF885
S31508007A80080000F016F8284609F08DFB0446FF2C7E
S31508007A9009D029460CF0E3F90021204602F086FDBC
S31508007AA0204605F041FBBDE8F78FC9B2204605F030
S31508007AB080BD002001900090022302AA0121704790
S31508007AC038B5022002F00DFD02F014FD2A4C002004
S31508007AD02076234D02F0B9FF28B12868C07E10B978
S31508007AE0FFF74CFA3AE002F0B0FF10B9FEF7CFFF05
S31508007AF048B1E07C38B100F035F8E07C401EE0740F
S31508007B0002F08BFD2AE02868407B132809D0FEF78F
S31508007B10BEFF30B92868407B11281CBF432841287E
S31508007B2003D1207DFFF76DFA18E0022818BF032855
S31508007B3003D0002818BF212810D10024DFF8745874
S31508007B4008E0204602F0D6FC002000F0F9FB02F01F
S31508007B50D2FC641C2878E4B28442F2D361E30000C4
S31508007B60DC7C0020C82104F1180002F014BBDFF801
S31508007B7048080021C1747047CC77002080B50020E2
S31508007B8002F0AFFC02F0B6FC124800210171DFF8E2
S31508007B9098040068417B022904D1007B032838BF7A
S31508007BA00CF0A9FBBDE8014002F0A5BC80B502F0C7
S31508007BB0A7FCFF2804D00948007810B1012000E08E
S31508007BC00020DFF8F817087001BD00009C76002039
S31508007BD090780020F077002000F8FF07807C0020CE
S31508007BE02DE9F04F8BB00446DFF8D4070068255C12
S31508007BF0204605F025FA0746B81D05F0D0FC0646CE
S31508007C0007F1090005F0CBFC834607F10B0005F0E8
S31508007C10C6FCADF8020007F10D0005F0C0FC804671
S31508007C204FEAD039FEF756FF18B1204609F078FC1E
S31508007C30E4E001A92046FFF77FF99DF80600C0F3A6
S31508007C40C30A9DF8050000F00F008DF80000202DEE
S31508007C50ACBF9DF812700027DFF8CC030068407BA4
S31508007C60022811D1FEF7F7FA83450DD109A800F0CD
S31508007C701EFB1C2D06DB08220DF1070109A8FDF7DE
S31508007C809BFD08B109F0C3FDB6F5004F02BF28F405
S31508007C90404040F6FF718842CAD11C2DC8DB00223D
S31508007CA008210DF10700FEF7DAFE00282FD1DFF8CC
S31508007CB014070078012826D1DFF80C0700788DF81C
S31508007CC01600ADF814B08DF817909DF800008DF8E1
S31508007CD020008DF8217008220DF1070106A8FDF78E
S31508007CE021FDFFF723FD407BDFF8505601281CBF16
S31508007CF033282C7002F0F9FB05A8FCF71AFBFF20C5
S31508007D00287002F0F8FBDFF8B056A87C002875D179
S31508007D10FEF7BDFE002871D00120687400220821F4
S31508007D2005F10800FEF79BFE10B1E888834508D0E8
S31508007D3008220DF1070105F10800FDF73DFD0028B1
S31508007D405CD1B9F1000F06D1B7480068407B3128ED
S31508007D5018BF332852D101219DF80000FFF796F885
S31508007D6000284BD09DF80400002802BF9DF80500A6
S31508007D700009022842D1AC480068017B9DF806201C
S31508007D80022902D1500709D438E0120606D405297B
S31508007D901EBF4088BDF8021088422FD1DFF82C6636
S31508007DA0DFF82CB62878FF2812D0687987420BD1DD
S31508007DB095F902009BF90010884209DB1ED1687804
S31508007DC03178884204D319E0381AC0B2812815D20E
S31508007DD0FFF7A5F82C70204605F098F930786870FA
S31508007DE09BF80000A87050460F2834BF0AF101001E
S31508007DF00F20E8709DF8000028716F710BB0BDE880
S31508007E00F08F2DE9FF41064688461746DFF8A84554
S31508007E100120A07404F028F800280BD1012E18BF01
S31508007E20002E08D102F061FB39464046FCF780FA7D
S31508007E3002F061FB9CE0FEF74DFE28B13A4641464A
S31508007E40304609F06CFB93E0774D2868407B232881
S31508007E500BD1FEF787FD0446FEF788FD214601F0A3
S31508007E608DFE0220FEF78AFD82E0002FFCD1212834
S31508007E701CBF0428532802D100F028FB78E0FEF73F
S31508007E8006FE002856D02678FF2E05D1607C0028ED
S31508007E900CBFAB20942060E02868007B032889414A
S31508007EA0C943C90F2079FEF7F1FF08B9982054E0B5
S31508007EB004F0AEFA052130460BF08DFF2968887369
S31508007EC002F0DBFA207C40BB2868007B052824D01A
S31508007ED000F0F8F98046092130460BF061FF0746A5
S31508007EE00B2130460BF05CFF424639460CF0C9F9C7
S31508007EF0B8B994202075022002F0F2FA2868417B6E
S31508007F00012906D0312918BF33290CD1007B042852
S31508007F1009D3FFF727FE03200AE0FFF788FA0028AF
S31508007F20E7D1942019E04FF41671FFF71CFE0020E4
S31508007F30E0741DE02868407B132814D100F016F978
S31508007F40BDF80000FEF78BF900F02FF92868017BD1
S31508007F50032905D3332141739620FFF752F807E02A
S31508007F60FFF731F804E0022E04BF404606F022FC73
S31508007F704FF4006007F0DAFB10B907F0C0F908B152
S31508007F800CF050FCBDE8FF811FB5044600208DF8B3
S31508007F900000FFF7CBFB007840F020008DF80100C9
S31508007FA0FEF798FD18B1204609F0BDFA3AE00DF142
S31508007FB0030000F07CF90322FF210DF10B00FDF709
S31508007FC0F4FB09F0E2FA8DF80E00DFF8E403007816
S31508007FD0FE2828BF0020DFF8FC130978091ADFF805
S31508007FE0F8231278DFF8F4331B789B1A9042B4BF53
S31508007FF0101A0020DFF8B0231278D20042F00402EB
S31508008000DBB2C0B2C018C9B28842B8BF42F080021B
S315080080108DF802200F2200A9204605F092F9401E8D
S315080080208041C00F04B010BDDC7C002038B5044682
S31508008030DFF8AC532868017BA14203D004732046BD
S3150800804002F09EFA1CB12868007B042805D302F0CA
S3150800805026FAFF2808BF012000D00020BDE83240DC
S3150800806004F01ABA38B504460D46E87A0B38C0B299
S31508008070102801D38A2032BD95F90A00FEF713FDB0
S3150800808008B18B2032BDD6480168EA7A8A7300683F
S31508008090A97AC1732046FEF7DAF84FF6FE708442D5
S315080080A00CBF4FF6FF702889FEF7D9F8C248298910
S315080080B0C180002032BD38B50C461546FEF7C7F814
S315080080C00BF016FB2946204600F007F9BA48017856
S315080080D0FF2918BFC07806D1C1480068007B01286F
S315080080E00CBF00200120B049087031BD7FB5044699
S315080080F00D4600F03BF8BA4E94B1BA4A002128461C
S3150800810009F059FA306801788DF80410007B8DF86B
S3150800811005000822214602A8FDF704FB08F07FF9AE
S315080081203068817B8DF80310C07B8DF80200FEF75E
S3150800813092F8ADF80000FEF786F8ADF8060000F0F4
S3150800814017F87FBD1FB5044600F010F81CB10020D3
S315080081508DF8050007E0FEF776F8ADF80600FEF79D
S315080081607AF8ADF8000000F003F81FBD00A833E068
S315080081701023072200A900200CF08EBD00B58BB095
S31508008180FFF7F4FFBDF80000ADF818009DF80300EE
S315080081908DF81B009DF802008DF81A0004A9BDF899
S315080081A00600FFF75FFF0BB000BD1FB5012000F00A
S315080081B0A0F8044608F03EF9FFF7D8FF1CB90022DC
S315080081C04FF6FF7103E0FFF7B1FA021D4188BDF8CB
S315080081D00600FFF770FF1FBD102307220146012086
S315080081E00CF05ABD38B5062002F07BF9044602F0B9
S315080081F081F97B4D28687C490978817302F078F902
S31508008200A04208BF02F00FF900210020FFF76EFF19
S315080082109B2002F0B8F928680021A0F84410A0F8BD
S315080082204610BDE8314002F066B980B5A0F10B01F1
S31508008230C9B2102901D38A2002BD69490968497B58
S31508008240022918BF032901D0702002BD66490870AB
S31508008250062002F045F90021644802F033FA20B1FD
S31508008260012808BFFFF7BEFF01E0A12002BD0020DC
S3150800827002BD1FB50446FEF72DFC18B1204609F0CD
S3150800828047F912E000A8FFF7A7FF9DF8050040B1DF
S31508008290062806D25249096809789DF804209142B1
S315080082A001D0932001E02070002004B010BD1FB556
S315080082B0044600A8FFF790FF082202A92046FDF70A
S315080082C031FA1FBD4A48007800B140204449096880
S315080082D0097B484A895C08437047414A13685880B5
S315080082E019B90822181DFDF760BA0822181DFDF7EE
S315080082F019BA10B584B004462F4890F82000C00774
S3150800830011D50A230A2200A901200CF0C5FCBDF8E4
S3150800831008004FF6FF71884205D00822FF2100A801
S31508008320FEF79DFB08B1002006E024B100A9BDF8C0
S315080083300800FFF7D2FF012004B010BD0478002022
S3150800834070B584B004461C4D95F82000C0070CD5BE
S31508008350234E306841884FF6FF72914207D10022BA
S315080083600821001DFEF77BFB08B1002017E044B189
S31508008370022002F0B5F8782105F1180001F012FF85
S315080083800CE030684188ADF808100822011D00A8E5
S31508008390FDF7C8F90A230A22FFF7ECFE012004B00C
S315080083A070BD0000787C0020E27F00208C7C0020D5
S315080083B0CD7F0020E8760020CC770020E37F0020E0
S315080083C09C76002090780020DE7F0020DC7F00204D
S315080083D0DD7F0020197700204678002044780020A9
S315080083E0DC7C002000F8FF07D67F0020E581000826
S315080083F0CE95010864FD00080460000080B5DFF82A
S315080084003C0300210171042002F06BF802F072F8B7
S31508008410DFF82C030068407B042814BF532800F0BB
S3150800842055F8BDE8014002F066B880B5FEF75BFB7B
S315080084300020BDE8024045E0F8B5C14C23685D7BE5
S3150800844005F00F06002D18BF212D07D01D7B012D25
S3150800845001D1850602D4B94D2F790FB17020F2BD2E
S315080084602A70A981012E04D12120587300F02EF814
S3150800847026E081064CBF53210421597321680A7BE3
S31508008480032A27BF4A8800F020004FF6FD7200F045
S31508008490A0000146104600F016F92068407B042823
S315080084A004BF0120FFF74EFE042002F019F82068E9
S315080084B0007B03282CBF02210821281D01F072FE2B
S315080084C00020F2BDFF224FF6FF71B5E780B506F032
S315080084D05FFA06F019FF05F00CFF9A4800780A289B
S315080084E01CBFBDE801400BF0ECBA042001F0F8FF10
S315080084F001210FF20D00BDE8044002F0E3B80000C8
S3150800850010B5042001F0EDFF01F0F4FF8C4C206853
S31508008510417B532906D10321417300210120FEF72F
S315080085203DFF26E0042918BF212922D10120FFF7A3
S3150800853009FE4FF6FE70FDF78AFE4FF6FF70FDF74F
S315080085408EFE0020FFF772FDFFF730FB02F058FAA7
S3150800855003F08CFC2068407B212802D1FEF77FFDC2
S3150800856007E00020FEF70AFA00214FF4004007F062
S3150800857053FF01F0C0FFBDE8104001F07EBF2DE9B2
S31508008580F84380460E46511CC9B2304604F05FFFD8
S31508008590054630460BF030FC0646B01C04F0FFFFDB
S315080085A0814605F04004664F3868017B032903D3EA
S315080085B04088804503D023E04069C00120D42000CC
S315080085C010D07078000708D5304608F01DFE08223E
S315080085D05D49FDF7F1F8002802E0FDF734FE814514
S315080085E03DD107E003290CD34FF6F870814508DB27
S315080085F0280606D50122414605F0A000FFF71CFF14
S315080086006CBB3868007B032829D27078C00626D54B
S31508008610304608F006FE05462946002007F0CBF846
S315080086200646FF2E04D000F01CF8304607F06DFA17
S31508008630404607F00EFCFF2818BF07F0A9FCFDF717
S3150800864002FE60B901F051FF4FF6FF730222294678
S31508008650404601F05EF8BDE8F14301F04CBFBDE8C5
S31508008660F1831CB507F088F9044600A907F0E2F97A
S3150800867050B1FDF7E8FD38B1FEF77CF920B10222CA
S3150800868000A920460AF00BFD13BD38B504460D4671
S315080086900BF0ACFCFF2801D1012032BD284909683E
S315080086A0C97E49B12949096831F81010490403D52A
S315080086B007F02BFA002032BDFFF7D3FF45F0400143
S315080086C02046BDE8344030B585B0044601F0400583
S315080086D004208DF808008DF8091045B103A9204635
S315080086E007F0A8F908B9012025E003A800E0002052
S315080086F001900095022302AA0121204608F053FDA5
S315080087000546FF2D08BF182015D04FF6F87084428D
S3150800871006D3002300220221284606F09FFD03E027
S315080087202146284602F006FB441EA441E40F2846CB
S3150800873004F0FAFC204605B030BD00000878002099
S31508008740DC7C002090780020787C0020B876002019
S3150800875038B504460BF050FB0546204608F042FDA6
S31508008760411CC9B2204604F072FE697809070AD589
S31508008770284608F049FD0146002007F01CF8BDE828
S31508008780324007F0C2B940065CBFBDE83140FFF78A
S3150800879035BE31BD81B209B94BF6EF610E4A11807B
S315080087A0000C08BF4FF6CE2050807047028813048D
S315080087B048BF4A40510001801046704738B5064CFC
S315080087C062212046FFF7F2FF054641F20B01A01C85
S315080087D0FFF7ECFF684032BD2277002030B583B042
S315080087E0044610467F2808BF0020B1F5004F1AD16D
S315080087F008237F2240F6120100A8FFF7EFFF0822A0
S315080088000FF2C40100A8FCF7D7FF30B908237F226E
S3150800881040F2A27100A8FFF7E1FF082200A920464E
S31508008820FCF780FF37BD1A461F4D294300FB03118D
S315080088302046FCF777FF37BD2DE9FC440C46154664
S31508008840194941EA00060FF2740AC00702D56221E7
S3150800885000F030F8E80702D5632100F02BF813483A
S31508008860864204D3A819401E1149884202D36421BE
S3150800887000F020F8002706E0B85DFF2802D06B213B
S3150800888000F018F87F1CAF42F6D36A082146304636
S315080088900CF0B3FA28B171215046BDE8FC4406F045
S315080088A0C1BDBDE8F38400000000080800080808F8
S315080088B000100808504606F0B5BD00006D66672D25
S315080088C0746F6B656E2E6300FFFFFFFFFFFFFFFFF0
S315080088D062F30F2262F31F42401810F0030308D018
S315080088E0C91A1FD3DB0748BF00F8012D28BF20F897
S315080088F0022D130030B414461546103928BF20E956
S315080089003C00FAD8490728BF20E90C0048BF40F8C0
S31508008910042D890028BF20F8022D48BF00F8012D34
S3150800892030BC7047C91818BF00F8012DCB0728BFFF
S3150800893000F8012D70470000DFF8F80351210160A7
S3150800894070472DE9F0410546FDF79CFEFA2190FB9C
S31508008950F1F64FF4F070B0FBF6F73FB21E2D01DBCF
S31508008960E81B04D5A8B2BDE8F04100F088BA00F0CB
S31508008970C5FE80460CF086FADFF8BC0307210160C5
S31508008980002141608160DFF8B4134FF000720A607D
S31508008990E91B09B27143C91C8908491E416000F0E8
S315080089A0AEF8DFF890733C68386820F0400038600D
S315080089B00CF06AFA3C602E600CF06AFA0CF070FA59
S315080089C04046BDE8F04100F09FBE38B50546FDF7C4
S315080089D059FEFA2190FBF1F44FF4F070B0FBF4F075
S315080089E02D1A2DB21E2D04DA8A210FF2943006F0C4
S315080089F019FDDFF844030721016000214160816009
S31508008A00DFF838134FF000720A6005FB04F1C91C41
S31508008A108908491E416031BDDFF82403B0F900001A
S31508008A2000B970472DE9F0410024DFF818532C608F
S31508008A30DFF8146334604FF4A040706041F29A087E
S31508008A404046FFF77EFF6F68FDF724FE00010A2106
S31508008A50B0FBF1F000F5C870C01B00B24FF44871C6
S31508008A6090FBF1F000F3030030604046FFF769FF22
S31508008A7008274046FFF765FF686804197F1EF8D186
S31508008A80FDF708FE4FF4FA414843211DC908B0FB1B
S31508008A90F1F080B27060BDE8F081DFF8A402B0F9A9
S31508008AA0000000B9704738B56FF00F04DFF89C5224
S31508008AB00120A8602C608020FFF743FFE868FF28A4
S31508008AC002D8641C102CF5DB31BD70B5DFF88002C6
S31508008AD0016841F0010101600121416000F00EFECC
S31508008AE0044600F00CF8DFF84C02512101602E60B4
S31508008AF00CF0CEF92046BDE8704000F005BEDFF860
S31508008B0054522E6828684008400028600CF0C0B906
S31508008B1000207047F8B5014640F2DC500446884A02
S31508008B20B2F900708D4D8C4E012F15DA0220308176
S31508008B302860A86900F00300032857D0002F03D542
S31508008B40A86940F00200A8610846FFF7E1FF0400A3
S31508008B501BD1002F4AD547E031894FF6FF77B94236
S31508008B601CD102237F227E48018806F10800FFF700
S31508008B7035FE3089B84204BF02203081A8698007D3
S31508008B8003D4A86940F00200A861012070703089FA
S31508008B90286020B2FFF719FF2046F2BDAA6992079E
S31508008BA0EFD57278002AF8D1A86810F00100AA68F3
S31508008BB003D10F2909D2491C06E0920705D5327957
S31508008BC01AB1032901D3491E31813071308902282F
S31508008BD03CBF02203081286831898842D5D1A869EE
S31508008BE000F00300032801D0FFF76FFF0020F2BD55
S31508008BF02DE9F047804600244E4D564E00F07EFD86
S31508008C0081460CF03FF94046FFF784FF08B9012476
S31508008C100AE000F04CF8D5F800A000F0ABF8C5F86B
S31508008C2000A037600CF034F90CF03AF9484600F029
S31508008C306BFD002CE2D0BDE8F0870220D8E710B51E
S31508008C403D48002141608160016821F00201016010
S31508008C503A484FF0007101603F4C607848B10020F7
S31508008C6060700620FFF754FF3548B0F90000012868
S31508008C701CDBA078012814D13A48012101603A4941
S31508008C800968C90748BF03200FD40221A170016CE7
S31508008C9041F001010164354804210160344801604E
S31508008CA010BDA078042801D10520A07010BD376832
S31508008CB030684008400030600CF0EAB82DE9F84307
S31508008CC0254C2078002830D0E07800282DD11C4883
S31508008CD0B0F90000012820DA40F2CD310FF2A000E9
S31508008CE006F0A0FB19E000F009FD80460CF0CAF872
S31508008CF0A07805280CD0174EFFF7D9FF0D4DD5F8EB
S31508008D00009000F037F8C5F8009037600CF0C0F80E
S31508008D100CF0C6F8404600F0F7FCA0780528E2D12A
S31508008D20002060700520FFF763FF00202070BDE873
S31508008D30F18300000080004010E000E004ED00E050
S31508008D40B4950108104000400C000040084000405F
S31508008D501C40004094ED00E03878002004400040B4
S31508008D60C695010818A000400C40004080E200E0CB
S31508008D7000E100E0286820F0400028600CF084B884
S31508008D80636C6F636B732E630000000010B57B4C39
S31508008D9000200CF0E4F840F68C218842206834BFA5
S31508008DA040F0080020F00800206010BD10B582B021
S31508008DB0044600F05FF800A8FFF710FD9DF80100D3
S31508008DC09DF80010FF2902BFFF280420002104B1E6
S31508008DD0801CC0B2082828BF0720082928BF0721F9
S31508008DE0674A136823F4607343EAC010106010687A
S31508008DF0C00851EAC000106013BD00B583B0022355
S31508008E007F226048018800A8FFF7E8FCBDF800004B
S31508008E104FF6FF7188420EBF4FF4E1600A2190FBBE
S31508008E20F1F0ADF8000003F030FAC0071FD500F0E6
S31508008E3021F801A8FFF7D2FC9DF80500FF2808BF16
S31508008E400420811CC9B20829A8BF0721C1F12F0235
S31508008E50BDF80030C0F12F0002EBD272521000FBB1
S31508008E600320C1F12F01B0FBF1F0ADF80000BDF809
S31508008E7000000EBD02237F2243480188704770B563
S31508008E800646424C2568FDF705FCFA2190FBF1F0F1
S31508008E9070432F303021B0FBF1F0032809D3616D00
S31508008EA041F0010161652168491B0903090B8142EB
S31508008EB0F9D370BD10B5040004D110BD4FF47A7013
S31508008EC0FFF7DDFF2046441E80B20028F6D110BD0C
S31508008ED02F48017869B9C078072818BF092814D01F
S31508008EE0032818BF112810D013281CBF15280B28D3
S31508008EF00BD02848016841F480720260C80504D482
S31508008F0038210FF2A00006F08DBA704738B50C4626
S31508008F1020B1012819D003282CD02DE01E4D94B17C
S31508008F201E48844204D0CA210FF2840006F07AFA59
S31508008F30FDF7B0FB4FF47A714843B0FBF4F0401EDE
S31508008F40B0F5005F0ED2286014E05CB1FDF7A2FB15
S31508008F504FF4FA61620801FB0020B0FBF4F0B0F5AB
S31508008F60003F01D3202032BD0D4900F001024A60BE
S31508008F7040080860002032BD212032BD00BC0040F8
S31508008F8018000040BE950108BC950108382000402D
S31508008F909607080838400040100004E020A10700A2
S31508008FA068C800407573625F6572726F722E6300DF
S31508008FB06D6963726F2D636F6D6D6F6E2D696E745B
S31508008FC065726E616C2E630070B52B4842782B492A
S31508008FD00B685B0723D5032A21DA00EB4203848852
S31508008FE09C810123847803FA02F222438270027874
S31508008FF0234C8AB1002503FA05F6164207D04570B8
S315080090007240027000EB4500808A206007E06D1C04
S31508009010EDB2032DEFD302E02260032242704FF631
S31508009020FF700860BFF35F8F70BD134800210170A1
S31508009030032141700021C170052101810021817041
S315080090400F4900220A604A604FF400428A601022E3
S31508009050CA60001D4861012088610320C86007486E
S31508009060042101644FF6FF71016006484FF4006160
S31508009070016008F0F2BE0000807A002010A80040C7
S3150800908004E0004000E100E038B514461D4601281A
S3150800909040D113293CBF0FF28020095C08096422DD
S315080090A0504301F00F010B2903D2884006E00A223B
S315080090B050430A46511ED2B20B2AF8D20146012065
S315080090C0FFF724FF38BB280907280CBF0020022019
S315080090D0012C08BF40F0180003D0022C08BF40F04E
S315080090E0080005F00F010229A8BF40F004007D49D9
S315080090F08860012008607C48016C41F4C04141F059
S31508009100090101644FF6FF7101607848202101606A
S31508009110002032BD212032BD012800D0704710B58D
S315080091207048006801280FD100F0E8FA0446704834
S31508009130016841F006010160012000F09CF8204614
S31508009140BDE8104000F0E0BA10BD012804D1684817
S31508009150016821F0060101607047012802BF6548D1
S315080091608369012B07D021207047C3685B07FCD5AC
S3150800917011F8013B036013465A1EDBB2002BF4D1EB
S31508009180C1684906FCD50020704710B50446FDF7AE
S315080091908FFA012C03D1584800684006FBD510BD4C
S315080091A070472DE9F043554951F82020544B554C4A
S315080091B0554D564EDFF83C8119E0B2F804E036F812
S315080091C010707F1EBE4526DAB2F800E096448EF887
S315080091D006C0178807F1010C35F810E09CFBFEF76E
S315080091E00EFB17CCA2F800C097887F1C9780D8F88A
S315080091F00C70BF073CD5D8F80C7017F03807D8F8AC
S3150800920000C0DAD05FEA077C08D45FEAC76C08D5E5
S315080092104FF0240E0BE04FF0230E08E04FF0270E18
S3150800922005E0BF064CBF4FF0250E4FF0010E51F872
S3150800923020C0075D37B9BCF8007023F8107000F835
S3150800924004E0D4E733F81070ACF8007000F804E0D6
S31508009250BCF802E0BCF8007077452FBFA7EB0E0EEE
S3150800926036F81090A9EB0E0EBE44ACF804E0BEE743
S31508009270BDE8F083704770B5254951F82010254A96
S315080092801C4B0FE04C886418A4791C604C88641C3D
S3150800929032F8105094FBF5F605FB16444C808C8882
S315080092A0641E8C808C8814B1DC686407EAD470BDAF
S315080092B0704738B50C4C0FE0256046F22970054218
S315080092C003D0A9B20120FFF76CFF41F6D60005428C
S315080092D01CBF0120FFF7CFFF2068216C11EA0005AB
S315080092E0EAD131BD54C8004008A8004000E100E0BA
S315080092F048A800403CC8004048C80040B077002055
S3150800930098770020947700200C5F00089C95010848
S31508009310A0770020045F0008306090C0C1C2C394E3
S31508009320C495C55C96C6AC9798990D002DE9F04191
S31508009330314C00202065314E4FF40055356002202F
S315080093402060E56000202065206D40F06000206503
S31508009350DFF8AC800E2000F01DF888F80000002029
S3150800936060654FF48047376004202060E760254831
S315080093701621016000206065606D40F06000606540
S31508009380162000F007F888F801001F4805600760F6
S31508009390BDE8F0810E2802D0162802D009E01B4845
S315080093A000E01B480068800900F0010080F0010019
S315080093B070470020704710B50F484FF40051C16040
S315080093C0022101600E20FFF7E5FF01460C4C2278CA
S315080093D08A4218BF21700DD1501E8041C00F2070DF
S315080093E021780E2000F0AAF92178481E8041C00F86
S315080093F0207021780E2033E014A8004080E100E0B8
S31508009400D17F002020BC004000E100E008B2004007
S3150800941008B4004010B506484FF48041C1600421E5
S3150800942001601620FFF7B6FF0146024C04E000BFB4
S3150800943014A80040D17F002062788A4218BF617064
S315080094400DD1501E8041C00F60706178162000F063
S3150800945075F96178481E8041C00F607061781620E2
S31508009460BDE8104000F06AB910B5044600F046F9A8
S31508009470484830210160484801604848016048482A
S3150800948010210160200A08BF2402464804804FF2D2
S315080094900F014180BFF35F8F43480021016041609F
S315080094A042484349016010BD42480168C90708D5CA
S315080094B0414903220A70016C4908490001640121E7
S315080094C001600168090703D5016C21F008010164F0
S315080094D0704780B5002000F009F830B9F5210FF281
S315080094E0EC00BDE8044005F09DBF01BD2DE9FC4434
S315080094F0324C414222688D1815F01F0108D0002809
S3150800950002D44842451903E04842401900F12005B3
S31508009510A5F120062A48A84224BF2A48864203D332
S31508009520EFF30880854201D300202DE000F0E6F82D
S3150800953082462548006810F0010718BF0BF058FD51
S31508009540206801468D4206D2A84224BFCD2100F8E4
