:020000040800F2
:10000000000400206F00000885000008850000083B
:10001000A70B0901000000000301005300200008A5
:1000200004030300930F000849120008CC060008DF
:1000300000000000000000000000000000000000C0
:100040000000000000000000000000007A01000035
:10005000FFFFFFFF09480068202100EA010028B1E6
:100060000748016842685FEA010D10477047FFF7D3
:10007000F1FF00F013F800F045F800002C000040FC
:100080000020000806E000005FEA000D70474448C9
:10009000008870474FF4017000F09CB838B54FF2FB
:1000A0000F04404D00F0C2F828B140F2052028802E
:1000B0006C80012032BD3C480068C00613D56888BA
:1000C000A0421CD1288840F2022188421CBF40F285
:1000D0000621884213D040F2011188421CBF40F231
:1000E000111188420BD0314C208A40F6A72188425A
:1000F00005D12068FFF7C8FF6068804700BF002077
:1001000032BD000038B5044672B629480168490876
:100110004900016000F0DAF8234800680009C107CF
:1001200054BF2449244902E0CD2201F8012B234A7F
:100130009142F9D32249234A234B03E011F8015B92
:1001400002F8015B9A42F9D32049214A002301E0D9
:1001500001F8013B9142FBD340F20521114A53883B
:100160004FF20F05AB420BD113888B4206D0C0076C
:1001700006D5180A012818BF022801D1194601E046
:1001800004B90021064801804CF23C30508000F058
:1001900077F94FF40170BDE8324000F01BB8000061
:1001A000600F0020000000202C000040002000080C
:1001B000FCED00E00000002098000020000400207A
:1001C000A81F000800040020380400203804002084
:1001D0006D0F00200D4930220A600D490A600D495B
:1001E0000A600D4910220A60010A08BF00020B498B
:1001F00008804FF20F004880BFF35F8F084800214E
:1002000001604160074808490160704730200040A4
:1002100030C8004030C0004010D000400000002036
:100220001C4000400CED00E00400FA05002070477F
:1002300080B500F04FFA00F0A1FA38B1092115207D
:1002400000F053FA0921162000F04FFA0121062090
:1002500000F04BFA062000F07AFC0121072000F0A4
:1002600044FA072000F066FC1648016821F01001EE
:10027000016001BD052800D9704710B5DFE800F026
:100280001721030F1C17104C2088411E2180C0B974
:10029000072000F069FC42F21070208010BD07209A
:1002A00000F055FC0620BDE8104000F05DBC0620C3
:1002B000BDE8104000F03EBC0620BDE8104000F054
:1002C00046BC10BD00BC0040620F002054485121C4
:1002D0000160704738B553498978042934BF42F624
:1002E000E06145F6C051FA22B1FBF2F44FF4F0712F
:1002F000B1FBF4F1451A2DB21E2DBCBF4FF40170B5
:10030000FFF768FF484807210160002141608160D4
:1003100046494FF000720A6005FB04F1C91C8908C8
:10032000491E416031BDF8B540F2DC54404D4FF6F6
:10033000FF773C4EB088B8421BD102237F223D4854
:100340000188301D00F026FCB088B84204BF0220AE
:10035000B080A869800703D4A86940F00200A861B2
:1003600001207070B08828602046FFF7B3FF204658
:10037000F2BDA8698007EFD52B480068C00348BFCD
:1003800000F03BF870780028F1D1A86810F0010067
:10039000A968B28803D10F2A08D2521C06E0890747
:1003A00004D5F17811B1032A28BF521EF07092B221
:1003B000022A38BF0222B2802868B1888842CFD191
:1003C000A86900F00300032808D0A86940F00100E4
:1003D000A8610120E8611248512101600020F2BDAE
:1003E00010B5044601E000F035FC2046FFF79BFF06
:1003F0000028F8D110BD0220F2E70B48002141602F
:100400008160016821F00201016008484FF000712D
:1004100001600448417809B1002141707047000033
:10042000008000400404002010E000E004ED00E043
:1004300004400040A21F00080078704730B5DBB0D0
:100440000446214636A800F01BFC002000904FF423
:1004500002638A4A36A901A800F09BFD0FF26022D0
:1004600001A90FF2682000F0EFFE054600F039F90F
:100470001DB12146284600F055FC28465BB030BD32
:1004800080B5FFF7B8FF00F013FF00F0EDFFFFF7B6
:10049000CFFE01F00DF801F097F840F20120FFF7D0
:1004A00099FE002002BDF8B504460F461546744E6D
:1004B0001D220FF2E411304601F0C8F90A227149F9
:1004C000301D01F0C3F908237F226F48018806F12F
:1004D0000E0000F05FFBB476522C1BD1352030703B
:1004E00006220FF2D41106F12E0001F0AFF901201F
:1004F000F07602237F226548018806F11C0000F097
:1005000049FB10237F226248018806F11E0000F09B
:1005100041FB02E01D203070F776012D04D120460A
:10052000BDE8F24000F0DBBF3046BDE8F24000F02D
:100530003DBFF8B5574C601C00F09FFF112807D154
:100540000A25082601F0C0F9400800F083FB03E00B
:1005500015281BD10E2504264A4F08222919B81C3C
:1005600001F074F902223119384601F06FF97878F8
:10057000397801EB002080B200F0B1FE0120B873A1
:10058000022200215220BDE8F8408CE7F1BD2DE9A0
:10059000F04180463B4C002060733E4E304600F0F8
:1005A000BCFEC0073AD5701C00F067FF070035D0CD
:1005B000781CC5B204220FF2F601A81901F05FF908
:1005C00060BB281D2073C0B2805D01280DD00328B8
:1005D0001CBF0428182811D0512808BFB8F1000FFB
:1005E0001CD1FFF7A6FF002019E045206073A07B17
:1005F00090B1112F07D106F20A0008E0B8F1000F00
:100600000CD00120F2E7152F06D106F20E000822C9
:10061000A11C01F034F910B1002060730120BDE885
:10062000F08138B50546174C607B10B90120FFF703
:10063000AEFF607B50B1207B1649415C2970401CA5
:100640002073607B401E6073002032BD012032BDEC
:100650000C480021417381730020704780B5002051
:10066000FFF795FF38B90748007B0A49405C01282D
:1006700001D1002002BD012002BD000008050020BC
:10068000D4040020C4040020A61F00089E1F0008F8
:100690009C1F0008380400200063CC00FFFF00000E
:1006A000000000000000FFFFFFFFFFFFFFFF7C6571
:1006B0006D0100000000000000040303530000006F
:1006C000091F0008451F000839040008DF0E000854
:1006D000170F00080E48012181604EF6BE214160CF
:1006E00000E00C4801210160704710B582080FF24C
:1006F000280353F82220136800F0030080000F2421
:100700008440A34301FA00F01843106010BD0000BC
:10071000006000400860004000B0004004B00040AD
:1007200000B4004004B4004000B8004004B80040E9
:10073000DFF848339860012018600020186058687E
:100740000028FCD118691040C8407047DFF82C33EE
:100750009860012018600020186058680028FCD1BB
:10076000186990431140084380B2D8600220186095
:100770000020186058680028FCD17047DFF800039B
:1007800080787047DFF8FC02DFF8F4128A780AB14B
:1007900049780FE089566FF008029142B8BF3021C6
:1007A00008DBC16D39B140F24A31C26DB1FBF2F1E3
:1007B00089B2C91E01607047F8B50546B04CB5F561
:1007C000004F18D102237F22AF4800F046F8BDF851
:1007D0000000000AFF2814BF002818206070BDF830
:1007E00000000006C00E10281CBF001D00F0D2F84B
:1007F000BDF80000C543E07808B1002005E0A089FD
:10080000ADB26840C00701D50120E070A58105F0B8
:100810000106C5F340079D48016841F400410160AD
:100820004FF440520FF2083000EB460040780103CD
:1008300089B22020FFF78AFF304601F055F84022A8
:10084000B90100F03FF92D06A80E00F00100384371
:10085000A070FFF797FF0020F2BD018800A800F00C
:1008600099B92DE9F04F87B0894C20780B38C0B288
:100870000090884D287801280CBF0026012601F041
:1008800093F88548007848B914237F22834801886B
:1008900001A800F07FF9BDF8069002E0804890F8CA
:1008A0000890804F386800F0020ADFF8FCB1DBF8EE
:1008B000000000F4E0687D484FF4E0610160002032
:1008C00001F04DF93EB13868400840003860012021
:1008D000287000F0BFF92878012808D1386840F066
:1008E0000100386000202870642000F0B3F9704DDA
:1008F000286820F480502860286840F40050286060
:1009000001F0A2F9064660880121009A91408843CF
:100910006080CBF8008001F0EFF9504601F01FF93C
:1009200001F09BFA48F260702860642000F092F9B0
:10093000F0B201F061F95FFA89F001F09BFA07B0BB
:10094000BDE8F08F01F055BA38B50546A5F10B04A6
:1009500001F0EBF8A5F10B00C0B2102801D38A20FA
:1009600032BD54488168090702D40068C00701D528
:100970008C2032BD464805704F4801680C2907D0CD
:10098000A4B20FF2441131F82410C161FFF769FFDE
:10099000002032BD2DE9F04186B006466FF02A00F6
:1009A000864246DB14237F223C48FFF756FFBDF802
:1009B00010004FF6FF71884203D0400448BF012564
:1009C00006D43F220021F020FFF7B2FE04460025A6
:1009D0002B483A4906F12B02D2B22F2A1AD21322FF
:1009E0000FF2241300E0521ED2B213F91270BE426D
:1009F000F9DB03EB420676780E6013F812100170F3
:100A00000020002680460327ADB14FF6BF72BDF827
:100A1000101029E0092E0CDA325C0A6006701423EB
:100A20007F222748FFF719FF03200126B046282719
:100A3000EAE78B201DE04FF46052C10200F042F85B
:100A40004FF4E062310200F03DF880224FEAC81115
:100A500000F038F884F020003C18A4B2402C28BFE5
:100A60003F243F2284F0200100F02CF8FFF78AFE9B
:100A7000002006B0BDE8F08100000000E810004052
:100A80001004002064100040A01F00081C1000404B
:100A90000A04002029040020640F0020941F00088D
:100AA000000000208020004000E100E080E100E044
:100AB000D010004060200040AC100040C01000404A
:100AC000961F0008A02041E6AA21290055232900ED
:100AD00000252800AA26270055282700002A2600DE
:100AE000AA2B2600552D2500002F2400AA30240013
:100AF0005532230000342200AA3522005537210048
:100B000000392000AA3A2000D500E601EC02EF03EC
:100B1000F204F405F506F707F808F909FA0AFB0BE1
:100B2000FC0DFD0FFE11FF1300160119021C031F1F
:100B300000000103C108032908D2C1108902124A2A
:100B4000012300F0070003FA00F050507047C1087D
:100B5000032908D2C11089020C4A012300F00700C2
:100B600003FA00F050507047C10803290BD2C1109E
:100B7000074A02EB81210A68012300F0070003FA0B
:100B800000F050400860704714B0004010B00040C2
:100B90000CB0004030B583B0044610467F2808BF33
:100BA0000020B1F5004F1AD108237F2240F6120130
:100BB00000A8FFF7EFFF08220FF2380100A800F0AD
:100BC0005EFE30B908237F2240F2A27100A8FFF731
:100BD000E1FF082200A9204600F038FE37BD1A4682
:100BE000034D294300FB0311204600F02FFE37BDC3
:100BF00000000408FFFFFFFFFFFFFFFF10B582B0FA
:100C0000044600F022F800A8FFF7C4FF9DF8010099
:100C10009DF80010FF2902BFFF280420002104B125
:100C2000801CC0B2082828BF0720082928BF072138
:100C3000104A136823F4607343EAC0101060106810
:100C4000C00851EAC000106013BD02237F220A4889
:100C50000188704709490A68032809D34B6D43F09E
:100C600001034B650B689B1A1B031B0B8342F9D3D3
:100C700070470000180000409A1F0008382000400C
:100C8000017001224270827001290CBF8021402135
:100C900081800021C1800181204801600E21816294
:100CA000016821F010010160002141634162704739
:100CB000F8B504460D46164619484FF0FF3101605D
:100CC000164FFE6200207862386840F001003860FC
:100CD000FFF707FD012C19D16DB900F04FFC78B971
:100CE000786AB042F4D3002EF2D038684008400051
:100CF00038601620F2BD284600F047FC0028EFD1EE
:100D000038684008400038600020F2BD022C03D152
:100D10002846FFF786FCF1E70120F2BD00E0004025
:100D200000A8004038B504460D4600F009F800F070
:100D300007F82A4621461820BDE83840FFF7B3BB24
:100D40002A4621461820FFF7AEBB30B583B00446D3
:100D5000002020814AF6B43200A92078FFF7A8FFCE
:100D600008B11C203EBD9DF80000032818BF1828BC
:100D700001D118203EBD042801D117203EBD012815
:100D800001D021203EBD002500E06D1CEDB2A18800
:100D9000091D8D420BDA40F2DD22281900F10A010B
:100DA0002078FFF785FF0028EFD026203EBD0025E4
:100DB000002006E00146EDB22819007B01F060F842
:100DC0006D1CA188EAB28A42F4D3A27AE37A9B1816
:100DD000FF2B01D022203EBD0B191D7BB5EB102F40
:100DE00001D023203EBD5B7BC0B2834201D02420D2
:100DF0003EBDA078824207D0401EC0B2824201D1DF
:100E000027203EBD25203EBD881C20810220E08099
:100E100000203EBD38B504466078012804D023D3B5
:100E2000032855D018D31FE02078012811D13B2585
:100E3000432000F054FB40F2DD2200212078FFF730
:100E400037FF30B12846451EC0B20028F0D11B2024
:100E500032BD0220607010E000F0AAFB00F03AF80A
:100E6000A078401CA07008E0182032BD2278A0783D
:100E7000411EC9B20620FFF716FB2046FFF765FFAB
:100E8000050018BF00F094FB272DEFD0A8060BD566
:100E90002278A1781520FFF706FB002DEDD1032065
:100EA000FFF7E8F9002032BD680603D4182D18BFFB
:100EB0001C2D07D121782846FFF734FF04206070ED
:100EC000284632BD172DE8D100F004F803206070E9
:100ED000172032BD2278A1780620FFF7E4BAF8B5D2
:100EE00004460D461646002706E0E088411CE180D6
:100EF0000019807A78557F1CBFB2B74209D2E088CA
:100F000021898842F1D32046FFF784FF0028ECD0E6
:100F1000F2BD0020F2BD10B504462046FFF77AFF6F
:100F20000028FAD010BD0000F8B504460D4616465C
:100F30001F4607E03046A047294600F0B3FF0546AC
:100F40007F1E761CBFB2002FF4D12846F2BD38B503
:100F50000C46154605E0014614F8010B00F0A2FF0F
:100F60006D1EADB2002DF6D132BDF8B504460D466A
:100F700016461F463A4631462868236898470400BB
:100F800005D13A463146E868FFF7E1FFE8602046C0
:100F9000F2BD10B5029C84720381426001604FF083
:100FA000FF31C1600021017410BD2DE9F84F0446E6
:100FB0008B461E469BF81B70802F28BF8027D06869
:100FC0009D49884250D1002E4CD0B06800904FF01F
:100FD000FF384FF000090BEB490A9AF848500FE030
:100FE000FF2D16D0FFF77DFB4FF40063E80240F0C1
:100FF000006241460098FFF797FF8046681CC5B223
:101000009AF84900A842EBDA09F10109B9F1060F93
:10101000E1DBDBF844006FEA0801884224D1A068D4
:1010200000BA7A08594673689847C8B9E06805BAA3
:10103000A06802BA3B464FF0FF31B068FFF774FF7B
:10104000C04385420CD140F6A720ABF81000A06841
:1010500000BA01220BF1100110307368984708B1F3
:10106000422002E0172000E04320BDE8F28F2DE986
:10107000F84F80460D469146D5F804A02889ADF872
:10108000000005F1140606F11007042352464046FD
:10109000FFF76BFF002870D1BAF8000040BA1FFAC2
:1010A00080FBBAF8020040BA84B2E00748BF46208D
:1010B00063D4B4F5026FC8BF4E205EDC002C5BD059
:1010C0005FEA0B000AD04FF60441BBEB010000F0D1
:1010D0009B80FF3853D0FE3851D0ABE0287C08B15C
:1010E00051204AE08D2C28BF4F2046D22346321D86
:1010F00000F0A7F8002840D1FA7E802A28BF80227D
:1011000002F10C00844201BFB08840BA00F47F4075
:10111000B0F5007F2CD1F08840BA4EF250318842B1
:1011200002BF388A40F6A721884202BF788A00F4BD
:101130007F40B0F5807F1BD1B06800BA3F49C969D4
:10114000884215D14FF6FF70388206F110014FF03A
:10115000FF30FFF7FCFEF16809BAC943884204BFBB
:10116000387E042804D1787E032818BF062801D0D1
:10117000452002E0012028740020BDE8F28F287C81
:10118000002843D0042300F05BF80028F5D1DAF8FA
:10119000000006BA201F84B22848C069864238BFC2
:1011A0004820EAD3A019796D884228BF4920E4D2AB
:1011B0004FF6035083450DD1B9F1000F0AD03146E7
:1011C0000220D9F80020904720B14A20D5E7E01B43
:1011D00084B2BE19002CCFD0BDF800008442B4BF49
:1011E000274607463B4600F02BF80028C5D1B9F149
:1011F000000FECD07A0851463046D9F804309847B1
:101200000028E4D04B20B8E7287C08B94120B4E797
:10121000042C18BF4C20B0D104236A6800F011F8E8
:101220000028AAD14B462A463946304601B0BDE8CF
:10123000F04FBAE64420A0E7E320BBDE0000000840
:1012400052462946404690E670B504460D4616467D
:101250002889C10701D4802803DA4F2070BDA87AFD
:1012600078B9324629462046FFF701FF0028F6D01C
:10127000172807D1286861688847172802D10020FD
:1012800070BD502070BD000070B504460D466878F2
:1012900000260146305D00F0F3FD06F0070120FA5C
:1012A00001F1725D51403155761C102EF1DB70BD9D
:1012B00080B5FEF7ECFE40F2062188420CBF01200B
:1012C000002060490870604882888A8082794A706C
:1012D000C07988700020BDE8024000F081BB5B4906
:1012E000086070475A485B49486008604A6889321C
:1012F0004A608C30C8608860C8688930C8605648C9
:101300004FF6FF7202605548026842F00102026027
:10131000102008630320086370472DE9F84F8046CA
:101320004FF0000A4C4E376817F4105F02D0FFF7F9
:10133000D9FF38E0474C17F0600F28D0B80647BFF8
:10134000256AD4F80090656AD4F80890A8B209EB31
:101350004000A0F1080B41480068800704D509F15E
:10136000010000F08AF890B19BF800009BF8011092
:1013700001EB002000F4B940B0F5804F07D16A00BE
:1013800092B24946404600F061FA4FF0010AB806B1
:1013900003D501202063202004E0780603D5022035
:1013A0002063402030605046BDE8F28F2DE9F041C7
:1013B00004462B4D286DC00748BF8C2040D42948D7
:1013C0000178E170491C017020202862224E4FF400
:1013D000807070606C602C6068687F306860092085
:1013E000A86700274FF6FF7804202862C6F804801B
:1013F00000F06AFA00F00F00C01CA8640D202865F8
:10140000706810F0110FFBD07068C007ECD56078E1
:1014100080060FD5706810F0820F04D13068800408
:10142000F8D5FFF75FFF7068800703D47F1CBFB259
:10143000042FD9D3C6F80480042F8041C043C00FC5
:10144000BDE8F081640F00200000002090200040E3
:10145000280D00200020004000A000408420004013
:10146000102000406A0F002080B5022100A800F083
:1014700092FC009800F014FA01BD4178007800EB6E
:1014800001204CF2070101404CF2030291420DD1C0
:1014900000F44461B1F5006F01D11120704700F4F0
:1014A0004460B0F5446F01D11520704700207047AB
:1014B00080B53C48682141610221816001210160C1
:1014C00009210920FFF711F904210A20BDE8044091
:1014D000FFF70BB9344800684006FBD57047334925
:1014E000CA685207FCD50860704710B5044603E08F
:1014F00014F8010BFFF7F3FF20780028F8D110BD96
:101500007CB500A90FF2B80218CA18C1052104223F
:101510000A230CE080B290FBF3F403FB1405EDB258
:10152000204600AC05F130060E5505B10A46491EAD
:1015300049B20029EED5D2B200A81018FFF7D5FFA6
:1015400073BD10B5044620090A282CBF373030304F
:10155000C0B2FFF7C4FF04F00F000A282CBF3730D9
:101560003030C0B2BDE81040B9E710B50446200ADB
:10157000FFF7E7FFE0B2BDE81040E2E70A48006885
:1015800010F0020018BF0120704710B50446FFF7A5
:10159000F5FF20B1054800682070002010BD012033
:1015A00010BD000054C8004048C800403CC800407E
:1015B00080B500A8FFF7E9FF0028FAD001BD0000C0
:1015C00030303030300000002DE9F84FFFF789F857
:1015D000FFF7EEFFFFF73CF85E4C0020FEF74AFEF7
:1015E0005D4D5E4E0FF2641B0FF2EC180FF2DC192A
:1015F0000FF2C81A1EE00FF26810FFF776FF0C27F3
:10160000708B384100F00F00FFF77AFF012FA4BF65
:101610002E20FFF764FF3F1FF2D54DA0FFF765FFB7
:10162000B6F84C00FFF76CFF0FF25410FFF75DFFA8
:10163000FFF7BEFFFFF755F80220FEF71BFEFFF78E
:101640000DF810BB5046FFF750FF0220FEF7F6FEE4
:10165000074660B90520FEF70DFE4846FFF745FF37
:10166000FFF738FF0120FEF705FEBDE8F18F0420EB
:10167000FEF700FE4046FFF738FF3846FFF775FFDC
:101680005846FFF732FFFEF7E3FF2046441E18B925
:10169000FEF7FDFCFEF79EFD00A8FFF776FF002891
:1016A000C8D19DF80000FFF71AFF9DF800000A2836
:1016B00018BF0D289FD0312804D03228D2D033282B
:1016C0002CD0B5E70FF21C10FFF70FFF0120FEF73B
:1016D000B5FE07460FF22010FFF707FF380004D1D0
:1016E0000520FEF7C7FD4846A0E70420FEF7C2FD2F
:1016F0000FF21810FFF7F9FEB80648BF0FF21810E6
:1017000005D478064CBF0FF228100FF23410FFF703
:10171000ECFE3846FFF729FF584687E70027584672
:10172000FFF7E3FE288A40F6A721884218BF0FF290
:101730007C00F2D1781990F824007F1C20B1FFF7CB
:10174000CEFEFFB2202FF5D3E6E700000D0A000021
:1017500020620000403CF803002000080000000860
:101760000D0A454D3335372053657269616C2F4F33
:10177000544120426F6F746C6F6164657220760013
:101780000D0A312E2075706C6F61642065626C0DDE
:101790000A322E2072756E0D0A332E2065626C207F
:1017A000696E666F0D0A424C203E20002A2A206E88
:1017B0006F20617070202A2A0D0A00000D0A4F5414
:1017C000412075706C6F616420000000636F6D7064
:1017D0006C6574650D0A00006572726F7220307856
:1017E000000000000D0A626567696E2075706C6FFD
:1017F00061640D0A000000000D0A53657269616C96
:101800002075706C6F6164200000000061626F726F
:101810007465640D0A0000000D0A584D6F64656D13
:1018200020626C6F636B206572726F72203078007B
:101830000D0A66696C65206572726F7220307800DF
:101840000D0A6572726F722030780000814212D2E8
:101850001018401E5118491E92B2002A1EBF11F8DE
:10186000013900F80139521EF6D1704711F8013BD9
:1018700000F8013B521E92B2002AF7D1704710B512
:1018800000E0521E92B232B110F8013B11F8014B48
:10189000A342F6D001E0002010BD181B40B210BDDD
:1018A00081B209B94BF6EF610E4A1180000C08BFF6
:1018B0004FF6CE20508070470288130448BF4A403C
:1018C000510001801046704738B5064C6221204611
:1018D000FFF7F2FF054641F20B01A01CFFF7ECFFFA
:1018E000684032BD00040020F0B589B004460020F5
:1018F000FFF784F90A237F222048018800A8FFF718
:1019000049F900264FF6FF750FF2880701E02A46D5
:1019100016B94FF47C4203E0022E08BF4EF23F029C
:1019200000A800F031F8761C052EF0D3012C03D16D
:1019300014237F22124802E014237F2211480188D9
:1019400003A8FFF727F900260FF250072A4608E000
:101950002A46012E08BF4FF6C07202D0082E08BFDB
:10196000002203A800F010F8761C0A2EF0D3012CF8
:1019700004BF0120FFF742F909B0F0BD981F00082D
:10198000961F0008941F000830F81610F05DFEF74F
:10199000DDBE000010F0B0C0D000000011203040CB
:1019A00060708090A0E0000010B584B00A237F2210
:1019B0000A48018800A8FFF7EDF84FF6FF74BDF85C
:1019C0000000A04204BF4FF40170FEF703FC224662
:1019D000BDF800101020FEF7B9FE1FBD981F0008CB
:1019E000F8B50446FEF7AEFFDFF8E0010021016024
:1019F000DFF8C0511521E960092101651F2141600F
:101A000001210166DFF8C0010088FEF7D5FE00F075
:101A100094F900F057FA00F08BF8DFF8B401DFF822
:101A2000B461DFF8B411097819B9022131700321CA
:101A300001704FF6FE716961DFF8A0110988296114
:101A4000696841F0D201696090F90000FEF7A2FFD9
:101A5000DFF85C7197F9030000F08DF830780B30F7
:101A6000C0B2FEF771FF18B14FF40170FEF7B2FB80
:101A7000012C05D12868C0070FD500F023F80CE031
:101A80005CB92868C00708D4286840F001002860C5
:101A9000C820FFF7DFF800207872DFF82041F1203E
:101AA000206440F2F910E06300F026F92868C007CE
:101AB00007D54FF6FF702060DFF8FC004FF4E061BF
:101AC0000160F1BDDFF818110A683948437A012B2B
:101AD00000D1704710B548F2D0030B604C68640524
:101AE00009D548F222040C604C68E405F3D50B607C
:101AF0004B685B07EFD492B20A6031494FF4E06261
:101B00000A6030490A6A520852000A620A6852089A
:101B100052000A600A6842F002020A604A6A42F011
:101B200001024A620121417210BD2148407A70478A
:101B30002C482D494A780B7813EB02220260CA78B0
:101B40008B7813EB022242604A790B7913EB022265
:101B50008260CA79897911EB0221C1607047154909
:101B600000280A6814BF42F0020222F002020A6052
:101B70001E490870704780B57F280ED102237F224E
:101B80001B48018800A8FFF705F8BDF80000C00554
:101B900054BFBDF800006FF04A0040B200F19A0156
:101BA0008905090C134A11600149C87001BD000084
:101BB000200400208020004000E100E004A000405C
:101BC00080E100E0602000401C0400205C10004028
:101BD000660F0020650F0020640F0020680F0020B2
:101BE0001C10004098200040580F002034040020B2
:101BF000A41F0008541000404FF4FE52810189B226
:101C0000B020FEF7A3BD80B5374908B14FF0FF30D3
:101C10004860086000F021F906210920BDE8044071
:101C200000F015B938B50120FFF7EDFF044600209C
:101C3000FFF7E9FF05460120FFF7E5FF4042001BE3
:101C400000EB450000B232BD2DE9F04F83B0274CC8
:101C5000A06A019020680090254D2E68254F48F21B
:101C6000607038604CF24C00F8630220A0620120E2
:101C7000206040F24C484046FEF7ECFF0120E8604F
:101C800028600020FFF7B8FFFFF7CCFF82467F20D7
:101C9000FFF7B2FFFFF7C6FF8346504600F01EF97C
:101CA0008146AAEB0B0000F019F98246B6B22E600D
:101CB0000020E8600220206000A80088206001A8C1
:101CC0000088A0620020F8634046FEF7C3FFFE20B4
:101CD00000FB09F01FFA8AF1B0FBF1F080B2401C62
:101CE000C003000CBDE8FE8F3810004060200040AB
:101CF00028100040D0100040DFF8000110210163DF
:101D0000DFF8FC100A6842F001020A60DFF8F41004
:101D100041600160426889324260012202638A3177
:101D2000C1608160C1688931C16002210163DFF84F
:101D3000D8004FF6FF7101607047DFF8D00045F220
:101D40006401C1601E21416250210162C821C1614C
:101D50008165F021C16545F6900141668821816663
:101D60000621C16644F2066101604FF6FF714160D1
:101D7000DFF89C0048F2607101604FF4C15141608E
:101D8000DFF89000016841F004010160DFF888008D
:101D9000002141707047F0B589B004460D4600211E
:101DA000032000F03BF804AE1BE0002700F045F8EC
:101DB00026F8170000F041F800A921F817007F1C51
:101DC000082FF3DB04A8FFF75FFA002020802188AA
:101DD00036F8102051402180401C0828F7DB6D1E8A
:101DE000A41CEDB2002DE0D100F037F8012009B0BD
:101DF000F0BD0321022000F011B8000000200040D7
:101E000084200040440E002000A000404C10004000
:101E1000D0100040802000406B0F0020124A136C4D
:101E200023F008031364090341EAC01040F00100E5
:101E30000E4908600820106070470B4801680907C8
:101E4000FCD5082101600A48006880B2704780B55F
:101E5000FFF7E4FFBDE80140EFE7044801684908E7
:101E6000490001607047000018A000400470004065
:101E7000007000403F2201462020FEF767BC0000B2
:101E80000A0242EA11214840C0F30311484080EAA7
:101E900000304101C9B20206D20E41EA0221484097
:101EA00080B270470A0A4840C0B208214308C00700
:101EB00046BF034858401846491EF7D15040704766
:101EC0002083B8ED08237F22024801880248FEF7EC
:101ED00061BE00BFA61F0008580F0020002848BFA1
:101EE000404270472848018A40F6A772914202BFDB
:101EF000418A4FF47F40014204D102298041C0430E
:101F0000C00F704700207047F8B504460D461D4EBF
:101F100001203070FFF7E6FF18B94FF40170FEF7AB
:101F200059F91948876A294644F48070B847002156
:101F300031700FF2580618B9294644F40070B847BA
:101F4000805DF2BD2DE9F041044688465600FFF75A
:101F5000C9FF18B94FF40170FEF73CF90A48476A07
:101F60000023324641462046B8470FF2200520B9EB
:101F70003346002241462046B847405DBDE8F08127
:101F800000000000D3040020000004080002020248
:101F90004B4B4647AA07BE07D207DC072A083A0878
:101FA0003C08EE08F6080080EFBECEFA0000000103
:101FB000FFFF0B0000000000031800001316191C9F
:101FC0001F000000008000000000007F010000FFF3
:101FD00000010000000000000000000001000000FF
:101FE000FFFFFFFFFFFFFFFFFFFFFFFFFFFFFFFF01
:101FF000FFFFFFFFFFFFFFFFFFFFFFFFFFFFFFFFF1
:102000001026002045FC0008A9FB0008ABFB0008D7
:10201000A70A080100210008040303AC00537A0159
:10202000DA6A8F530000000000000000000000008A
:1020300000000000000000000000000000000000A0
:102040000000000038665E110424FFFFFFFFFFFF61
:10205000FFFFFFFF00E0020800000000000000009A
:10206000C3653F013F825E40FFFFFFFFFFFFFFFFB1
:10207000FFFFFFFFFFFFFFFFFFFFFFFFFFFFFFFF70
:10208000F02F002000000000EA2F0020EA2F00209F
:1020900010260020302001089CFE0008B01C002003
:1020A000800600200000030800300020FFFFFFFF33
:1020B000FFFFFFFFFFFFFFFFFFFFFFFFFFFFFFFF30
:1020C000FFFFFFFFFFFFFFFFFFFFFFFFFFFFFFFF20
:1020D000FFFFFFFFFFFFFFFFFFFFFFFFFFFFFFFF10
:1020E000FFFFFFFFFFFFFFFFFFFFFFFFFFFFFFFF00
:1020F000FFFFFFFFFFFFFFFFFFFFFFFFFFFFFFFFF0
:102100001026002045FC0008A9FB0008ABFB0008D6
:10211000AFFB0008ADFB0008B1FB000828FC00087D
:1021200028FC000828FC000828FC000828FC0008FF
:10213000B3FB000828FC000865FE00084D8000087D
:10214000E1DB000828FC0008B591000828FC000825
:10215000078F0008217B000828FC000828FC0008E5
:102160008DB90008419C0008038C00088584000894
:1021700028FC0008AB87000809880008C73C000855
:10218000DD40000828FC000828FC000829FC0008A5
:1021900070472DE9F84F04460026DFF808580FF283
:1021A000840100F0D1F80FF2AC2A0FF2585B0FF265
:1021B0004458DFF8F49704E0514600F0A7FE701C85
:1021C00086B237012268B9184B6828789BB1BA5893
:1021D0004B4503D1414600F099FEF0E78B68594624
:1021E00000F094FE20683818C2682878002AE3D0EE
:1021F0000FF21851EFE70FF2A00100F087FE0FF287
:10220000C00100F0A1F80FF2E80100F09DF80FF214
:102210000C1100F099F851462878BDE8F44F00F011
:1022200075BE0000434F4D4D414E44205B5041521E
:10223000414D45544552535D205B2D204445534349
:1022400052495054494F4E5D0D0A202077686572FF
:10225000653A20623D6275666665722C2073313D79
:10226000696E7438732C2073323D696E7431367325
:102270002C2075313D696E7438752C2075323D699E
:102280006E743136752C2075343D696E7433327539
:102290000D0A0D0A0000000020202120202D2052D0
:1022A0006563616C6C732074686520707265766913
:1022B0006F757320636F6D6D616E640D0A000000B1
:1022C00020205B7461625D202D20417474656D7007
:1022D000747320746F2074616220636F6D706C651D
:1022E000746520636F6D6D616E640D0A00000000FF
:1022F000202020202A2A204E4F54453A20616C6C21
:1023000020696E7075742076616C756573206172DA
:102310006520696E20686578210D0A002020202044
:102320002A2A20436F6D6D616E647320617265208F
:102330004E4F5420636173652073656E73697469D1
:1023400076650D0A00000000287800F0DFBDA0F1DE
:102350004101C9B21A293CBF2030C0B270472DE9F3
:10236000F84F05460024A8680068C0B2DFF83C16A4
:10237000096810F80180A346DFF82866B8F1210F3C
:1023800009DB20220FF2D0013078BDE8F84F00F0D1
:10239000BDBDBDE8F18F00F071FE8246A14607E0A9
:1023A00019F80A00FFF7D3FF09F80A0009F101093B
:1023B000C145F5DB42460FF2E401504601F000F959
:1023C00040B94FF0010B05E03A460FF2D8013078E2
:1023D00000F09CFD20012968421852681300D8D0F3
:1023E000641CA4B2DFF8C0954A45F3D14758BBF14D
:1023F000000FE9D1384601F0F5F84045EAD14246F0
:102400005146384601F0CEF80028E3D10FF2D82823
:102410000FF2F82B0FF2940A04E0414600F076FD2B
:10242000641CA4B22701286839184A68130018BF31
:102430004A45AED08B683A585146307800F066FD78
:1024400028683818C2683078002AE6D0594600F06B
:102450005DFDE5E70D0A00004572726F723A206C6F
:1024600069737420617267756D656E7420746F6F27
:10247000206C6F6E672C207765206F6E6C792073EF
:102480007570706F727420757020746F20257520C0
:1024900062797465732E0D0A000000006D6F64751B
:1024A0006C65730025700D0A000000002570202562
:1024B0007000000070B588B00446DFF8F454A068DE
:1024C00000682870DFF8EC64A068406830700FF294
:1024D000580001F069FADFF8E004A168C9680170EA
:1024E000DFF8D814A26812690A70097807910FF210
:1024F00060010691007805900FF25C0004900120C5
:1025000003907AA00290307801900FF2540000906E
:102510002B780FF2540204F111010FF2540001F074
:1025200043FA08B070BD00005475726E696E672082
:102530006F66662074616773206E6F7420796574AE
:1025400020737570706F727465640D0A000000006E
:10255000746578740000000064656C696D000000AB
:10256000636F6D6D616E6400686561646572000023
:102570007B264E20566572626F73697479206F7086
:1025800074696F6E732073657420746F3A0D0A2638
:1025900074750D0A2674750D0A2674750D0A267455
:1025A000750D0A2674757D0D0A000000007CDFF8A9
:1025B000101451F820200FF20C01DFF8E803007826
:1025C00000F0A4BC4349204572726F723A20257016
:1025D0000D0A000038B5DFF8CC4343A500F02AFA15
:1025E0000FF22C0100F027FA00F024FA0FF2440158
:1025F00000F021FA3EA100F01EFA0FF2440100F0B3
:102600001AFA0FF248012078BDE8344000F07EBC91
:10261000456D626572204E6F646520546573742049
:102620004170706C69636174696F6E2076312E3011
:10263000000000004A756E20203420323031340012
:1026400031393A35313A3331000000000D0A0D0AB4
:10265000000000002DE9F74F0446276B0026DFF845
:10266000448305E020A100F051FC761CB6B210377F
:102670007868B8B33D68DDF804904FF0000A0CE0CC
:1026800019F8010BFFF763FE834615F8010BFFF7FE
:102690005EFE8345E9D10AF1010A9DF808001FFAA0
:1026A0008AFA8245ECD3350120682A58291898F80F
:1026B00000004B68DFF8F0C2634504D10FF234012B
:1026C00000F024FCD1E78B680FF2380100F01EFC0B
:1026D00020682818C26898F80000002AC2D00FF2BB
:1026E0002C01EDE7BDE8F78F0D0A0000746167006B
:1026F0002C2000002D2D2D2D202570202D2D2D2D51
:102700000D0A00002020257020257000202D202596
:10271000700D0A009CB00EA80FF2A821342201F01F
:1027200073F94FF000098DF8019001F099F9A52097
:1027300001F0B6FB01F0FEFB012300220F21104641
:1027400000F076FA050006D0012300220A21104687
:1027500000F06EFA0546012300220F21184600F012
:1027600067FA060006D0012300220A21184600F06D
:102770005FFA0646012300220F21022000F058FADA
:10278000070006D0012300220A21022000F050FA9F
:10279000074601F033FD834C55B1002E66D0002F63
:1027A00067D040F2B9110FF2502001F02DFD03E087
:1027B000002E18BF002F5FD000202070201D02F0D7
:1027C000FDFA201DFFF706FF0FF23C2500F032F95D
:1027D0000FF26C2100F02FF96FA6314600F02BF9B3
:1027E000201D02F05BFD00F025F90FF2602100F0E2
:1027F00022F9314600F01FF9201D02F0C6FD00F05D
:1028000019F90FF2542100F016F9314600F013F9CE
:10281000201D04F0D0F800F00DF90FF2482100F06F
:102820000AF9314600F007F9201D04F0E7F800F03E
:1028300001F90FF23C2100F0FEF8314600F0FBF800
:10284000201D04F0F8F800F0F5F80FF2302100F048
:10285000F2F8314600F0EFF8201D04F08CFC4FA593
:102860004FA60FF2AC170DF104083EE027B101208E
:10287000A3E70220A1E725702078FF289ED100253C
:1028800000A9284600F012FA38B99DF800000D287A
:1028900018BF0A2818BF2A28EDD06D1CEDB2032DF1
:1028A000EED3E9E78DF800009DF8001011F808203C
:1028B000481C0A2A18BF0D2A18BF002AF2D10D227F
:1028C00001F808208DF800009DF8002001A9201DC6
:1028D00002F080FA9DF8002001A90EA800F018FE71
:1028E0009DF8009000208DF80100394600F0A3F813
:1028F0000DF10103322201A9207800F01EFA002810
:10290000D0D001F0C9FA04F013FF9DF8010028B3FC
:1029100001A9401810F8010C09281FD1314600F018
:102920008AF89DF80100401E8DF801009DF80120F5
:1029300001A9201DFFF78EFE9DF80100002100F87F
:102940000810394600F077F8002004E000F06CF839
:102950009DF80000401C00F05FF8F7D39DF80400DC
:102960002128C5D1314600F066F84A460EA901A8D3
:1029700000F0CEFDA9F101008DF80100394600F00C
:102980005AF8002000F048F8B2D200F04DF89DF857
:102990000000401CF6E700005D0D0A002563000002
:1029A0000D0A00001026002091210008A826002012
:1029B00048260020492600204A2600204B260020D9
:1029C000802700200D000000000000000000000033
:1029D00000000000000000000000000000000000F7
:1029E00000000000000000000000000000000000E7
:1029F0000000000000000000706C6174666F726D72
:102A0000746573742E6300005B494E4954200000C6
:102A10000D0A3E20000000008DF800009DF8000027
:102A20009DF801108842704710F808202946207848
:102A300000F06CBA2946207800F068BA0020704790
:102A40006372617368696E666F000000696E697415
:102A5000546F6B656E730000726573657473747286
:102A6000696E6700696E6974526164696F00000085
:102A700073656564506E7267000000007365745082
:102A800065725465737454780000000070B5134685
:102A9000101802E0A4192C705B1EDBB24BB101F0E0
:102AA0000F060909451E28460A2E34BF3024372454
:102AB000F0E7101870BD2DE9F04F87B080468946C9
:102AC00014469B4601AD002701A88DF800001BE0CD
:102AD0005BF804AB04224FEA1A412846FFF7D6FF01
:102AE00004221FFA8AF1FFF7D1FF054605A88542A7
:102AF00009D39DF800002E1A00F096F8002831D175
:102B0000F719FFB201AD641C9DF800002E1A207861
:102B1000002807D0252802D005F8010BE6E714F8B5
:102B2000010F002876D02528F6D0322818BF342887
:102B30005FD0582857D063280CD0642818BF6C2861
:102B400025D0702818BF732807D075281FD0782883
:102B500049D0CBE75BF8040BDEE75BF804AB00F091
:102B600063F800285CD1F719FFB201AD002600E040
:102B7000761CF6B216F80A000028F9D13246514602
:102B80004846C04700284BD1F719FFB2AEE75BF8C3
:102B9000040B0021002803D52D212970012140427A
:102BA000002300224FF0000C02E0801B0CF1010C0E
:102BB0000FF2A44656F82260B042F6D243EA0C0661
:102BC000F6B2002E05D0C9B20CF130034B55491CAA
:102BD0000123521C092AE5DBC9B230304855481C94
:102BE000C0B2451982E75BF8041B0222C9B228462D
:102BF00079E714F8010F78281CBF5828641EF1D11A
:102C000014F8010C32287FF463AF5BF8041B042234
:102C100089B2ECE700F008F810B9F019C0B200E092
:102C2000002007B0BDE8F08FF2B201A94846404746
:102C30002DE9FC4E0446894692469B46042C27D03B
:102C400026D20FF2FC30205C012821D1DFF8E053BE
:102C500005EB8406F76804F00DFE0021B980398089
:102C6000798004F00DFEF66904F004FE0021B180C5
:102C700031807180615504F003FE04F050FF5B4623
:102C800052464946204602B0BDE8F04E04F0FCBD75
:102C90002120BDE8F68E10B5044604F001FFDFF8F0
:102CA000900300EB8400C069808810BD2DE9F041DD
:102CB00088460446DFF8785305EB8401CE690FF2AD
:102CC0008031615C09B9012035E005EB4407615DA5
:102CD00061B1B9887288914208D104F0CBFD665D7C
:102CE0000021615504F0CCFD304624E004F0D8FE0C
:102CF000B088F8B104F0BEFD71888919897988F827
:102D000000107188491C0FF2443232F8142000F090
:102D1000E4F87180B188491EB18004F0B1FD605DB6
:102D200030B1B8884FF6FF71884204BF3088B88050
:102D3000002000E02620BDE8F081F8B504460F46EB
:102D400016461D46287808B1B04208D300203870D6
:102D500005E02878411C29709DF80010C15500A994
:102D60002046FFF7A3FF002855D19DF800008028DA
:102D7000F5D2287828B99DF800100A2918BF002933
:102D8000EDD0B04207D3002028709DF800000D2838
:102D900018BF0028E3D09DF80000082818BF7F283E
:102DA0000CD128780028DAD0401E2870C0B200214B
:102DB000C1558EA1204600F04AF8D0E72878801C43
:102DC0008642BCBF0D208DF800009DF8000000F089
:102DD00023F89DF800006138C0B21A2804D29DF88B
:102DE000000020388DF800009DF800000D2818BF65
:102DF0000A28AED128780021C1559DF800000D2881
:102E000004D10A2000F008F8002602E00D2000F0AE
:102E100003F82E700020F2BD8DF8010001220DF1A3
:102E20000101204686E070B582B004460D46164684
:102E300000208DF8000001E001F02EF800AB3246D2
:102E400029462046FFF779FF0028F5D176BD2DE908
:102E5000F84F83460D465E460FF2E410305C0128C1
:102E600038D1734800EB8600C76800240FF2E418DD
:102E70000FF2D0190FF2C01A15E004F0FBFCB9886C
:102E800001B901243988C91915F8012B8A713988CB
:102E9000491C39F8162000F020F83980B988491CFF
:102EA000B98004F0EDFC287878B1B8883AF81610AB
:102EB0008842E2D31CB1584604F030FD002416F8D5
:102EC00008000028F1D1222005E0584604F026FD34
:102ED000002000E00120BDE8F28F91FBF2F302FB3D
:102EE0001311704751A111E010B500240FF25013D7
:102EF000C35C012B08D113460A4601460FF2350088
:102F0000FFF7D9FD00B90124204610BD0CB480B5EF
:102F100002AAFFF7E9FF02BC5DF80CFB0CB438B560
:102F2000044604AAFFF7E0FF05462046FFF7DAFF54
:102F3000284678E02DE9F84F80468B4616464746EE
:102F40000FF2FC00385C01283AD1394800EB8700C9
:102F5000C46800250FF2FC090FF2DC0A17E004F048
:102F600089FCA18801B90125218809191BF8012BC9
:102F70008A712188491C0FF2CC0232F81720FFF722
:102F8000ACFF2180A188491CA18004F079FC304667
:102F9000461EC0B278B1A0883AF817108842DED336
:102FA0001DB1404604F0BAFC002517F809000028BE
:102FB000F1D1222005E0404604F0B0FC002000E002
:102FC0000120BDE8F28F80B50FF27402825C012A05
:102FD00006D1174A02EB8001C9688A88002AFCD111
:102FE00004F0F0FC002002BD0000000008200800F2
:102FF0000CB438B504460D4604F0BCFC04AB2A46BC
:1030000021460C48FFF757FD0FF23401615C01299E
:1030100008D1074901EB8400C068808810B12046C0
:1030200004F07CFC002032BC5DF80CFB0D0A0000B3
:1030300054270020857900088000800080008000EF
:1030400001010101800080008000800040004000FC
:10305000400040000101010100CA9A3B00E1F50572
:103060008096980040420F00A086010010270000C3
:10307000E8030000640000000A000000DFF86014AC
:10308000096801EB40107047DFF85824126881543A
:1030900070472DE9F041040032D004F0EBFBDFF87B
:1030A0004814DFF84854DFF84824FF231678FE2E32
:1030B0001DD100261670DFF83C6437782F7000278A
:1030C000DFF834C409E007F1010E07F808E0DCF886
:1030D000008007F808305FFA8EF796F800E0D1F824
:1030E00000807745EFDB0EEB080606F8013C2E78F2
:1030F000A64207D204F0C4FB00211B2004F0C2FD4D
:10310000FF201FE0361B2E701578DFF8F07316785D
:10311000D7F800C04FF0010E06F80CE0D1F800C05F
:1031200016F80CE082F800E0641EE4B2002CEED148
:1031300006F80C30DFF8AC13096800226A5404F07A
:103140009FFB2846BDE8F08110B5044604F092FBD1
:10315000DFF8A8130968625C521C6254BDE8104095
:1031600004F08EBB2DE9F041044600F032F805462C
:1031700004F080FBDFF87823DFF87033DFF8686352
:10318000DFF8788311E03168615C002704F80E7085
:103190001F787F1C1F70D6F800E0177804F80E70B7
:1031A0001470FF2904D12C46FF25FF2C01D10CE01F
:1031B0000C46D8F80010675C7F1E6754D8F800E012
:1031C00014F80E107F273942DDD0BDE8F04104F03D
:1031D00057BB80B5DFF824130968415C090603D5A5
:1031E000FFF74CFF007802BDFF2002BD70B582B032
:1031F00004460D4605F11F0000F013F90646FF2EA8
:103200000DD0DFF8E002006835543CB10120009099
:103210002B4600223146204600F002F8304676BDAB
:10322000F2B582B0054616461F46089C0846DFF8F0
:10323000B4120968405CB919884203DA4FF4B071DE
:1032400000F0D4F85FB1314602A800F0D3F8009442
:103250003B4602469DF80810284600F001F8F7BDED
:103260002DE9F8430546894616461F46DFF8788261
:10327000089C0BE04A5D0A54491CB142FADBBF1BB3
:103280007519D8F8000019F800900026FFB2BFB1F8
:103290004846FFF7F3FE3018F1192029B2BF3E4629
:1032A000C6F12006F6B2324624B90146284600F09F
:1032B0002FF9E4E7012C08BF2946F8D00021DCE70C
:1032C000BDE8F1832DE9F04182B00446884616003E
:1032D0001F46DFF810020068255C0ED07119C9B2D4
:1032E000204600F04FF808B1182007E00097334659
:1032F0002A4621464046FFF793FF0020BDE8F681AD
:103300000123DFE70A4600E0521C1378002BFBD1B3
:103310000223521AD2B2D5E7F8B5044601F11F00D4
:10332000C5042D0E02F11F00C004000E05B90125D1
:1033300000B90120854223D0DFF8AC61854210DA64
:10334000401BC0B2FFF7A5FE0746FF2F01D10020AA
:10335000F2BD691EC9B2204600F026F83168475414
:103360000EE08A420CD2411EC9B2204600F01CF881
:1033700004463068205CFFF7F5FE3068FF212154D9
:103380000120F2BD70B504460D46DFF858612A46AB
:103390003068215C2046FFF7BFFF18B13068255424
:1033A000002070BD182070BD04E0491EDFF83821F0
:1033B0001268805CC9B20029F7D1704711B581B09D
:1033C0000C46DFF820110968405C844203D34FF4B7
:1033D000F47100F00BF8214601A800F00BF8044648
:1033E0009DF80400FFF74AFE201816BD0FF21010DA
:1033F00000F00ABF38B504460D46E904090E2078EE
:10340000FFF7D2FF207005F01F0032BD80B5FFF737
:10341000D5FF007802BD10B51446FFF7CFFF04704A
:1034200010BD0004400DC0B233E670B500F00BF8DB
:1034300000F005F8007800EB062080B270BD067839
:1034400029462046BAE704460D46691CC9B2B5E7CD
:103450002DE9F5411F46089CA4B24CB3254689B21C
:1034600000A8FFF7C7FF0646B9B201A8FFF7C2FFE1
:1034700007463046B84238BF3846C0F12000C0B2D7
:10348000A842B8BF05469DF80400FFF7F7FD804647
:103490009DF80000FFF7F2FD2A4607EB08013018FF
:1034A00000F036F8641BA919EF19A4B2002CD5D18D
:1034B000BDE8F38170B504460D4604F0DBF90E4A11
:1034C00012682378FF2B08BFAD5403D09B181E78D9
:1034D000AE541D702570BDE8704004F0D1B90000F5
:1034E000A4260020A8260020B0260020A126002027
:1034F00050270020A0260020B4260020AC26002063
:103500007061636B65742D6275666665722E63000B
:10351000814233D21018401E5118491E10E0121F6C
:1035200011F8013900F8013911F8013900F80139B1
:1035300011F8013900F8013911F8013900F80139A1
:1035400092B2042AEBD292B2002A1EBF11F80139BE
:1035500000F80139521EF6D17047121F11F8013BD5
:1035600000F8013B11F8013B00F8013B11F8013B69
:1035700000F8013B11F8013B00F8013B92B2042A2C
:10358000EBD292B2002A1EBF11F8013B00F8013BBA
:10359000521EF6D17047130003D00A46194604F0B4
:1035A00075BB704710B500E0521E92B232B110F8F0
:1035B000013B11F8014BA342F6D00FE0002010BDF3
:1035C00010B500E0521E92B232B110F8013B11F872
:1035D000014BA342F6D001E0002010BD181B40B201
:1035E00010BD000000F10103810704D010F8011B99
:1035F00089B18107FAD10268B2F10131914311F02A
:10360000803F04BF50F8042FF6E710F8011B11B1FA
:1036100010F8011BFBE7C01A7047000038B50446DC
:10362000206A611D451AEAB220792368984708B1DB
:10363000002032BD94F82900281884F8290004F2EB
:1036400005002062012032BD38B50446002500E0A7
:103650006D1CEDB2685C0028FAD12A4620792368F7
:10366000984730B994F82900281884F829000120D7
:1036700032BD002032BD2DE9FE4F04460D46924674
:1036800004F20500206204F1200604F215007060C7
:10369000002070724FF00A0BDFF83C8315E018B180
:1036A00004F2050020620D46B9F1000F04D000F0CD
:1036B0005BF97D2100F8011D206A7168884203D3FF
:1036C00000F058F9002868D06D1C2878002800F018
:1036D000428198F80110252818BF26280FD07B2892
:1036E0001CBF7D28232807D10029E5D03168491C5B
:1036F000316001F8010DDFE798F80210F4E715F8E2
:10370000012F252A18BF262A03D100F02DF9297888
:10371000D0E726280CD159B14FF001096E2A18BF05
:103720004E2A12D000F020F97B2100F8011D01E0A3
:103730004FF00009002029784E2906D0542929D0BD
:103740006E2902D0742925D037E05AF8047B98F806
:1037500000000028B0D0B9F1000F07D0206A7B210B
:1037600000F8011B411C21622821017000F002F9C0
:10377000002812D000F0F5F800280ED0B9F1000FA3
:103780009AD0206A292100F8011B411C21627D2169
:10379000017091E700F0ECF8002873D000F0E1F838
:1037A00000286FD000F0E6F800286BD000F0DCF8BD
:1037B0003A2100F8011D01206D1C29783039C9B269
:1037C00095F801E08A1E052A31D2BEF1640F18BFB8
:1037D000BEF1750F2BD100235AF8042B97B2ADF828
:1037E00000700122BEF1640F08D15FEA074C05D5D5
:1037F00001236FEA070C0CF10107BFB237B15B1C64
:1038000097FBFBF7BFB2002FF9D109E05B1C07E083
:10381000376807F1010CC6F800C020270CF8017DBD
:103820001F467B1CFFB28F42F2DB6D1C00E00022C2
:10383000691E2B78002B00F08B80322B18BF342BA5
:1038400064D0482B57D0582B57D0632B0CD0642B07
:103850001BD0682B4FD0702B18BF732B0BD0752B40
:1038600013D0782B49D01AE700F07EF85AF8041BE1
:1038700000F8011D18E700F07BF818B100F071F8AE
:103880000028F7D10020BDE8FE8F002A12BFBDF846
:1038900000105AF8041B89B219B900F065F83021FC
:1038A000E6E70020642B0DD10A040BD53268521CC8
:1038B00032602D2302F8013DB1F5004F02D049429C
:1038C00089B249B191FBFBF20BFB1211C0B201AB03
:1038D000C154401C91B2F4E70146481EC9B2002908
:1038E00013D0C0B201A9415C30313268521C326041
:1038F00002F8011DF0E700F03FF85AF8041B02221D
:10390000C9B2206AFFF7C2F82062CDE615F8010FB0
:10391000682818BF48280BD100F02EF8206A15F847
:10392000011C32290AD15AF8041B042289B2E9E7A2
:10393000782818BF5828F1D06D1EB5E65AF8047BD8
:103940000422390CFFF7A2F820620422B9B2D9E7A9
:10395000002888D1A7E600F00DF8002892D0707AF0
:1039600091E7394620466FE63068401C306070476A
:103970005AF8047B204651E6206A302100F8011BEA
:10398000411C21627821017070470EB410B58BB0D4
:1039900000241249097809B9002004E000F011F868
:1039A00000B90124204608E00EB410B58BB0002405
:1039B00000F007F800B9012420460BB010BC5DF8F8
:1039C00010FB07490091074909788DF804100DAAEA
:1039D000014600A84FE600004926002048260020A6
:1039E000352F00081026002062B38B0708D0521E26
:1039F00011F8013B00F8013B00F024808B07F6D161
:103A0000830740F0208000BF103A07D330B4B1E8FC
:103A10003810103AA0E83810F9D230BC530724BF50
:103A2000B1E80810A0E8081044BF51F8043B40F882
:103A3000043BD20724BF31F8022B20F8022B44BFED
:103A40000B7803707047083A07D3B1E80810083ABA
:103A500040F8043B40F804CBF7D25307E4E70000FA
:103A600038B5012004F05DFA002004F019FCDFF8FD
:103A70003843206840F00800206000F006FA04F0A7
:103A8000FFFB00F05CF88D78DD608D890560CD89E5
:103A9000456000F04BF8206820F01000206004F032
:103AA0004BFD04F03DFE04F0CFFA00F0ECF9BDE868
:103AB000314000F005BA10B504F010F8DFF8EC0260
:103AC000DFF8EC120A79C260DFF8E8224B79D360A4
:103AD000DFF8E4328C79DC600C8B04604C8B446042
:103AE000888B1060C88B5060088C1860488C5860B8
:103AF00010BD10B5FFE704F0EBF904F0C1FB00F0D6
:103B00001EF88C78DC608C890460CC89446000F0FD
:103B10000DF8A548016821F01001016004F00CFDCA
:103B200004F0CCFABDE8104003F0E1BF088A106051
:103B3000488A5060888A1860C88A586042E09B486A
:103B40009B490A78C2609B4A4B78D3609A4B704776
:103B5000F0B50B68964C646A0F25960005FA06F6D8
:103B6000344212D0002606EB820724FA07F7FF073B
:103B700008D5B70005FA07F7BB4330F812C007EACB
:103B80000C073B43761C042EEDDB0B60F0BDF0B55B
:103B90000B68874C646AFF25D600B5402C420FD0D5
:103BA000002505EBC20624FA06F6F60705D5012620
:103BB000AE40B343175C3E4033436D1C082DF0DB31
:103BC0000B60F0BD10B57A4C606A002827D0002247
:103BD0007B49201DFFF7DBFF01227A49201DFFF7FB
:103BE000D6FF02227849201DFFF7D1FF00226F493E
:103BF00000F016F80122714900F012F802226D4916
:103C000000F00EF80322714900F00AF804226A4914
:103C100000F006F805226E4904F1180034E010BDEA
:103C200004F1180094E710B5614C606A002827D0B1
:103C3000002263492046FFF7AAFF0122614920467E
:103C4000FFF7A5FF022260492046FFF7A0FF0022F0
:103C5000564900F016F80122584900F012F80222E5
:103C6000544900F00EF80322584900F00AF80422E3
:103C7000514900F006F80522554904F10C0003E013
:103C800010BD04F10C0063E7BDE8104060E780B5AB
:103C900004F017FE0FF2681101EB800002BD80B541
:103CA00004F013FEC1B20004000E0FF2801252F8AD
:103CB000200000EB810002BD00003D48007A704703
:103CC0003B48807A704744484FF40041C160082166
:103CD00001603749887A50B13E480068800900F099
:103CE00001000B7A83421CBF087205F0A7B8704729
:103CF0002DE9F04104462E4DAC72374F0020B865D7
:103D00004FF400483548C0F8008008203860C7F8F4
:103D10000C8003F0AFFD294E002C316821F4706156
:103D200014D041F400613160B16821F04001B1600C
:103D3000082100F05FF801F0BF012970082100F0B0
:103D400053F801F0BF012971012113E041F48071A2
:103D50003160B16841F04001B160012100F04AF8E2
:103D600041F040012970012100F03EF841F040018E
:103D700029710021697203F083FD4CB118480621B6
:103D800001606020B8657068800900F0010001E002
:103D90000020B8652872287A05F050F814B111484F
:103DA000C0F80080BDE8F08100BC004000B00040D9
:103DB0002427002000B4004000B8004004B00040B8
:103DC0000CB000400CB400400CB8004004B40040FB
:103DD00004B8004008B0004014A8004080E100E0B2
:103DE00018BC004000E100E06A8B61F30B226A839B
:103DF00029797047EA8961F30B22EA8129787047B3
:103E0000554E4B004649420042544C004558540020
:103E10005057520057444700205357004352530015
:103E20004653480042414400464C5400141C0108CB
:103E3000181C0108701C0108901C0108981C01083E
:103E4000A41C0108B01C0108BC1C0108C41C01080A
:103E5000D01C0108E01C01082C480068C00702D4EF
:103E600042F6E060704745F6C050704780B5FFF7F6
:103E7000F3FF2749096801B9400802BD80B5FFF783
:103E8000EBFF400802BD03F0E6BF2248012181603C
:103E90004EF6BE21416000E01F48012101607047DD
:103EA000A52805D11B484DF6AD6141600221016096
:103EB00070471848006810F0010018BF01207047D3
:103EC00080B5164810210160154800781549164A3A
:103ED00058B103280CBF00200120106040F65100AB
:103EE0000860002004F060FA06E0022010604FF441
:103EF0000060086003F06EFF0C480721016000219C
:103F000001640B4810210160002002BD1C400040EC
:103F100020400040006000400860004080E100E078
:103F2000DC2F00200C6000400800004014A000407E
:103F300000E100E080B59E48002141604170817041
:103F4000A521017000F01EF8002002BD994801680B
:103F5000C90700D4704780B597490A6822F44062C7
:103F60000A60016849084900016001680902FCD43F
:103F70009248006810B1642004F0FBF990480021D9
:103F8000016001BD80B58F48016841F0807101601A
:103F90008D48012101608D49002004F013FA8C48FE
:103FA000022101608B48002101608B488B49016030
:103FB0008B4901220A607F498A4A0A6040F2014126
:103FC000016589484FF48031016001BD7C4800687B
:103FD00000B10120C0B27047D12202704170090ABD
:103FE000817082490A78C270501C087004207047A2
:103FF0002DE9F14F82B000907D490968405C441D75
:10400000E4B2002504F062FF01904FF6FF79FFF75C
:10401000DDFFB8B956E0A91EC9B29DF80800FFF748
:10402000F5F90746494604F07FFF81465546F9B247
:10403000F00001FA00F040EA0808761C042E16D3BE
:10404000CBF80080EDB2A54234DA04F03FFF0199CD
:10405000401A40F2F51180B288422BD24FF0604BEB
:10406000DBF800000128EDD14FF000080026EDB28A
:1040700015B95B270125DAE7012D05D100985C49C8
:104080000968475C0225D2E705F1010AE11E8D426D
:1040900008BF4F46CAD0A11E8D4208BF4FEA19275C
:1040A000C4D0611E8D4208BF5D27BFD0A542B2D1EA
:1040B0000027BCE74FF4C87004F05BF9A54208BFC5
:1040C000002000D00120BDE8FE8F49490968415C0D
:1040D000042928BFFFF78CBF012070472DE9F04766
:1040E000334D6E78002E60D004F0F0FE80463146ED
:1040F0000020FFF77BF80446A146FF2C02D10020E8
:10410000687052E02027202E98BF3746FEF7B6FF92
:104110006860AF70DFF8DCA012E0A87880B9F01B0F
:104120006870C6B266B1DAF8000019F8009020276E
:10413000202E98BF37464846FEF7A0FF6860AF7054
:10414000687840B104F0C2FEA0EB080040F2F5111F
:1041500080B28842E1D3002E04BF687800281CD1C9
:10416000A878D0B922480068205C851EE9B22046B4
:10417000FFF75BF9122808D1E9B22046FFF702F9F0
:104180002146122004F09BFF0AE021461A48FFF75F
:1041900091F92046FEF7D8FF02E000206870A87071
:1041A0002046BDE8F047FEF7DDBFBDE8F087000020
:1041B000F02F0020800E00E0001000E034000040EE
:1041C000100004E0FCED00E0040004E020A1070082
:1041D000F00004E0040304E0B00F00E055CEACC5ED
:1041E000000E00E00D00010000E100E0DF2F0020E4
:1041F000A8260020B02600204C270020002181F3B3
:104200001188704742DE704738B504460D46FFF707
:1042100043FE03F02FFB2946204604F097FE2B4671
:1042200022460FF294510120FEF7E2FE2946204675
:10423000BDE83440E6E72DE9F8434FF42065DFF8A8
:104240005465371DDFF8500501687965016AB96565
:10425000DFF848150968F965416A3966816A796647
:10426000C16AB966016BF966806B386797F83400EC
:1042700040074CBFFC6BBC6BA04605F01DF83865D1
:10428000DFF81C15DFF81C25DFF81C35A64686452F
:1042900024BFA3F12009F14520D354F818EFC7F843
:1042A00040E054F804EFC7F844E07C6DE405E40D09
:1042B000062C17D13C6CA646964513D38E4511D2D9
:1042C00024884DF6426E74450CD106F18C04756855
:1042D00065607D68A56040F2017503E000243C64E0
:1042E0007C648046DFF8C444A04202D2204600E04D
:1042F000001D984204D2D0F800E0BEF1CD3FF7D0C7
:10430000181AB8640020F864844606EB8004C4F8E8
:1043100078C0401C0628F8D3002004E0C0B206EBA9
:10432000800CCCF8784098452BD253F8044D944239
:10433000F9D38C42F7D25FEAC47CF4D54FF0000C7D
:1043400006EB8C0EDEF878E0A64504D00CF1010CEB
:10435000BCF1060FF4DBBCF1060FE4D1002814BF5A
:10436000401E0520DAE77C6F4FF0000C06EB8C0155
:10437000CA6F8A670CF1010CBCF1050FF6DBC6F8B9
:104380008C400146481EC9B20029ECD1786DC005A9
:10439000C00D02280AD0032816D0042817D00528FB
:1043A00018D0062819D00C281DD01FE0DFF8000413
:1043B0000168890748BF40F602151CD40068C00791
:1043C00019D540F2025516E040F6012513E040F6FB
:1043D000022510E040F603250DE0B5F5206F0AD167
:1043E00040F6042507E040F6052504E018B124282E
:1043F00038BF40F607252846BDE8F2832DE9F04F87
:1044000085B08046DFF88C53A86B410707D50FF2C3
:10441000BC3103912E6C2F6D0024A14607E00FF2F2
:10442000B4310391EE6BEF6C6C6DDFF87C93000799
:104430004CBF0FF2A8320FF2AC32B9EB040A07D02E
:1044400064204FEA5A0100FB0710B0FBFAFB01E0C1
:104450004FF0000B0296CDF804900094039B0FF2EE
:104460008C314046FEF75AFD1FFA8AF001900398FE
:1044700000901FFA8BF3BAB20FF2A0314046FEF75C
:104480004DFD95F8380040070CD4AAF198008742FA
:1044900008D1686DC549884204D20FF2BC3140464C
:1044A000FEF73CFDB14528BFA64205D2039A0FF2A4
:1044B000D4314046FEF732FD4046FEF784FD286EBB
:1044C000F8B10FF2E0314046FEF720FD0026ACA720
:1044D0000FF28474286E0121B14008421EBF54F8C7
:1044E00026201078002803D039464046FEF70EFDFE
:1044F000761C112EEEDB404605B0BDE8F04FFEF70E
:10450000F1BC0FF2D031404605B0BDE8F04FFEF7E8
:1045100005BD2DE9F84F04469E4F07F144050FF203
:10452000B85A0FF2D0590FF2B86801260FF22C4B8F
:1045300004F0CBF940F20151401A16D0401E17D0BA
:1045400040F2FF11401A35D04FF44071401A39D073
:10455000401E52D0401E73D0401E00F0B280401E5C
:1045600000F0CB80401E06D0C5E00FF2803141E064
:104570000FF2B831C3E0E86C012806D0032807D059
:10458000042807D0052808D00AE00FF2EC3608E02E
:104590007CA606E00FF2E83603E00FF2EC3600E00E
:1045A00079A60FF2EC3100F0B9F82B6D32460FF21C
:1045B000084103E02B6DEA6C0FF214412046FEF730
:1045C000ADFC93E00FF2244100F0A8F895F8240028
:1045D000800703D50FF22C4100F0A0F8686A400074
:1045E00003D50FF25C4100F099F8686A00287DD588
:1045F0000FF2804100F092F878E00FF2B44100F041
:104600008DF895F8200010F0030F01D000F081F82C
:1046100095F82000000603D5EA6A514600F07BF8C1
:10462000002700F071F81EBF58F8272010780028E6
:1046300002D0494600F06FF87F1C082FF1DB55E0EF
:104640000FF2B84100F06AF800F063F8286A4005FC
:1046500003D50FF2C04100F061F8286A000403D5C9
:10466000EA6A514600F057F8082700F04DF81EBFDF
:1046700058F827201078002802D0494600F04BF85F
:104680007F1C102FF1DB95F82000000603D10FF2FC
:10469000CC4100F043F801270FF2F0490FF2A8587F
:1046A000286B06FA07F108421EBF58F82720107839
:1046B000002802D0494600F02EF87F1C042FEFDBC3
:1046C00014E00FF2D04100F029F800F022F8102792
:1046D00000F01AF81EBF58F827201078002802D0E2
:1046E000494600F018F87F1C1A2FF1DB2046BDE880
:1046F000F24FFEF768BCBDE8F18F0FF2B44100F055
:104700000DF800F006F8F1E7286A06FA07F108420A
:1047100070477A6C59462046FEF700BC2046FEF7EB
:10472000FDBB2DE9F0478046DFF888A00FF26C56FC
:10473000002516A716A40FF29C4906E04046FEF796
:10474000E5FB4046FEF73FFC6D1C3078A8B15AF8F7
:10475000043B324649464046FEF7D8FB16F8010BAB
:104760000028FBD1307800281EBFEDB205F0030011
:10477000032814BF21463946E0E7BDE8F087000072
:1047800020257000414443003F3F00000D0A000017
:104790002C2000000000002004ED00E000E300E019
:1047A0009CFE0008902100081026002098000020A0
:1047B0001CA00040040000200D0A5B4153534552E9
:1047C000543A25703A25645D0D0A000070726F63DB
:1047D000657373006D61696E000000005468726556
:1047E0006164000048616E646C6572002570206D24
:1047F0006F6465207573696E67202570207374611E
:10480000636B202825347820746F20253478292C78
:10481000205350203D20253478000000257520626B
:10482000797465732075736564202825752525299D
:1048300020696E20257020737461636B20286F756A
:1048400074206F6620257520627974657320746FFB
:1048500074616C2900000000537461636B205F6D0C
:1048600061795F2068617665207573656420757075
:1048700020746F203130302525206F6620746F74CE
:10488000616C2E005350206973206F7574736964D6
:104890006520257020737461636B2072616E67659B
:1048A00021000000496E7465727275707473206126
:1048B000637469766520286F72207072652D656D4E
:1048C0007074656420616E6420737461636B6564E9
:1048D000293A00004E6F20696E74657272757074AB
:1048E000732061637469766500000000526573652A
:1048F000742063617573653A205761746368646FEF
:104900006720657870697265642C206E6F2072650F
:104910006C6961626C6520657874726120696E668D
:104920006F726D6174696F6E00000000526573658F
:10493000742063617573653A205761746368646FAE
:104940006720636175676874207769746820656E95
:1049500068616E63656420696E666F00496E73748A
:1049600072756374696F6E20616464726573733A03
:104970002025347800000000534331205278000095
:104980004D414320527800005343322052780000BA
:1049900052657365742063617573653A20444D41B7
:1049A0002070726F74656374696F6E2076696F6CC6
:1049B0006174696F6E000000444D413A2025702CEF
:1049C00020616464726573733A20253478000000B6
:1049D00052657365742063617573653A2041737322
:1049E0006572742025703A25640000005265736575
:1049F000742063617573653A204861726420466172
:104A0000756C7400484653522E5645435454424CDC
:104A10003A206572726F722072656164696E6720F8
:104A2000766563746F72207461626C6520666F7264
:104A300020616E20657863657074696F6E00000098
:104A4000484653522E464F524345443A20636F6EB8
:104A5000666967757261626C65206661756C742049
:104A6000636F756C64206E6F742061637469766126
:104A700074650000484653522E44454255474556FA
:104A8000543A206661756C742072656C617465645B
:104A900020746F206465627567202D20652E672E57
:104AA0002C20657865637574656420424B50540012
:104AB00052657365742063617573653A204D656D49
:104AC0006F7279204D616E6167656D656E74204609
:104AD00061756C7400000000496C6C6567616C2046
:104AE00061636365737320616464726573733A20F4
:104AF00025347800434653522E2570005265736565
:104B0000742063617573653A204275732046617540
:104B10006C74000041646472657373206973206F64
:104B20006620616E20696E737472756374696F6E4E
:104B300020616674657220627573206661756C749D
:104B4000206F636375727265642C206E6F742074BD
:104B500068652063617573652E00000043465352FB
:104B60002E286E6F6E6529206C6F6164206F722035
:104B700073746F726520617420616E20696C6C655E
:104B800067616C20616464726573730041465352BF
:104B90002E25700052657365742063617573653AE4
:104BA000205573616765204661756C7400000000D4
:104BB00052657365742063617573653A204465625C
:104BC0007567204D6F6E69746F72204661756C74E5
:104BD000000000002570203D2025347800000000F2
:104BE000F4130108341401086C140108701401084E
:104BF000B41401086C1401086C140108F0140108C5
:104C00002015010850150108741501089C150108AC
:104C1000DC1501086C1401086C1401081816010851
:104C20004816010880160108BC160108EC16010898
:104C30006C1401086C1401086C1401086C14010850
:104C400024170108541701086C140108941701086F
:104C5000D817010818180108541801085C18010831
:104C600064180108701801087C18010888180108E8
:104C70008C180108901801089C180108A818010850
:104C8000B0180108B8180108BC180108C4180108B8
:104C9000CC180108D4180108DC1801085230005261
:104CA0003100523200523300523400523500523635
:104CB0000052370052380052390052313000523120
:104CC000310052313200523133284C5229004D53B9
:104CD00050005053500050430078505352004D53F1
:104CE00050207573656400505350207573656400DF
:104CF00043535441434B20626F74746F6D004943BA
:104D0000535200534843535200494E545F41435459
:104D100049564500434653520048465352004446C4
:104D20005352004D4D41522F42464152004146538D
:104D3000520052657430005265743100526574320D
:104D40000052657433005265743400526574350046
:104D50004461743000446174310000002DE9F8436F
:104D60000446DFF848040068255C0026B146E807E1
:104D700048BF002020D400270FF2B84802E04FEAD5
:104D800000197F1CFFB2AF4211DA39462046FEF708
:104D90003DFB10F8080000F00F00F907EFD549EAD5
:104DA0000002F1B22046FEF736FB761CE9E7F1B2CD
:104DB0002046FEF769F90120BDE8F283FF2180F863
:104DC00026100021C173C18380F82410817301680B
:104DD000016370472DE9F24F82B080469346002769
:104DE00008F104040CE0012200A9FEF789FA38B1A9
:104DF00002208DF800009DF80010404600F032F9C6
:104E00000025A94608F12406029848BB00A95FFACC
:104E10008BF0FDF74BFF002831D0262824D001214C
:104E2000404600F01FF978208DF80000CA46102592
:104E30000027E07A0828E3D8DFE800F0064A6AC4D1
:104E4000C4E6F2897B00DBE7102D36D1607A707200
:104E50000120E07241469DF8000000F00AF9CFE71A
:104E60005FFA8BF1002902D13846BDE8FE8F401C65
:104E70000290401E00788DF80000A1F1010BCA4697
:104E80009DF80000672815D20FF2A831405C00F0B1
:104E9000300500F00F0A400604D5717A8A4538BF04
:104EA0004FF001099DF800000A2818BF0D28BFD156
:104EB0000127BEE77B28BBD2B9E79DF80000232875
:104EC00002D10820E0729BE7202D99D0032090E7C3
:104ED000102D1CBF9DF800005F2802D0B9F1000F13
:104EE00004D098F824000C28F0D2B3E7202D18BF86
:104EF000302D1AD198F824004044002141744046D6
:104F000000F0C5F888B1002088F824000220E07283
:104F1000607A7072B9F1000F2AD02B203072C6F877
:104F200004A0607A70720420CCE70321404600F0B0
:104F300099F8002F0AD0207B28B14046D8F80410F9
:104F40008847002020734046FFF738FF58E71FB11D
:104F5000404600F0CBF8F6E79DF80000232803D187
:104F6000404600F0C3F8ACE7202DEFD0042040E726
:104F70009DF800002D2818BF2B2806D13072002084
:104F80007060607A707203209CE722280AD10120A9
:104F9000FEF77FF8B070FF280BD00021FEF774F801
:104FA00005208FE77B28D2D10120FEF772F8B07080
:104FB000FF283FF41DAF0021FEF766F81020707245
:104FC00006207FE7B9F1000F07D07068717A01FB06
:104FD00000A00421E172706012E79DF800107829AA
:104FE00018BF582904D1716811B91020707207E7F1
:104FF00003282CD0202D18BF302D28D1404600F09A
:10500000A9F8002895D081E79DF80000222820D13A
:105010000021404600F0D2F80028E8D0022051E7F5
:105020009DF800007D280DD1B078FFF797FE064669
:105030000121404600F0C2F808B10220E072002EC3
:10504000D5D104E0202DD2D0B9F1000F01D1072035
:10505000CFE6B07855490968415CFF297FF4C3AEBB
:105060000820C6E6027C1AB90822C2730174B7E0B0
:10507000704791F82420A0F14103DBB21A2B38BF0E
:10508000203053185874501C81F824007047F0B534
:1050900000F21101026B1346002406E016F801CB62
:1050A000EDB2AC4506D0641C10335D68E5B11F68F5
:1050B0000E4600E07F1C3578002D3D780BD1002D89
:1050C000F1D1C483C18B02EB011189680162002117
:1050D00081730120F0BDA5F1410C5FFA8CFCBCF19D
:1050E0001A0FDBD22035D9E70020F0BD10B50446F9
:1050F000206A017831B162290CBF01210221085CCC
:105100002A2807D12046E18B226B02EB0111496866
:10511000884706E004202074204661688847002004
:1051200020742046BDE810405AE010B5837B047B14
:10513000A34201D105213DE0846844F82310817B1E
:10514000491C8173016A535C2A2B1CBF51180162F0
:10515000012010BD10B5016A0A784B7800F12004D7
:10516000A168247B2D2C08BF4942752A03D1342B1A
:105170000CD1022231E0732A0FD1312B07BF6FF01F
:105180007F027F230A4A47F6FF7308E00022312B93
:1051900014BF4FF6FF73FF2301E004210AE09142A0
:1051A000A8BF8B42E5DA0621F8E70000A826002018
:1051B0000080FFFFFFF756FF002010BD10B5026A08
:1051C0001278622A01D00421F4E700F120029379D9
:1051D000FF249471012213EB0121BDE81040A4E7E4
:1051E000F8B5044604F10805E88AA96A01EB001045
:1051F0008668002705E00220815D2A2918BF8619EC
:105200007F1CA879FFB287420AD230786228F2D197
:10521000A06850F82700C0B2FDF7A4FF0120EBE71B
:105220000020A871A87FFF2803D0FDF79BFFFF2077
:10523000A877F1BD00000000000000000020202041
:10524000202000000000000000000000000000001E
:10525000000000002000303000000000000000309E
:105260000030000040414243444546474849000061
:1052700000000000005A5B5C5D5E5F1010101010B3
:1052800010101010101010101010101010101030FE
:1052900000000000005A5B5C5D5E5F0010B50124F9
:1052A00003F00FFB04FA00F040F2A17108420BD0AA
:1052B000064C2078FFF7A2F82078FFF72AF920782B
:1052C000BDE81040FFF72DBA10BD00BF102600202A
:1052D00010B5DFF844440FF2140101F09AF80FF210
:1052E0001C012078BDE81040FDF710BE286C6974E1
:1052F000746C6520656E6469616E00002C20616CC1
:105300006C206461746120726570726573656E747F
:1053100065642061732062797465206172726179BD
:10532000290D0A000178A1F13002D2B20A2A0CD369
:10533000A1F14102D2B2062A38BF373905D3A1F113
:105340006102D2B2062A03D257390907090E00E0DA
:1053500000214078A0F13002D2B20A2A02D24018CD
:1053600030380EE0A0F14102D2B2062A02D2401833
:10537000373806E0A0F16102D2B2062A03D2401803
:105380005738C0B270470809704710B503F0C0FF26
:10539000020019D0E04C2078042A08BF0FF22C013B
:1053A00008D0062A08BF0FF2700103D0072A04D1E3
:1053B0000FF2A801FDF7AAFD03E00FF2E801FDF7E7
:1053C000A5FD0FF214118CE710BD000068616C534D
:1053D0007461636B496E6974546F6B656E732046BC
:1053E00041494C4544207769746820454D424552F7
:1053F0005F454550524F4D5F4D46475F53544143C3
:105400004B5F56455253494F4E5F4D49534D4154A2
:1054100043480D0A0000000068616C537461636BBF
:10542000496E6974546F6B656E73204641494C45F3
:1054300044207769746820454D4245525F45455088
:10544000524F4D5F4D46475F56455253494F4E5F51
:105450004D49534D415443480D0A000068616C5357
:105460007461636B496E6974546F6B656E7320462B
:1054700041494C4544207769746820454D42455266
:105480005F454550524F4D5F535441434B5F564526
:105490005253494F4E5F4D49534D415443480D0AB5
:1054A0000000000068616C537461636B496E69743D
:1054B000546F6B656E73204641494C4544207769B3
:1054C000746820456D6265725374617475733A2017
:1054D00025580D0A00000000546F6B656E73206143
:1054E0007265207374696C6C2061637469766520E1
:1054F0007768656E207573696E67207468697320BC
:105500006170706C69636174696F6E2E0D0A0000C2
:105510002DE9F04F89B080680568FFF7D9FEA8B281
:1055200004F000F90446A8B203F06EFF8046A8B26A
:1055300004F0BFF98346784F3878002C1ABF4FF635
:10554000FF7188450FF27C212ED02346AAB20FF2BC
:105550001411FDF7DBFC00250FF2B4190FF2B41A99
:105560000AE000A9725C49463878FDF7CFFC761C4A
:10557000F6B2A642F5DB6D1CEDB25D4512DABBF169
:10558000010F234604D17F22414600F072F807E064
:105590002A46414600F06DF851463878FDF7B6FCD2
:1055A0000026E5E751463878FDF7B0FC09B0BDE8C4
:1055B000F08F2DE9F04788B0806804684768FFF7EE
:1055C00087FEA0B204F0AEF88146A0B203F01CFF43
:1055D0008046A0B204F06DF905464F4E3078B9F11F
:1055E000000F1ABF4FF6FF7188450FF2D81133D064
:1055F000A5F1010A15B1FFB2BA450BDA0FF2D011CD
:10560000FDF784FC534600220FF2FC113078FDF7C1
:105610007DFC23E04B46A2B20FF24801FDF776FC79
:10562000012D08BF7F274B463A46414600F021F83E
:1056300038A421463078FDF769FC00270FF2D00826
:1056400005E000AABA5C4146FDF760FC7F1C30789B
:10565000FFB24F45F5DB2146FDF758FC08B0BDE829
:10566000F08700005B2532785D28256429203D0005
:10567000018800A803F091BE2DE9F047C2B0806810
:105680000668FFF725FEB0B204F04CF88146B0B2D0
:1056900003F0BAFE8246B0B204F00BF90646DFF81A
:1056A0000C7DB9F1000F1CBF4FF6FF70824505D18C
:1056B0000FF210113878FDF729FC80E000240FF27A
:1056C0006C1803E0504603F07AFE641CB442F4DA2E
:1056D000002513E006FB09F0431E09FB0452414676
:1056E0003878FDF713FC032200A93878FDF79BFBFF
:1056F00000A8FFF717FE01A968546D1C4D45E9DBB2
:10570000012E4B4601AA0CBF7F21E1B2DAE700006F
:10571000202558000D0A0000102600202DE9F04732
:10572000C2B0806807684468FFF7D2FDB8B203F0E2
:10573000F9FF8046B8B203F067FE8146B8B204F0C4
:10574000B8F80746DFF8645C2878B8F1000F1CBF92
:105750004FF6FF71894504D10FF26801FDF7D6FBC2
:105760002DE07E1E17B1E4B2A6420ADA0FF2600104
:10577000FDF7CCFB334600220FF28C0100F09DFEBA
:105780001DE000260FF2A40A0EE0A8F1010300F0CC
:1057900092FE032200A92878FDF745FB00A8FFF739
:1057A000C1FD01A97054761C4645EEDB012F08BFF0
:1057B0007F24434601AA2146484603F000FE42B03A
:1057C000BDE8F0876E6F7420666F756E640D0A0019
:1057D0004552524F523A204465736972656420699C
:1057E0006E646578206973206F7574206F6620720F
:1057F000616E676520666F72207468697320746FCC
:105800006B656E0D0A00000020202020202020560D
:10581000616C69642072616E676520697320255828
:1058200020746872752025580D0A00006461746147
:1058300020627974655B2564206F662025645D3A7B
:10584000000000002DE9F043FBB0FFF741FDDFF859
:105850005C4B0FF65C384CF24432414600F0DFFD01
:105860000FF6543100F0D1FD0FF2883918237F2252
:10587000DFF8B00B01881CA803F08FFD00271CA8DF
:105880003A5C00F0CBFD7F1C182FF8D3DAA700F0AC
:10589000BFFD4FF26402414600F0C1FD0FF6283112
:1058A00000F0B3FD06237F22DFF87C0B00F0A4FD9F
:1058B000002500F0B1FD6D1C062DFAD300F0A8FD07
:1058C0004FF26442414600F0AAFD0FF60C3100F0A1
:1058D0009CFD06237F22DFF8540B018811A803F0FA
:1058E0005CFD002511A800F098FD6D1C062DF9D374
:1058F00000F08EFD4EF24552414600F090FD0FF64D
:10590000C03100F082FD08237F22DFF8240B00F075
:1059100073FD002500F080FD6D1C082DFAD300F00A
:1059200077FD4FF26E42414600F079FD0FF6A4314B
:1059300000F06BFD14237F22DFF8F80A018817A816
:1059400003F02BFD002517A800F067FD6D1C142D3A
:10595000F9D300F05DFD4FF24242414600F05FFD99
:105960000FF6883100F051FD14237F22DFF8C80ABA
:1059700000F03AFD00250CA800F04FFD6D1C142D21
:10598000F9D300F045FD4FF26242414600F047FD79
:105990000FF6703100F039FD0A237F22DFF89C0AF0
:1059A000018808A803F0F9FC002508A800F035FDDF
:1059B0006D1C0A2DF9D300F02BFD4FF274224146E5
:1059C00000F02DFD0FF6543100F01FFD01250223DC
:1059D0007F22DFF86C0AFFF74BFE9DF8002000F0F5
:1059E0001DFD9DF8012000F019FD6D1EEFD100F0A6
:1059F0000FFD4FF27622414600F011FD0FF62C31DB
:105A000000F003FD012502237F22DFF8380A00F0B1
:105A1000F7FC9DF8022000F001FD9DF8032000F046
:105A2000FDFC6D1EEFD100F0F3FC4FF276624146B3
:105A300000F0F5FC0FF6083100F0E7FC0125022329
:105A40007F22DFF8040AFFF713FE9DF8002000F024
:105A5000E5FC9DF8012000F0E1FC6D1EEFD100F0A7
:105A6000D7FC4FF26342414600F0D9FC0FF6E42127
:105A700000F0CBFC012502237F22DFF8D00900F0E3
:105A8000BFFC9DF8022000F0C9FC9DF8032000F047
:105A9000C5FC6D1EEFD100F0BBFC4FF274424146D5
:105AA00000F0BDFC0FF6BC2100F0AFFC0125022385
:105AB0007F22DFF89C09FFF7DBFD9DF8002000F056
:105AC000ADFC9DF8012000F0A9FC6D1EEFD100F0A7
:105AD0009FFC4FF60972414600F0A1FC0FF694219D
